{
  "contractName": "CustomNFT",
  "abi": [
    {
      "inputs": [
        {
          "internalType": "uint256",
          "name": "maxBatchSize_",
          "type": "uint256"
        },
        {
          "internalType": "uint256",
          "name": "collectionSize_",
          "type": "uint256"
        }
      ],
      "stateMutability": "nonpayable",
      "type": "constructor"
    },
    {
      "anonymous": false,
      "inputs": [
        {
          "indexed": true,
          "internalType": "address",
          "name": "owner",
          "type": "address"
        },
        {
          "indexed": true,
          "internalType": "address",
          "name": "approved",
          "type": "address"
        },
        {
          "indexed": true,
          "internalType": "uint256",
          "name": "tokenId",
          "type": "uint256"
        }
      ],
      "name": "Approval",
      "type": "event"
    },
    {
      "anonymous": false,
      "inputs": [
        {
          "indexed": true,
          "internalType": "address",
          "name": "owner",
          "type": "address"
        },
        {
          "indexed": true,
          "internalType": "address",
          "name": "operator",
          "type": "address"
        },
        {
          "indexed": false,
          "internalType": "bool",
          "name": "approved",
          "type": "bool"
        }
      ],
      "name": "ApprovalForAll",
      "type": "event"
    },
    {
      "anonymous": false,
      "inputs": [
        {
          "indexed": true,
          "internalType": "address",
          "name": "previousOwner",
          "type": "address"
        },
        {
          "indexed": true,
          "internalType": "address",
          "name": "newOwner",
          "type": "address"
        }
      ],
      "name": "OwnershipTransferred",
      "type": "event"
    },
    {
      "anonymous": false,
      "inputs": [
        {
          "indexed": true,
          "internalType": "address",
          "name": "from",
          "type": "address"
        },
        {
          "indexed": true,
          "internalType": "address",
          "name": "to",
          "type": "address"
        },
        {
          "indexed": true,
          "internalType": "uint256",
          "name": "tokenId",
          "type": "uint256"
        }
      ],
      "name": "Transfer",
      "type": "event"
    },
    {
      "inputs": [],
      "name": "SALE_OPEN",
      "outputs": [
        {
          "internalType": "bool",
          "name": "",
          "type": "bool"
        }
      ],
      "stateMutability": "view",
      "type": "function"
    },
    {
      "inputs": [
        {
          "internalType": "address",
          "name": "to",
          "type": "address"
        },
        {
          "internalType": "uint256",
          "name": "tokenId",
          "type": "uint256"
        }
      ],
      "name": "approve",
      "outputs": [],
      "stateMutability": "nonpayable",
      "type": "function"
    },
    {
      "inputs": [
        {
          "internalType": "address",
          "name": "owner",
          "type": "address"
        }
      ],
      "name": "balanceOf",
      "outputs": [
        {
          "internalType": "uint256",
          "name": "",
          "type": "uint256"
        }
      ],
      "stateMutability": "view",
      "type": "function"
    },
    {
      "inputs": [
        {
          "internalType": "uint256",
          "name": "tokenId",
          "type": "uint256"
        }
      ],
      "name": "getApproved",
      "outputs": [
        {
          "internalType": "address",
          "name": "",
          "type": "address"
        }
      ],
      "stateMutability": "view",
      "type": "function"
    },
    {
      "inputs": [
        {
          "internalType": "address",
          "name": "owner",
          "type": "address"
        },
        {
          "internalType": "address",
          "name": "operator",
          "type": "address"
        }
      ],
      "name": "isApprovedForAll",
      "outputs": [
        {
          "internalType": "bool",
          "name": "",
          "type": "bool"
        }
      ],
      "stateMutability": "view",
      "type": "function"
    },
    {
      "inputs": [],
      "name": "maxPublicBatchSize",
      "outputs": [
        {
          "internalType": "uint256",
          "name": "",
          "type": "uint256"
        }
      ],
      "stateMutability": "view",
      "type": "function"
    },
    {
      "inputs": [],
      "name": "name",
      "outputs": [
        {
          "internalType": "string",
          "name": "",
          "type": "string"
        }
      ],
      "stateMutability": "view",
      "type": "function"
    },
    {
      "inputs": [],
      "name": "nextOwnerToExplicitlySet",
      "outputs": [
        {
          "internalType": "uint256",
          "name": "",
          "type": "uint256"
        }
      ],
      "stateMutability": "view",
      "type": "function"
    },
    {
      "inputs": [],
      "name": "owner",
      "outputs": [
        {
          "internalType": "address",
          "name": "",
          "type": "address"
        }
      ],
      "stateMutability": "view",
      "type": "function"
    },
    {
      "inputs": [
        {
          "internalType": "uint256",
          "name": "tokenId",
          "type": "uint256"
        }
      ],
      "name": "ownerOf",
      "outputs": [
        {
          "internalType": "address",
          "name": "",
          "type": "address"
        }
      ],
      "stateMutability": "view",
      "type": "function"
    },
    {
      "inputs": [],
      "name": "renounceOwnership",
      "outputs": [],
      "stateMutability": "nonpayable",
      "type": "function"
    },
    {
      "inputs": [
        {
          "internalType": "address",
          "name": "from",
          "type": "address"
        },
        {
          "internalType": "address",
          "name": "to",
          "type": "address"
        },
        {
          "internalType": "uint256",
          "name": "tokenId",
          "type": "uint256"
        }
      ],
      "name": "safeTransferFrom",
      "outputs": [],
      "stateMutability": "nonpayable",
      "type": "function"
    },
    {
      "inputs": [
        {
          "internalType": "address",
          "name": "from",
          "type": "address"
        },
        {
          "internalType": "address",
          "name": "to",
          "type": "address"
        },
        {
          "internalType": "uint256",
          "name": "tokenId",
          "type": "uint256"
        },
        {
          "internalType": "bytes",
          "name": "_data",
          "type": "bytes"
        }
      ],
      "name": "safeTransferFrom",
      "outputs": [],
      "stateMutability": "nonpayable",
      "type": "function"
    },
    {
      "inputs": [],
      "name": "saleConfig",
      "outputs": [
        {
          "internalType": "uint32",
          "name": "publicSaleStartTime",
          "type": "uint32"
        },
        {
          "internalType": "uint64",
          "name": "whitelistPrice",
          "type": "uint64"
        },
        {
          "internalType": "uint64",
          "name": "publicPrice",
          "type": "uint64"
        }
      ],
      "stateMutability": "view",
      "type": "function"
    },
    {
      "inputs": [
        {
          "internalType": "address",
          "name": "operator",
          "type": "address"
        },
        {
          "internalType": "bool",
          "name": "approved",
          "type": "bool"
        }
      ],
      "name": "setApprovalForAll",
      "outputs": [],
      "stateMutability": "nonpayable",
      "type": "function"
    },
    {
      "inputs": [
        {
          "internalType": "bytes4",
          "name": "interfaceId",
          "type": "bytes4"
        }
      ],
      "name": "supportsInterface",
      "outputs": [
        {
          "internalType": "bool",
          "name": "",
          "type": "bool"
        }
      ],
      "stateMutability": "view",
      "type": "function"
    },
    {
      "inputs": [],
      "name": "symbol",
      "outputs": [
        {
          "internalType": "string",
          "name": "",
          "type": "string"
        }
      ],
      "stateMutability": "view",
      "type": "function"
    },
    {
      "inputs": [
        {
          "internalType": "uint256",
          "name": "index",
          "type": "uint256"
        }
      ],
      "name": "tokenByIndex",
      "outputs": [
        {
          "internalType": "uint256",
          "name": "",
          "type": "uint256"
        }
      ],
      "stateMutability": "view",
      "type": "function"
    },
    {
      "inputs": [
        {
          "internalType": "address",
          "name": "owner",
          "type": "address"
        },
        {
          "internalType": "uint256",
          "name": "index",
          "type": "uint256"
        }
      ],
      "name": "tokenOfOwnerByIndex",
      "outputs": [
        {
          "internalType": "uint256",
          "name": "",
          "type": "uint256"
        }
      ],
      "stateMutability": "view",
      "type": "function"
    },
    {
      "inputs": [
        {
          "internalType": "uint256",
          "name": "tokenId",
          "type": "uint256"
        }
      ],
      "name": "tokenURI",
      "outputs": [
        {
          "internalType": "string",
          "name": "",
          "type": "string"
        }
      ],
      "stateMutability": "view",
      "type": "function"
    },
    {
      "inputs": [],
      "name": "totalSupply",
      "outputs": [
        {
          "internalType": "uint256",
          "name": "",
          "type": "uint256"
        }
      ],
      "stateMutability": "view",
      "type": "function"
    },
    {
      "inputs": [
        {
          "internalType": "address",
          "name": "from",
          "type": "address"
        },
        {
          "internalType": "address",
          "name": "to",
          "type": "address"
        },
        {
          "internalType": "uint256",
          "name": "tokenId",
          "type": "uint256"
        }
      ],
      "name": "transferFrom",
      "outputs": [],
      "stateMutability": "nonpayable",
      "type": "function"
    },
    {
      "inputs": [
        {
          "internalType": "address",
          "name": "newOwner",
          "type": "address"
        }
      ],
      "name": "transferOwnership",
      "outputs": [],
      "stateMutability": "nonpayable",
      "type": "function"
    },
    {
      "inputs": [
        {
          "internalType": "address",
          "name": "",
          "type": "address"
        }
      ],
      "name": "whitelist",
      "outputs": [
        {
          "internalType": "uint256",
          "name": "",
          "type": "uint256"
        }
      ],
      "stateMutability": "view",
      "type": "function"
    },
    {
      "inputs": [],
      "name": "whitelistMint",
      "outputs": [],
      "stateMutability": "payable",
      "type": "function"
    },
    {
      "inputs": [
        {
          "internalType": "uint256",
          "name": "quantity",
          "type": "uint256"
        },
        {
          "internalType": "uint256",
          "name": "callerMintKey",
          "type": "uint256"
        }
      ],
      "name": "publicSaleMint",
      "outputs": [],
      "stateMutability": "payable",
      "type": "function"
    },
    {
      "inputs": [
        {
          "internalType": "uint256",
          "name": "publicPriceWei",
          "type": "uint256"
        },
        {
          "internalType": "uint256",
          "name": "mintKey",
          "type": "uint256"
        },
        {
          "internalType": "uint256",
          "name": "publicSaleStartTime",
          "type": "uint256"
        }
      ],
      "name": "isPublicSaleOn",
      "outputs": [
        {
          "internalType": "bool",
          "name": "",
          "type": "bool"
        }
      ],
      "stateMutability": "view",
      "type": "function"
    },
    {
      "inputs": [
        {
          "internalType": "uint64",
          "name": "whitelistPriceWei",
          "type": "uint64"
        },
        {
          "internalType": "uint64",
          "name": "publicPriceWei",
          "type": "uint64"
        },
        {
          "internalType": "uint32",
          "name": "publicSaleStartTime",
          "type": "uint32"
        }
      ],
      "name": "setupSaleInfo",
      "outputs": [],
      "stateMutability": "nonpayable",
      "type": "function"
    },
    {
      "inputs": [
        {
          "internalType": "address[]",
          "name": "addresses",
          "type": "address[]"
        },
        {
          "internalType": "uint256[]",
          "name": "numSlots",
          "type": "uint256[]"
        }
      ],
      "name": "setWhitelist",
      "outputs": [],
      "stateMutability": "nonpayable",
      "type": "function"
    },
    {
      "inputs": [],
      "name": "flipSaleState",
      "outputs": [],
      "stateMutability": "nonpayable",
      "type": "function"
    },
    {
      "inputs": [
        {
          "internalType": "string",
          "name": "baseURI",
          "type": "string"
        }
      ],
      "name": "setBaseURI",
      "outputs": [],
      "stateMutability": "nonpayable",
      "type": "function"
    },
    {
      "inputs": [],
      "name": "withdrawAll",
      "outputs": [],
      "stateMutability": "nonpayable",
      "type": "function"
    },
    {
      "inputs": [
        {
          "internalType": "uint256",
          "name": "quantity",
          "type": "uint256"
        }
      ],
      "name": "setOwnersExplicit",
      "outputs": [],
      "stateMutability": "nonpayable",
      "type": "function"
    },
    {
      "inputs": [
        {
          "internalType": "address",
          "name": "owner",
          "type": "address"
        }
      ],
      "name": "numberMinted",
      "outputs": [
        {
          "internalType": "uint256",
          "name": "",
          "type": "uint256"
        }
      ],
      "stateMutability": "view",
      "type": "function"
    },
    {
      "inputs": [
        {
          "internalType": "uint256",
          "name": "tokenId",
          "type": "uint256"
        }
      ],
      "name": "getOwnershipData",
      "outputs": [
        {
          "components": [
            {
              "internalType": "address",
              "name": "addr",
              "type": "address"
            },
            {
              "internalType": "uint64",
              "name": "startTimestamp",
              "type": "uint64"
            }
          ],
          "internalType": "struct ERC721A.TokenOwnership",
          "name": "",
          "type": "tuple"
        }
      ],
      "stateMutability": "view",
      "type": "function"
    },
    {
      "inputs": [
        {
          "internalType": "uint256",
          "name": "mintPasskey_",
          "type": "uint256"
        }
      ],
      "name": "setMintPassKey",
      "outputs": [],
      "stateMutability": "nonpayable",
      "type": "function"
    }
  ],
  "bytecode": "0x60e0604052600060018190556008819055600b80546001600160a01b031990811673269d13daf86aec35e9bd12684b027cba597360f117909155600c80549091167375d08d5b49b53b6a8f964851e00707c3259da330179055600d80546001600160a81b0319167318236675fe58640dc2e9ddffc478ec2eeea6ca52179055600e553480156200008e57600080fd5b50604051620033e3380380620033e3833981016040819052620000b1916200031c565b6040518060400160405280600a81526020016910dd5cdd1bdb4813919560b21b8152506040518060400160405280600481526020016310d3919560e21b81525083836200010d620001076200022260201b60201c565b62000226565b600081116200017a5760405162461bcd60e51b815260206004820152602e60248201527f455243373231413a20636f6c6c656374696f6e206d757374206861766520612060448201526d6e6f6e7a65726f20737570706c7960901b60648201526084015b60405180910390fd5b60008211620001dc5760405162461bcd60e51b815260206004820152602760248201527f455243373231413a206d61782062617463682073697a65206d757374206265206044820152666e6f6e7a65726f60c81b606482015260840162000171565b8351620001f190600290602087019062000276565b5082516200020790600390602086019062000276565b5060a091909152608052505060016009555060c0526200037e565b3390565b600080546001600160a01b038381166001600160a01b0319831681178455604051919092169283917f8be0079c531659141344cd1fd0a4f28419497f9722a3daafe3b4186f6b6457e09190a35050565b828054620002849062000341565b90600052602060002090601f016020900481019282620002a85760008555620002f3565b82601f10620002c357805160ff1916838001178555620002f3565b82800160010185558215620002f3579182015b82811115620002f3578251825591602001919060010190620002d6565b506200030192915062000305565b5090565b5b8082111562000301576000815560010162000306565b600080604083850312156200033057600080fd5b505080516020909101519092909150565b600181811c908216806200035657607f821691505b602082108114156200037857634e487b7160e01b600052602260045260246000fd5b50919050565b60805160a05160c05161300b620003d860003960008181610316015261160c015260008181611f4901528181611f73015261256d015260008181610fb10152818161158901528181611d4f0152611d81015261300b6000f3fe60806040526004361061020f5760003560e01c8063804f43cd11610118578063b88d4fde116100a0578063dc33e6811161006f578063dc33e6811461065c578063e985e9c51461067c578063ea9a576c146106c5578063f013e0e1146106e5578063f2fde38b1461070557600080fd5b8063b88d4fde146105f3578063c87b56dd14610613578063cb91d8b314610633578063d7224ba01461064657600080fd5b806390aa0b0f116100e757806390aa0b0f146104de5780639231ab2a1461054457806395d89b41146105915780639b19251a146105a6578063a22cb465146105d357600080fd5b8063804f43cd14610482578063853828b61461048a5780638da5cb5b1461049f5780638e26d2aa146104bd57600080fd5b806334918dfd1161019b57806355f804b31161016a57806355f804b3146103ed5780636352211e1461040d57806370a082311461042d578063715018a61461044d57806373d3c8341461046257600080fd5b806334918dfd14610378578063422030ba1461038d57806342842e0e146103ad5780634f6ccce7146103cd57600080fd5b806318160ddd116101e257806318160ddd146102c557806323b872dd146102e4578063288712b3146103045780632d20fb60146103385780632f745c591461035857600080fd5b806301ffc9a71461021457806306fdde0314610249578063081812fc1461026b578063095ea7b3146102a3575b600080fd5b34801561022057600080fd5b5061023461022f366004612830565b610725565b60405190151581526020015b60405180910390f35b34801561025557600080fd5b5061025e610792565b60405161024091906128a5565b34801561027757600080fd5b5061028b6102863660046128b8565b610824565b6040516001600160a01b039091168152602001610240565b3480156102af57600080fd5b506102c36102be3660046128ed565b6108b4565b005b3480156102d157600080fd5b506001545b604051908152602001610240565b3480156102f057600080fd5b506102c36102ff366004612917565b6109cc565b34801561031057600080fd5b506102d67f000000000000000000000000000000000000000000000000000000000000000081565b34801561034457600080fd5b506102c36103533660046128b8565b6109d7565b34801561036457600080fd5b506102d66103733660046128ed565b610a6a565b34801561038457600080fd5b506102c3610be2565b34801561039957600080fd5b506102346103a8366004612953565b610c2d565b3480156103b957600080fd5b506102c36103c8366004612917565b610c51565b3480156103d957600080fd5b506102d66103e83660046128b8565b610c6c565b3480156103f957600080fd5b506102c361040836600461297f565b610cd5565b34801561041957600080fd5b5061028b6104283660046128b8565b610d0b565b34801561043957600080fd5b506102d66104483660046129f0565b610d1d565b34801561045957600080fd5b506102c3610dae565b34801561046e57600080fd5b506102c361047d3660046128b8565b610de4565b6102c3610e13565b34801561049657600080fd5b506102c3611074565b3480156104ab57600080fd5b506000546001600160a01b031661028b565b3480156104c957600080fd5b50600d5461023490600160a01b900460ff1681565b3480156104ea57600080fd5b50600a546105189063ffffffff8116906001600160401b036401000000008204811691600160601b90041683565b6040805163ffffffff90941684526001600160401b039283166020850152911690820152606001610240565b34801561055057600080fd5b5061056461055f3660046128b8565b6111c9565b6040805182516001600160a01b031681526020928301516001600160401b03169281019290925201610240565b34801561059d57600080fd5b5061025e6111e6565b3480156105b257600080fd5b506102d66105c13660046129f0565b600f6020526000908152604090205481565b3480156105df57600080fd5b506102c36105ee366004612a0b565b6111f5565b3480156105ff57600080fd5b506102c361060e366004612a8d565b6112ba565b34801561061f57600080fd5b5061025e61062e3660046128b8565b6112f3565b6102c3610641366004612b4c565b6113c0565b34801561065257600080fd5b506102d660085481565b34801561066857600080fd5b506102d66106773660046129f0565b6116bd565b34801561068857600080fd5b50610234610697366004612b6e565b6001600160a01b03918216600090815260076020908152604080832093909416825291909152205460ff1690565b3480156106d157600080fd5b506102c36106e0366004612bb8565b6116c8565b3480156106f157600080fd5b506102c3610700366004612c96565b611761565b34801561071157600080fd5b506102c36107203660046129f0565b611868565b60006001600160e01b031982166380ac58cd60e01b148061075657506001600160e01b03198216635b5e139f60e01b145b8061077157506001600160e01b0319821663780e9d6360e01b145b8061078c57506301ffc9a760e01b6001600160e01b03198316145b92915050565b6060600280546107a190612d55565b80601f01602080910402602001604051908101604052809291908181526020018280546107cd90612d55565b801561081a5780601f106107ef5761010080835404028352916020019161081a565b820191906000526020600020905b8154815290600101906020018083116107fd57829003601f168201915b5050505050905090565b6000610831826001541190565b6108985760405162461bcd60e51b815260206004820152602d60248201527f455243373231413a20617070726f76656420717565727920666f72206e6f6e6560448201526c3c34b9ba32b73a103a37b5b2b760991b60648201526084015b60405180910390fd5b506000908152600660205260409020546001600160a01b031690565b60006108bf82610d0b565b9050806001600160a01b0316836001600160a01b0316141561092e5760405162461bcd60e51b815260206004820152602260248201527f455243373231413a20617070726f76616c20746f2063757272656e74206f776e60448201526132b960f11b606482015260840161088f565b336001600160a01b038216148061094a575061094a8133610697565b6109bc5760405162461bcd60e51b815260206004820152603960248201527f455243373231413a20617070726f76652063616c6c6572206973206e6f74206f60448201527f776e6572206e6f7220617070726f76656420666f7220616c6c00000000000000606482015260840161088f565b6109c7838383611900565b505050565b6109c783838361195c565b6000546001600160a01b03163314610a015760405162461bcd60e51b815260040161088f90612d90565b60026009541415610a545760405162461bcd60e51b815260206004820152601f60248201527f5265656e7472616e637947756172643a207265656e7472616e742063616c6c00604482015260640161088f565b6002600955610a6281611cde565b506001600955565b6000610a7583610d1d565b8210610ace5760405162461bcd60e51b815260206004820152602260248201527f455243373231413a206f776e657220696e646578206f7574206f6620626f756e604482015261647360f01b606482015260840161088f565b6000610ad960015490565b905060008060005b83811015610b82576000818152600460209081526040918290208251808401909352546001600160a01b038116808452600160a01b9091046001600160401b03169183019190915215610b3357805192505b876001600160a01b0316836001600160a01b03161415610b6f5786841415610b615750935061078c92505050565b83610b6b81612ddb565b9450505b5080610b7a81612ddb565b915050610ae1565b5060405162461bcd60e51b815260206004820152602e60248201527f455243373231413a20756e61626c6520746f2067657420746f6b656e206f662060448201526d0deeedccae440c4f240d2dcc8caf60931b606482015260840161088f565b6000546001600160a01b03163314610c0c5760405162461bcd60e51b815260040161088f90612d90565b600d805460ff60a01b198116600160a01b9182900460ff1615909102179055565b60008315801590610c3d57508215155b8015610c495750814210155b949350505050565b6109c7838383604051806020016040528060008152506112ba565b6000610c7760015490565b8210610cd15760405162461bcd60e51b815260206004820152602360248201527f455243373231413a20676c6f62616c20696e646578206f7574206f6620626f756044820152626e647360e81b606482015260840161088f565b5090565b6000546001600160a01b03163314610cff5760405162461bcd60e51b815260040161088f90612d90565b6109c76010838361278a565b6000610d1682611ec7565b5192915050565b60006001600160a01b038216610d895760405162461bcd60e51b815260206004820152602b60248201527f455243373231413a2062616c616e636520717565727920666f7220746865207a60448201526a65726f206164647265737360a81b606482015260840161088f565b506001600160a01b03166000908152600560205260409020546001600160801b031690565b6000546001600160a01b03163314610dd85760405162461bcd60e51b815260040161088f90612d90565b610de26000612070565b565b6000546001600160a01b03163314610e0e5760405162461bcd60e51b815260040161088f90612d90565b600e55565b323314610e625760405162461bcd60e51b815260206004820152601e60248201527f5468652063616c6c657220697320616e6f7468657220636f6e74726163740000604482015260640161088f565b6000546001600160a01b03163314610ec157600d54600160a01b900460ff161515600114610ec15760405162461bcd60e51b815260206004820152600c60248201526b14d85b19481cdd1bdc1c195960a21b604482015260640161088f565b600a5464010000000090046001600160401b031680610f3b5760405162461bcd60e51b815260206004820152603060248201527f57484954454c4953545f53414c453a2077686974656c6973742073616c65206860448201526f185cc81b9bdd08189959dd5b881e595d60821b606482015260840161088f565b336000908152600f6020526040902054610faf5760405162461bcd60e51b815260206004820152602f60248201527f57484954454c4953545f53414c453a206e6f7420656c696769626c6520666f7260448201526e081dda1a5d195b1a5cdd081b5a5b9d608a1b606482015260840161088f565b7f0000000000000000000000000000000000000000000000000000000000000000610fd960015490565b610fe4906001612df6565b111561103d5760405162461bcd60e51b815260206004820152602260248201527f57484954454c4953545f53414c453a2072656163686564206d617820737570706044820152616c7960f01b606482015260840161088f565b336000908152600f6020526040812080549161105883612e0e565b91905055506110683360016120c0565b611071816120de565b50565b6000546001600160a01b0316331461109e5760405162461bcd60e51b815260040161088f90612d90565b600260095414156110f15760405162461bcd60e51b815260206004820152601f60248201527f5265656e7472616e637947756172643a207265656e7472616e742063616c6c00604482015260640161088f565b600260095547806111445760405162461bcd60e51b815260206004820181905260248201527f57495448445241573a204e6f2062616c616e636520696e20636f6e7472616374604482015260640161088f565b6000611151600783612e3b565b90506000611160600384612e3b565b905060008161116f8486612e4f565b6111799190612e4f565b600c54909150611192906001600160a01b031684612165565b600d546111a8906001600160a01b031683612165565b600b546111be906001600160a01b031682612165565b505060016009555050565b604080518082019091526000808252602082015261078c82611ec7565b6060600380546107a190612d55565b6001600160a01b03821633141561124e5760405162461bcd60e51b815260206004820152601a60248201527f455243373231413a20617070726f766520746f2063616c6c6572000000000000604482015260640161088f565b3360008181526007602090815260408083206001600160a01b03871680855290835292819020805460ff191686151590811790915590519081529192917f17307eab39ab6107e8899845ad3d59bd9653f200f220920489ca2b5937696c31910160405180910390a35050565b6112c584848461195c565b6112d184848484612208565b6112ed5760405162461bcd60e51b815260040161088f90612e66565b50505050565b6060611300826001541190565b6113645760405162461bcd60e51b815260206004820152602f60248201527f4552433732314d657461646174613a2055524920717565727920666f72206e6f60448201526e3732bc34b9ba32b73a103a37b5b2b760891b606482015260840161088f565b600061136e612306565b9050600081511161138e57604051806020016040528060008152506113b9565b8061139884612315565b6040516020016113a9929190612eb9565b6040516020818303038152906040525b9392505050565b32331461140f5760405162461bcd60e51b815260206004820152601e60248201527f5468652063616c6c657220697320616e6f7468657220636f6e74726163740000604482015260640161088f565b6000546001600160a01b0316331461146e57600d54600160a01b900460ff16151560011461146e5760405162461bcd60e51b815260206004820152600c60248201526b14d85b19481cdd1bdc1c195960a21b604482015260640161088f565b60408051606081018252600a5463ffffffff81168083526001600160401b03640100000000830481166020850152600160601b909204909116928201839052600e5491929084831461151d5760405162461bcd60e51b815260206004820152603260248201527f5055424c49435f53414c453a2063616c6c6564207769746820696e636f7272656044820152716374207075626c69632073616c65206b657960701b606482015260840161088f565b611528828483610c2d565b6115875760405162461bcd60e51b815260206004820152602a60248201527f5055424c49435f53414c453a207075626c69632073616c6520686173206e6f7460448201526908189959dd5b881e595d60b21b606482015260840161088f565b7f0000000000000000000000000000000000000000000000000000000000000000866115b260015490565b6115bc9190612df6565b111561160a5760405162461bcd60e51b815260206004820152601f60248201527f5055424c49435f53414c453a2072656163686564206d617820737570706c7900604482015260640161088f565b7f000000000000000000000000000000000000000000000000000000000000000086611635336116bd565b61163f9190612df6565b11156116995760405162461bcd60e51b815260206004820152602360248201527f5055424c49435f53414c453a2063616e206e6f74206d696e742074686973206d604482015262616e7960e81b606482015260840161088f565b6116a333876120c0565b6116b56116b08784612ee8565b6120de565b505050505050565b600061078c82612412565b6000546001600160a01b031633146116f25760405162461bcd60e51b815260040161088f90612d90565b6040805160608101825263ffffffff929092168083526001600160401b0394851660208401819052939094169101819052600a80546bffffffffffffffffffffffff19169093176401000000009092029190911767ffffffffffffffff60601b1916600160601b909102179055565b6000546001600160a01b0316331461178b5760405162461bcd60e51b815260040161088f90612d90565b80518251146117ed5760405162461bcd60e51b815260206004820152602860248201527f61646472657373657320646f6573206e6f74206d61746368206e756d536c6f746044820152670e640d8cadccee8d60c31b606482015260840161088f565b60005b82518110156109c75781818151811061180b5761180b612f07565b6020026020010151600f600085848151811061182957611829612f07565b60200260200101516001600160a01b03166001600160a01b0316815260200190815260200160002081905550808061186090612ddb565b9150506117f0565b6000546001600160a01b031633146118925760405162461bcd60e51b815260040161088f90612d90565b6001600160a01b0381166118f75760405162461bcd60e51b815260206004820152602660248201527f4f776e61626c653a206e6577206f776e657220697320746865207a65726f206160448201526564647265737360d01b606482015260840161088f565b61107181612070565b60008281526006602052604080822080546001600160a01b0319166001600160a01b0387811691821790925591518593918516917f8c5be1e5ebec7d5bd14f71427d1e84f3dd0314c0f7b2291e5b200ac8c7c3b92591a4505050565b600061196782611ec7565b80519091506000906001600160a01b0316336001600160a01b0316148061199e57503361199384610824565b6001600160a01b0316145b806119b0575081516119b09033610697565b905080611a1a5760405162461bcd60e51b815260206004820152603260248201527f455243373231413a207472616e736665722063616c6c6572206973206e6f74206044820152711bdddb995c881b9bdc88185c1c1c9bdd995960721b606482015260840161088f565b846001600160a01b031682600001516001600160a01b031614611a8e5760405162461bcd60e51b815260206004820152602660248201527f455243373231413a207472616e736665722066726f6d20696e636f72726563746044820152651037bbb732b960d11b606482015260840161088f565b6001600160a01b038416611af25760405162461bcd60e51b815260206004820152602560248201527f455243373231413a207472616e7366657220746f20746865207a65726f206164604482015264647265737360d81b606482015260840161088f565b611b026000848460000151611900565b6001600160a01b0385166000908152600560205260408120805460019290611b349084906001600160801b0316612f1d565b82546101009290920a6001600160801b038181021990931691831602179091556001600160a01b03861660009081526005602052604081208054600194509092611b8091859116612f45565b82546001600160801b039182166101009390930a9283029190920219909116179055506040805180820182526001600160a01b0380871682526001600160401b03428116602080850191825260008981526004909152948520935184549151909216600160a01b026001600160e01b03199091169190921617179055611c07846001612df6565b6000818152600460205260409020549091506001600160a01b0316611c9857611c31816001541190565b15611c985760408051808201825284516001600160a01b0390811682526020808701516001600160401b039081168285019081526000878152600490935294909120925183549451909116600160a01b026001600160e01b03199094169116179190911790555b83856001600160a01b0316876001600160a01b03167fddf252ad1be2c89b69c2b068fc378daa952ba7f163c4a11628f55a4df523b3ef60405160405180910390a46116b5565b60085481611d2e5760405162461bcd60e51b815260206004820152601860248201527f7175616e74697479206d757374206265206e6f6e7a65726f0000000000000000604482015260640161088f565b60006001611d3c8484612df6565b611d469190612e4f565b9050611d7360017f0000000000000000000000000000000000000000000000000000000000000000612e4f565b811115611da857611da560017f0000000000000000000000000000000000000000000000000000000000000000612e4f565b90505b611db3816001541190565b611e0e5760405162461bcd60e51b815260206004820152602660248201527f6e6f7420656e6f756768206d696e7465642079657420666f722074686973206360448201526506c65616e75760d41b606482015260840161088f565b815b818111611eb3576000818152600460205260409020546001600160a01b0316611ea1576000611e3e82611ec7565b60408051808201825282516001600160a01b0390811682526020938401516001600160401b039081168584019081526000888152600490965293909420915182549351909416600160a01b026001600160e01b0319909316931692909217179055505b80611eab81612ddb565b915050611e10565b50611ebf816001612df6565b600855505050565b6040805180820190915260008082526020820152611ee6826001541190565b611f455760405162461bcd60e51b815260206004820152602a60248201527f455243373231413a206f776e657220717565727920666f72206e6f6e657869736044820152693a32b73a103a37b5b2b760b11b606482015260840161088f565b60007f00000000000000000000000000000000000000000000000000000000000000008310611fa657611f987f000000000000000000000000000000000000000000000000000000000000000084612e4f565b611fa3906001612df6565b90505b825b81811061200f576000818152600460209081526040918290208251808401909352546001600160a01b038116808452600160a01b9091046001600160401b03169183019190915215611ffc57949350505050565b508061200781612e0e565b915050611fa8565b5060405162461bcd60e51b815260206004820152602f60248201527f455243373231413a20756e61626c6520746f2064657465726d696e652074686560448201526e1037bbb732b91037b3103a37b5b2b760891b606482015260840161088f565b600080546001600160a01b038381166001600160a01b0319831681178455604051919092169283917f8be0079c531659141344cd1fd0a4f28419497f9722a3daafe3b4186f6b6457e09190a35050565b6120da8282604051806020016040528060008152506124b0565b5050565b803410156121275760405162461bcd60e51b81526020600482015260166024820152752732b2b2103a379039b2b7321036b7b9329022aa241760511b604482015260640161088f565b8034111561107157336108fc61213d8334612e4f565b6040518115909202916000818181858888f193505050501580156120da573d6000803e3d6000fd5b6000826001600160a01b03168260405160006040518083038185875af1925050503d80600081146121b2576040519150601f19603f3d011682016040523d82523d6000602084013e6121b7565b606091505b50509050806109c75760405162461bcd60e51b815260206004820152601a60248201527f57495448445241573a205472616e73666572206661696c65642e000000000000604482015260640161088f565b60006001600160a01b0384163b156122fb57604051630a85bd0160e11b81526001600160a01b0385169063150b7a029061224c903390899088908890600401612f67565b6020604051808303816000875af1925050508015612287575060408051601f3d908101601f1916820190925261228491810190612fa4565b60015b6122e1573d8080156122b5576040519150601f19603f3d011682016040523d82523d6000602084013e6122ba565b606091505b5080516122d95760405162461bcd60e51b815260040161088f90612e66565b805181602001fd5b6001600160e01b031916630a85bd0160e11b149050610c49565b506001949350505050565b6060601080546107a190612d55565b6060816123395750506040805180820190915260018152600360fc1b602082015290565b8160005b8115612363578061234d81612ddb565b915061235c9050600a83612e3b565b915061233d565b6000816001600160401b0381111561237d5761237d612a47565b6040519080825280601f01601f1916602001820160405280156123a7576020820181803683370190505b5090505b8415610c49576123bc600183612e4f565b91506123c9600a86612fc1565b6123d4906030612df6565b60f81b8183815181106123e9576123e9612f07565b60200101906001600160f81b031916908160001a90535061240b600a86612e3b565b94506123ab565b60006001600160a01b0382166124845760405162461bcd60e51b815260206004820152603160248201527f455243373231413a206e756d626572206d696e74656420717565727920666f7260448201527020746865207a65726f206164647265737360781b606482015260840161088f565b506001600160a01b0316600090815260056020526040902054600160801b90046001600160801b031690565b6001546001600160a01b0384166125135760405162461bcd60e51b815260206004820152602160248201527f455243373231413a206d696e7420746f20746865207a65726f206164647265736044820152607360f81b606482015260840161088f565b61251e816001541190565b1561256b5760405162461bcd60e51b815260206004820152601d60248201527f455243373231413a20746f6b656e20616c7265616479206d696e746564000000604482015260640161088f565b7f00000000000000000000000000000000000000000000000000000000000000008311156125e65760405162461bcd60e51b815260206004820152602260248201527f455243373231413a207175616e7469747920746f206d696e7420746f6f2068696044820152610ced60f31b606482015260840161088f565b6001600160a01b0384166000908152600560209081526040918290208251808401845290546001600160801b038082168352600160801b9091041691810191909152815180830190925280519091908190612642908790612f45565b6001600160801b031681526020018583602001516126609190612f45565b6001600160801b039081169091526001600160a01b0380881660008181526005602090815260408083208751978301518716600160801b029790961696909617909455845180860186529182526001600160401b034281168386019081528883526004909552948120915182549451909516600160a01b026001600160e01b031990941694909216939093179190911790915582905b8581101561277f5760405182906001600160a01b038916906000907fddf252ad1be2c89b69c2b068fc378daa952ba7f163c4a11628f55a4df523b3ef908290a46127436000888488612208565b61275f5760405162461bcd60e51b815260040161088f90612e66565b8161276981612ddb565b925050808061277790612ddb565b9150506126f6565b5060018190556116b5565b82805461279690612d55565b90600052602060002090601f0160209004810192826127b857600085556127fe565b82601f106127d15782800160ff198235161785556127fe565b828001600101855582156127fe579182015b828111156127fe5782358255916020019190600101906127e3565b50610cd19291505b80821115610cd15760008155600101612806565b6001600160e01b03198116811461107157600080fd5b60006020828403121561284257600080fd5b81356113b98161281a565b60005b83811015612868578181015183820152602001612850565b838111156112ed5750506000910152565b6000815180845261289181602086016020860161284d565b601f01601f19169290920160200192915050565b6020815260006113b96020830184612879565b6000602082840312156128ca57600080fd5b5035919050565b80356001600160a01b03811681146128e857600080fd5b919050565b6000806040838503121561290057600080fd5b612909836128d1565b946020939093013593505050565b60008060006060848603121561292c57600080fd5b612935846128d1565b9250612943602085016128d1565b9150604084013590509250925092565b60008060006060848603121561296857600080fd5b505081359360208301359350604090920135919050565b6000806020838503121561299257600080fd5b82356001600160401b03808211156129a957600080fd5b818501915085601f8301126129bd57600080fd5b8135818111156129cc57600080fd5b8660208285010111156129de57600080fd5b60209290920196919550909350505050565b600060208284031215612a0257600080fd5b6113b9826128d1565b60008060408385031215612a1e57600080fd5b612a27836128d1565b915060208301358015158114612a3c57600080fd5b809150509250929050565b634e487b7160e01b600052604160045260246000fd5b604051601f8201601f191681016001600160401b0381118282101715612a8557612a85612a47565b604052919050565b60008060008060808587031215612aa357600080fd5b612aac856128d1565b93506020612abb8187016128d1565b93506040860135925060608601356001600160401b0380821115612ade57600080fd5b818801915088601f830112612af257600080fd5b813581811115612b0457612b04612a47565b612b16601f8201601f19168501612a5d565b91508082528984828501011115612b2c57600080fd5b808484018584013760008482840101525080935050505092959194509250565b60008060408385031215612b5f57600080fd5b50508035926020909101359150565b60008060408385031215612b8157600080fd5b612b8a836128d1565b9150612b98602084016128d1565b90509250929050565b80356001600160401b03811681146128e857600080fd5b600080600060608486031215612bcd57600080fd5b612bd684612ba1565b9250612be460208501612ba1565b9150604084013563ffffffff81168114612bfd57600080fd5b809150509250925092565b60006001600160401b03821115612c2157612c21612a47565b5060051b60200190565b600082601f830112612c3c57600080fd5b81356020612c51612c4c83612c08565b612a5d565b82815260059290921b84018101918181019086841115612c7057600080fd5b8286015b84811015612c8b5780358352918301918301612c74565b509695505050505050565b60008060408385031215612ca957600080fd5b82356001600160401b0380821115612cc057600080fd5b818501915085601f830112612cd457600080fd5b81356020612ce4612c4c83612c08565b82815260059290921b84018101918181019089841115612d0357600080fd5b948201945b83861015612d2857612d19866128d1565b82529482019490820190612d08565b96505086013592505080821115612d3e57600080fd5b50612d4b85828601612c2b565b9150509250929050565b600181811c90821680612d6957607f821691505b60208210811415612d8a57634e487b7160e01b600052602260045260246000fd5b50919050565b6020808252818101527f4f776e61626c653a2063616c6c6572206973206e6f7420746865206f776e6572604082015260600190565b634e487b7160e01b600052601160045260246000fd5b6000600019821415612def57612def612dc5565b5060010190565b60008219821115612e0957612e09612dc5565b500190565b600081612e1d57612e1d612dc5565b506000190190565b634e487b7160e01b600052601260045260246000fd5b600082612e4a57612e4a612e25565b500490565b600082821015612e6157612e61612dc5565b500390565b60208082526033908201527f455243373231413a207472616e7366657220746f206e6f6e204552433732315260408201527232b1b2b4bb32b91034b6b83632b6b2b73a32b960691b606082015260800190565b60008351612ecb81846020880161284d565b835190830190612edf81836020880161284d565b01949350505050565b6000816000190483118215151615612f0257612f02612dc5565b500290565b634e487b7160e01b600052603260045260246000fd5b60006001600160801b0383811690831681811015612f3d57612f3d612dc5565b039392505050565b60006001600160801b03808316818516808303821115612edf57612edf612dc5565b6001600160a01b0385811682528416602082015260408101839052608060608201819052600090612f9a90830184612879565b9695505050505050565b600060208284031215612fb657600080fd5b81516113b98161281a565b600082612fd057612fd0612e25565b50069056fea2646970667358221220814c722a8ff699cd686502cca26639b503e1164b2d29957da45ee8e8608652d764736f6c634300080b0033",
  "immutableReferences": {
    "4959": [
      {
        "length": 32,
        "start": 4017
      },
      {
        "length": 32,
        "start": 5513
      },
      {
        "length": 32,
        "start": 7503
      },
      {
        "length": 32,
        "start": 7553
      }
    ],
    "4961": [
      {
        "length": 32,
        "start": 8009
      },
      {
        "length": 32,
        "start": 8051
      },
      {
        "length": 32,
        "start": 9581
      }
    ],
    "6173": [
      {
        "length": 32,
        "start": 790
      },
      {
        "length": 32,
        "start": 5644
      }
    ]
  },
  "source": "// SPDX-License-Identifier: MIT\r\n\r\npragma solidity ^0.8.11;\r\n\r\nimport \"@openzeppelin/contracts/access/Ownable.sol\";\r\nimport \"@openzeppelin/contracts/security/ReentrancyGuard.sol\";\r\nimport \"@openzeppelin/contracts/utils/Strings.sol\";\r\nimport \"./ERC721A.sol\";\r\n\r\ncontract CustomNFT is Ownable, ERC721A, ReentrancyGuard {\r\n  uint256 public immutable maxPublicBatchSize;\r\n\r\n  struct SaleConfig {\r\n    uint32 publicSaleStartTime;\r\n    uint64 whitelistPrice;\r\n    uint64 publicPrice;\r\n  }\r\n  SaleConfig public saleConfig;\r\n\r\n  address private fundWallet = payable(0x269D13DaF86aec35e9bD12684B027CbA597360f1); // Owner Fund Wallet Address\r\n  address private devOneWallet = payable(0x75d08D5B49B53B6A8f964851E00707C3259Da330); // Developer One Wallet Address\r\n  address private devTwoWallet = payable(0x18236675fE58640dc2e9dDFfC478eC2EEea6Ca52); // Developer Two Wallet Address\r\n\r\n  bool public SALE_OPEN = false;\r\n\r\n  uint256 private _mintPasskey = 0;\r\n\r\n  mapping(address => uint256) public whitelist;\r\n\r\n  constructor(uint256 maxBatchSize_, uint256 collectionSize_) ERC721A(\"Custom NFT\", \"CNFT\", maxBatchSize_, collectionSize_) {\r\n    maxPublicBatchSize = maxBatchSize_;\r\n  }\r\n\r\n  modifier callerIsUser() {\r\n    require(tx.origin == msg.sender, \"The caller is another contract\");\r\n    _;\r\n  }\r\n\r\n  modifier saleIsOpen {\r\n    if (_msgSender() != owner()) {\r\n      require(SALE_OPEN == true, \"Sale stopped\");\r\n    }\r\n    _;\r\n  }\r\n\r\n  function whitelistMint() external payable callerIsUser saleIsOpen {\r\n    uint256 price = uint256(saleConfig.whitelistPrice);\r\n    require(price != 0, \"WHITELIST_SALE: whitelist sale has not begun yet\");\r\n    require(whitelist[msg.sender] > 0, \"WHITELIST_SALE: not eligible for whitelist mint\");\r\n    require(totalSupply() + 1 <= collectionSize, \"WHITELIST_SALE: reached max supply\");\r\n\r\n    whitelist[msg.sender]--;\r\n    _safeMint(msg.sender, 1);\r\n\r\n    refundIfOver(price);\r\n  }\r\n\r\n  function publicSaleMint(uint256 quantity, uint256 callerMintKey) external payable callerIsUser saleIsOpen {\r\n    SaleConfig memory config = saleConfig;\r\n    uint256 mintKey = _mintPasskey;\r\n    uint256 publicPrice = uint256(config.publicPrice);\r\n    uint256 publicSaleStartTime = uint256(config.publicSaleStartTime);\r\n\r\n    require(mintKey == callerMintKey, \"PUBLIC_SALE: called with incorrect public sale key\");\r\n\r\n    require(isPublicSaleOn(publicPrice, mintKey, publicSaleStartTime), \"PUBLIC_SALE: public sale has not begun yet\");\r\n    require(totalSupply() + quantity <= collectionSize, \"PUBLIC_SALE: reached max supply\");\r\n    require(numberMinted(msg.sender) + quantity <= maxPublicBatchSize, \"PUBLIC_SALE: can not mint this many\");\r\n\r\n    _safeMint(msg.sender, quantity);\r\n    refundIfOver(publicPrice * quantity);\r\n  }\r\n\r\n  function refundIfOver(uint256 price) private {\r\n    require(msg.value >= price, \"Need to send more ETH.\");\r\n\r\n    if (msg.value > price) {\r\n      payable(msg.sender).transfer(msg.value - price);\r\n    }\r\n  }\r\n\r\n  function isPublicSaleOn(uint256 publicPriceWei, uint256 mintKey, uint256 publicSaleStartTime) public view returns (bool) {\r\n    return publicPriceWei != 0 && mintKey != 0 && block.timestamp >= publicSaleStartTime;\r\n  }\r\n\r\n  function setupSaleInfo(uint64 whitelistPriceWei, uint64 publicPriceWei, uint32 publicSaleStartTime) external onlyOwner {\r\n    saleConfig = SaleConfig(publicSaleStartTime, whitelistPriceWei, publicPriceWei);\r\n  }\r\n\r\n  function setWhitelist(address[] memory addresses, uint256[] memory numSlots) external onlyOwner {\r\n    require(addresses.length == numSlots.length, \"addresses does not match numSlots length\");\r\n\r\n    for (uint256 i = 0; i < addresses.length; i++) {\r\n      whitelist[addresses[i]] = numSlots[i];\r\n    }\r\n  }\r\n\r\n  function flipSaleState() public onlyOwner {\r\n    SALE_OPEN = !SALE_OPEN;\r\n  }\r\n\r\n  // metadata URI\r\n  string private _baseTokenURI;\r\n\r\n  function _baseURI() internal view virtual override returns (string memory) {\r\n    return _baseTokenURI;\r\n  }\r\n\r\n  function setBaseURI(string calldata baseURI) external onlyOwner {\r\n    _baseTokenURI = baseURI;\r\n  }\r\n\r\n  function withdrawAll() external onlyOwner nonReentrant {\r\n    uint256 totalBalance = address(this).balance;\r\n    require(totalBalance > 0, \"WITHDRAW: No balance in contract\");\r\n\r\n    uint256 devOneBalance = totalBalance / 7; // 7% of total sale\r\n    uint256 devTwoBalance = totalBalance / 3; // 3% of total sale\r\n    uint256 ownerBalance = totalBalance - devOneBalance - devTwoBalance; // 90% of total sale\r\n\r\n    _withdraw(devOneWallet, devOneBalance);\r\n    _withdraw(devTwoWallet, devTwoBalance);\r\n    _withdraw(fundWallet, ownerBalance);\r\n  }\r\n\r\n  function _withdraw(address _address, uint256 _amount) internal {\r\n    (bool success, ) = _address.call{value: _amount}(\"\");\r\n\r\n    require(success, \"WITHDRAW: Transfer failed.\");\r\n  }\r\n\r\n  function setOwnersExplicit(uint256 quantity) external onlyOwner nonReentrant {\r\n    _setOwnersExplicit(quantity);\r\n  }\r\n\r\n  function numberMinted(address owner) public view returns (uint256) {\r\n    return _numberMinted(owner);\r\n  }\r\n\r\n  function getOwnershipData(uint256 tokenId) external view returns (TokenOwnership memory) {\r\n    return ownershipOf(tokenId);\r\n  }\r\n\r\n  function setMintPassKey(uint256 mintPasskey_) external onlyOwner {\r\n    _mintPasskey = mintPasskey_;\r\n  }\r\n}",
  "sourcePath": "F:\\Cory_Career\\The_Legends\\mint-doodle-friends\\new-project\\contracts\\MappyNFToken.sol",
  "compiler": {
    "name": "solc",
    "version": "0.8.11+commit.d7f03943.Emscripten.clang"
  },
  "schemaVersion": "3.4.3",
  "updatedAt": "2022-02-15T18:28:56.782Z",
  "devdoc": {
    "kind": "dev",
    "methods": {
      "approve(address,uint256)": {
        "details": "See {IERC721-approve}."
      },
      "balanceOf(address)": {
        "details": "See {IERC721-balanceOf}."
      },
      "getApproved(uint256)": {
        "details": "See {IERC721-getApproved}."
      },
      "isApprovedForAll(address,address)": {
        "details": "See {IERC721-isApprovedForAll}."
      },
      "name()": {
        "details": "See {IERC721Metadata-name}."
      },
      "owner()": {
        "details": "Returns the address of the current owner."
      },
      "ownerOf(uint256)": {
        "details": "See {IERC721-ownerOf}."
      },
      "renounceOwnership()": {
        "details": "Leaves the contract without owner. It will not be possible to call `onlyOwner` functions anymore. Can only be called by the current owner. NOTE: Renouncing ownership will leave the contract without an owner, thereby removing any functionality that is only available to the owner."
      },
      "safeTransferFrom(address,address,uint256)": {
        "details": "See {IERC721-safeTransferFrom}."
      },
      "safeTransferFrom(address,address,uint256,bytes)": {
        "details": "See {IERC721-safeTransferFrom}."
      },
      "setApprovalForAll(address,bool)": {
        "details": "See {IERC721-setApprovalForAll}."
      },
      "supportsInterface(bytes4)": {
        "details": "See {IERC165-supportsInterface}."
      },
      "symbol()": {
        "details": "See {IERC721Metadata-symbol}."
      },
      "tokenByIndex(uint256)": {
        "details": "See {IERC721Enumerable-tokenByIndex}."
      },
      "tokenOfOwnerByIndex(address,uint256)": {
        "details": "See {IERC721Enumerable-tokenOfOwnerByIndex}. This read function is O(collectionSize). If calling from a separate contract, be sure to test gas first. It may also degrade with extremely large collection sizes (e.g >> 10000), test for your use case."
      },
      "tokenURI(uint256)": {
        "details": "See {IERC721Metadata-tokenURI}."
      },
      "totalSupply()": {
        "details": "See {IERC721Enumerable-totalSupply}."
      },
      "transferFrom(address,address,uint256)": {
        "details": "See {IERC721-transferFrom}."
      },
      "transferOwnership(address)": {
        "details": "Transfers ownership of the contract to a new account (`newOwner`). Can only be called by the current owner."
      }
    },
    "version": 1
  },
  "userdoc": {
    "kind": "user",
    "methods": {},
    "version": 1
  }
}