{
  "contractName": "Shmurfs",
  "abi": [
    {
      "inputs": [],
      "stateMutability": "nonpayable",
      "type": "constructor"
    },
    {
      "inputs": [],
      "name": "ApprovalCallerNotOwnerNorApproved",
      "type": "error"
    },
    {
      "inputs": [],
      "name": "ApprovalQueryForNonexistentToken",
      "type": "error"
    },
    {
      "inputs": [],
      "name": "ApprovalToCurrentOwner",
      "type": "error"
    },
    {
      "inputs": [],
      "name": "ApproveToCaller",
      "type": "error"
    },
    {
      "inputs": [],
      "name": "BalanceQueryForZeroAddress",
      "type": "error"
    },
    {
      "inputs": [],
      "name": "MintToZeroAddress",
      "type": "error"
    },
    {
      "inputs": [],
      "name": "MintZeroQuantity",
      "type": "error"
    },
    {
      "inputs": [],
      "name": "OwnerQueryForNonexistentToken",
      "type": "error"
    },
    {
      "inputs": [],
      "name": "TransferCallerNotOwnerNorApproved",
      "type": "error"
    },
    {
      "inputs": [],
      "name": "TransferFromIncorrectOwner",
      "type": "error"
    },
    {
      "inputs": [],
      "name": "TransferToNonERC721ReceiverImplementer",
      "type": "error"
    },
    {
      "inputs": [],
      "name": "TransferToZeroAddress",
      "type": "error"
    },
    {
      "inputs": [],
      "name": "URIQueryForNonexistentToken",
      "type": "error"
    },
    {
      "anonymous": false,
      "inputs": [
        {
          "indexed": true,
          "internalType": "address",
          "name": "owner",
          "type": "address"
        },
        {
          "indexed": true,
          "internalType": "address",
          "name": "approved",
          "type": "address"
        },
        {
          "indexed": true,
          "internalType": "uint256",
          "name": "tokenId",
          "type": "uint256"
        }
      ],
      "name": "Approval",
      "type": "event"
    },
    {
      "anonymous": false,
      "inputs": [
        {
          "indexed": true,
          "internalType": "address",
          "name": "owner",
          "type": "address"
        },
        {
          "indexed": true,
          "internalType": "address",
          "name": "operator",
          "type": "address"
        },
        {
          "indexed": false,
          "internalType": "bool",
          "name": "approved",
          "type": "bool"
        }
      ],
      "name": "ApprovalForAll",
      "type": "event"
    },
    {
      "anonymous": false,
      "inputs": [
        {
          "indexed": true,
          "internalType": "address",
          "name": "previousOwner",
          "type": "address"
        },
        {
          "indexed": true,
          "internalType": "address",
          "name": "newOwner",
          "type": "address"
        }
      ],
      "name": "OwnershipTransferred",
      "type": "event"
    },
    {
      "anonymous": false,
      "inputs": [
        {
          "indexed": true,
          "internalType": "address",
          "name": "from",
          "type": "address"
        },
        {
          "indexed": true,
          "internalType": "address",
          "name": "to",
          "type": "address"
        },
        {
          "indexed": true,
          "internalType": "uint256",
          "name": "tokenId",
          "type": "uint256"
        }
      ],
      "name": "Transfer",
      "type": "event"
    },
    {
      "inputs": [
        {
          "internalType": "address",
          "name": "to",
          "type": "address"
        },
        {
          "internalType": "uint256",
          "name": "tokenId",
          "type": "uint256"
        }
      ],
      "name": "approve",
      "outputs": [],
      "stateMutability": "nonpayable",
      "type": "function"
    },
    {
      "inputs": [
        {
          "internalType": "address",
          "name": "owner",
          "type": "address"
        }
      ],
      "name": "balanceOf",
      "outputs": [
        {
          "internalType": "uint256",
          "name": "",
          "type": "uint256"
        }
      ],
      "stateMutability": "view",
      "type": "function"
    },
    {
      "inputs": [
        {
          "internalType": "uint256",
          "name": "tokenId",
          "type": "uint256"
        }
      ],
      "name": "getApproved",
      "outputs": [
        {
          "internalType": "address",
          "name": "",
          "type": "address"
        }
      ],
      "stateMutability": "view",
      "type": "function"
    },
    {
      "inputs": [
        {
          "internalType": "address",
          "name": "owner",
          "type": "address"
        },
        {
          "internalType": "address",
          "name": "operator",
          "type": "address"
        }
      ],
      "name": "isApprovedForAll",
      "outputs": [
        {
          "internalType": "bool",
          "name": "",
          "type": "bool"
        }
      ],
      "stateMutability": "view",
      "type": "function"
    },
    {
      "inputs": [],
      "name": "name",
      "outputs": [
        {
          "internalType": "string",
          "name": "",
          "type": "string"
        }
      ],
      "stateMutability": "view",
      "type": "function"
    },
    {
      "inputs": [],
      "name": "owner",
      "outputs": [
        {
          "internalType": "address",
          "name": "",
          "type": "address"
        }
      ],
      "stateMutability": "view",
      "type": "function"
    },
    {
      "inputs": [
        {
          "internalType": "uint256",
          "name": "tokenId",
          "type": "uint256"
        }
      ],
      "name": "ownerOf",
      "outputs": [
        {
          "internalType": "address",
          "name": "",
          "type": "address"
        }
      ],
      "stateMutability": "view",
      "type": "function"
    },
    {
      "inputs": [],
      "name": "renounceOwnership",
      "outputs": [],
      "stateMutability": "nonpayable",
      "type": "function"
    },
    {
      "inputs": [
        {
          "internalType": "address",
          "name": "from",
          "type": "address"
        },
        {
          "internalType": "address",
          "name": "to",
          "type": "address"
        },
        {
          "internalType": "uint256",
          "name": "tokenId",
          "type": "uint256"
        }
      ],
      "name": "safeTransferFrom",
      "outputs": [],
      "stateMutability": "nonpayable",
      "type": "function"
    },
    {
      "inputs": [
        {
          "internalType": "address",
          "name": "from",
          "type": "address"
        },
        {
          "internalType": "address",
          "name": "to",
          "type": "address"
        },
        {
          "internalType": "uint256",
          "name": "tokenId",
          "type": "uint256"
        },
        {
          "internalType": "bytes",
          "name": "_data",
          "type": "bytes"
        }
      ],
      "name": "safeTransferFrom",
      "outputs": [],
      "stateMutability": "nonpayable",
      "type": "function"
    },
    {
      "inputs": [],
      "name": "sellingStep",
      "outputs": [
        {
          "internalType": "enum Shmurfs.Step",
          "name": "",
          "type": "uint8"
        }
      ],
      "stateMutability": "view",
      "type": "function"
    },
    {
      "inputs": [
        {
          "internalType": "address",
          "name": "operator",
          "type": "address"
        },
        {
          "internalType": "bool",
          "name": "approved",
          "type": "bool"
        }
      ],
      "name": "setApprovalForAll",
      "outputs": [],
      "stateMutability": "nonpayable",
      "type": "function"
    },
    {
      "inputs": [
        {
          "internalType": "bytes4",
          "name": "interfaceId",
          "type": "bytes4"
        }
      ],
      "name": "supportsInterface",
      "outputs": [
        {
          "internalType": "bool",
          "name": "",
          "type": "bool"
        }
      ],
      "stateMutability": "view",
      "type": "function"
    },
    {
      "inputs": [],
      "name": "symbol",
      "outputs": [
        {
          "internalType": "string",
          "name": "",
          "type": "string"
        }
      ],
      "stateMutability": "view",
      "type": "function"
    },
    {
      "inputs": [
        {
          "internalType": "address",
          "name": "from",
          "type": "address"
        },
        {
          "internalType": "address",
          "name": "to",
          "type": "address"
        },
        {
          "internalType": "uint256",
          "name": "tokenId",
          "type": "uint256"
        }
      ],
      "name": "transferFrom",
      "outputs": [],
      "stateMutability": "nonpayable",
      "type": "function"
    },
    {
      "inputs": [
        {
          "internalType": "address",
          "name": "newOwner",
          "type": "address"
        }
      ],
      "name": "transferOwnership",
      "outputs": [],
      "stateMutability": "nonpayable",
      "type": "function"
    },
    {
      "inputs": [
        {
          "internalType": "uint8",
          "name": "quantity",
          "type": "uint8"
        },
        {
          "internalType": "uint256",
          "name": "mintPasskey_",
          "type": "uint256"
        }
      ],
      "name": "whitelistMint",
      "outputs": [],
      "stateMutability": "payable",
      "type": "function"
    },
    {
      "inputs": [
        {
          "internalType": "uint8",
          "name": "quantity",
          "type": "uint8"
        }
      ],
      "name": "publicSaleMint",
      "outputs": [],
      "stateMutability": "payable",
      "type": "function"
    },
    {
      "inputs": [
        {
          "internalType": "uint256",
          "name": "mintPasskey_",
          "type": "uint256"
        }
      ],
      "name": "setWhitelistMintPassKey",
      "outputs": [],
      "stateMutability": "nonpayable",
      "type": "function"
    },
    {
      "inputs": [
        {
          "internalType": "enum Shmurfs.Step",
          "name": "_step",
          "type": "uint8"
        }
      ],
      "name": "setSellingStep",
      "outputs": [],
      "stateMutability": "nonpayable",
      "type": "function"
    },
    {
      "inputs": [
        {
          "internalType": "string",
          "name": "_baseuri",
          "type": "string"
        }
      ],
      "name": "setBaseURI",
      "outputs": [],
      "stateMutability": "nonpayable",
      "type": "function"
    },
    {
      "inputs": [
        {
          "internalType": "string",
          "name": "_imageURL",
          "type": "string"
        }
      ],
      "name": "setUnrevealedImageURL",
      "outputs": [],
      "stateMutability": "nonpayable",
      "type": "function"
    },
    {
      "inputs": [
        {
          "internalType": "bool",
          "name": "_reveal",
          "type": "bool"
        }
      ],
      "name": "setRevealed",
      "outputs": [],
      "stateMutability": "nonpayable",
      "type": "function"
    },
    {
      "inputs": [
        {
          "internalType": "uint256",
          "name": "_tokenId",
          "type": "uint256"
        }
      ],
      "name": "tokenURI",
      "outputs": [
        {
          "internalType": "string",
          "name": "",
          "type": "string"
        }
      ],
      "stateMutability": "view",
      "type": "function"
    },
    {
      "inputs": [],
      "name": "withdrawAll",
      "outputs": [],
      "stateMutability": "nonpayable",
      "type": "function"
    },
    {
      "inputs": [],
      "name": "getPrice",
      "outputs": [
        {
          "internalType": "uint256",
          "name": "",
          "type": "uint256"
        }
      ],
      "stateMutability": "view",
      "type": "function"
    }
  ],
  "bytecode": "0x6080604052600c805474c7f9adaec08abb1ac05d8f8fd6015a0912b4339200610100600160a81b0319909116179055600d80546001600160a01b03191673bc937543371f759867acf29a3391deecf12f3d761790556000600e553480156200006657600080fd5b506040518060400160405280600b81526020016a5468652053686d7572667360a81b8152506040518060400160405280600781526020016653484d5552465360c81b815250620000c5620000bf6200011460201b60201c565b62000118565b8151620000da90600390602085019062000168565b508051620000f090600490602084019062000168565b50600060015550506009805460ff19908116909155600c805490911690556200024b565b3390565b600080546001600160a01b038381166001600160a01b0319831681178455604051919092169283917f8be0079c531659141344cd1fd0a4f28419497f9722a3daafe3b4186f6b6457e09190a35050565b82805462000176906200020e565b90600052602060002090601f0160209004810192826200019a5760008555620001e5565b82601f10620001b557805160ff1916838001178555620001e5565b82800160010185558215620001e5579182015b82811115620001e5578251825591602001919060010190620001c8565b50620001f3929150620001f7565b5090565b5b80821115620001f35760008155600101620001f8565b600181811c908216806200022357607f821691505b602082108114156200024557634e487b7160e01b600052602260045260246000fd5b50919050565b6122e2806200025b6000396000f3fe6080604052600436106101815760003560e01c80638d9ce5e1116100d1578063b88d4fde1161008a578063cbccefb211610064578063cbccefb21461043d578063e0a8085314610464578063e985e9c514610484578063f2fde38b146104cd57600080fd5b8063b88d4fde146103ea578063c76df80e1461040a578063c87b56dd1461041d57600080fd5b80638d9ce5e1146103425780638da5cb5b1461036257806391313eaf1461038057806395d89b41146103a057806398d5fdca146103b5578063a22cb465146103ca57600080fd5b806355f804b31161013e57806370a082311161011857806370a08231146102ca578063715018a6146102f85780637427c7131461030d578063853828b61461032d57600080fd5b806355f804b31461027757806359256674146102975780636352211e146102aa57600080fd5b806301ffc9a71461018657806306fdde03146101bb578063081812fc146101dd578063095ea7b31461021557806323b872dd1461023757806342842e0e14610257575b600080fd5b34801561019257600080fd5b506101a66101a1366004611f1e565b6104ed565b60405190151581526020015b60405180910390f35b3480156101c757600080fd5b506101d061053f565b6040516101b291906120ef565b3480156101e957600080fd5b506101fd6101f8366004611fe2565b6105d1565b6040516001600160a01b0390911681526020016101b2565b34801561022157600080fd5b50610235610230366004611edb565b610615565b005b34801561024357600080fd5b50610235610252366004611da2565b6106a3565b34801561026357600080fd5b50610235610272366004611da2565b6106ae565b34801561028357600080fd5b50610235610292366004611f75565b6106c9565b6102356102a5366004612014565b610708565b3480156102b657600080fd5b506101fd6102c5366004611fe2565b610a96565b3480156102d657600080fd5b506102ea6102e5366004611d56565b610aa8565b6040519081526020016101b2565b34801561030457600080fd5b50610235610af7565b34801561031957600080fd5b50610235610328366004611fe2565b610b2d565b34801561033957600080fd5b50610235610b5c565b34801561034e57600080fd5b5061023561035d366004611f75565b610c23565b34801561036e57600080fd5b506000546001600160a01b03166101fd565b34801561038c57600080fd5b5061023561039b366004611f56565b610c59565b3480156103ac57600080fd5b506101d0610cb8565b3480156103c157600080fd5b506102ea610cc7565b3480156103d657600080fd5b506102356103e5366004611eb2565b610ddd565b3480156103f657600080fd5b50610235610405366004611ddd565b610e73565b610235610418366004611ffa565b610ec4565b34801561042957600080fd5b506101d0610438366004611fe2565b611102565b34801561044957600080fd5b506009546104579060ff1681565b6040516101b291906120c7565b34801561047057600080fd5b5061023561047f366004611f04565b611204565b34801561049057600080fd5b506101a661049f366004611d70565b6001600160a01b03918216600090815260086020908152604080832093909416825291909152205460ff1690565b3480156104d957600080fd5b506102356104e8366004611d56565b611241565b60006001600160e01b031982166380ac58cd60e01b148061051e57506001600160e01b03198216635b5e139f60e01b145b8061053957506301ffc9a760e01b6001600160e01b03198316145b92915050565b60606003805461054e906121ea565b80601f016020809104026020016040519081016040528092919081815260200182805461057a906121ea565b80156105c75780601f1061059c576101008083540402835291602001916105c7565b820191906000526020600020905b8154815290600101906020018083116105aa57829003601f168201915b5050505050905090565b60006105dc826112d9565b6105f9576040516333d1c03960e21b815260040160405180910390fd5b506000908152600760205260409020546001600160a01b031690565b600061062082610a96565b9050806001600160a01b0316836001600160a01b031614156106555760405163250fdee360e21b815260040160405180910390fd5b336001600160a01b038216148015906106755750610673813361049f565b155b15610693576040516367d9dca160e11b815260040160405180910390fd5b61069e838383611305565b505050565b61069e838383611361565b61069e83838360405180602001604052806000815250610e73565b6000546001600160a01b031633146106fc5760405162461bcd60e51b81526004016106f390612102565b60405180910390fd5b61069e600a8383611c85565b3233146107575760405162461bcd60e51b815260206004820152601e60248201527f5468652063616c6c657220697320616e6f7468657220636f6e7472616374000060448201526064016106f3565b600160095460ff16600381111561077e57634e487b7160e01b600052602160045260246000fd5b146107cb5760405162461bcd60e51b815260206004820152601f60248201527f57686974656c6973742053616c65206973206e6f74206163746976617465640060448201526064016106f3565b80600e54146108285760405162461bcd60e51b815260206004820152602360248201527f57484954454c4953545f53414c453a20506173736b6579206e6f7420636f72726044820152621958dd60ea1b60648201526084016106f3565b6103e86108386002546001540390565b106108ab5760405162461bcd60e51b815260206004820152603c60248201527f57484954454c4953545f53414c453a20506c6561736520676f20746f2074686560448201527f204f70656e73656120746f20627579205468652053686d757266732e0000000060648201526084016106f3565b6103e88260ff166108bf6002546001540390565b6108c99190612137565b11156109235760405162461bcd60e51b815260206004820152602360248201527f57484954454c4953545f53414c453a204d617820737570706c7920657863656560448201526219195960ea1b60648201526084016106f3565b336000908152600f602052604090205460039061094490849060ff1661214f565b60ff1611156109ca5760405162461bcd60e51b815260206004820152604660248201527f57484954454c4953545f53414c453a20596f752063616e206e6f74206765742060448201527f6d6f7265207468616e2033204e465473206f6e207468652057686974656c6973606482015265742053616c6560d01b608482015260a4016106f3565b6109df60ff831667011c37937e080000612188565b341015610a2e5760405162461bcd60e51b815260206004820181905260248201527f57484954454c4953545f53414c453a204e6f7420656e6f7567682066756e647360448201526064016106f3565b336000908152600f602052604081208054849290610a5090849060ff1661214f565b92506101000a81548160ff021916908360ff160217905550610a75338360ff16611551565b610a92610a8d60ff841667011c37937e080000612188565b61156b565b5050565b6000610aa1826115f2565b5192915050565b60006001600160a01b038216610ad1576040516323d3ad8160e21b815260040160405180910390fd5b506001600160a01b031660009081526006602052604090205467ffffffffffffffff1690565b6000546001600160a01b03163314610b215760405162461bcd60e51b81526004016106f390612102565b610b2b600061170e565b565b6000546001600160a01b03163314610b575760405162461bcd60e51b81526004016106f390612102565b600e55565b6000546001600160a01b03163314610b865760405162461bcd60e51b81526004016106f390612102565b4780610bd45760405162461bcd60e51b815260206004820181905260248201527f57495448445241573a204e6f2062616c616e636520696e20636f6e747261637460448201526064016106f3565b6000610be1600a83612174565b90506000610bef82846121a7565b600d54909150610c08906001600160a01b03168361175e565b600c5461069e9061010090046001600160a01b03168261175e565b6000546001600160a01b03163314610c4d5760405162461bcd60e51b81526004016106f390612102565b61069e600b8383611c85565b6000546001600160a01b03163314610c835760405162461bcd60e51b81526004016106f390612102565b6009805482919060ff19166001836003811115610cb057634e487b7160e01b600052602160045260246000fd5b021790555050565b60606004805461054e906121ea565b60008060095460ff166003811115610cef57634e487b7160e01b600052602160045260246000fd5b1415610d345760405162461bcd60e51b815260206004820152601460248201527314d85b19481b9bdd081cdd185c9d1959081e595d60621b60448201526064016106f3565b600360095460ff166003811115610d5b57634e487b7160e01b600052602160045260246000fd5b1415610d965760405162461bcd60e51b815260206004820152600a60248201526914d85b1948195b99195960b21b60448201526064016106f3565b600260095460ff166003811115610dbd57634e487b7160e01b600052602160045260246000fd5b1415610dd0575067013fbe85edc9000090565b5067011c37937e08000090565b6001600160a01b038216331415610e075760405163b06307db60e01b815260040160405180910390fd5b3360008181526008602090815260408083206001600160a01b03871680855290835292819020805460ff191686151590811790915590519081529192917f17307eab39ab6107e8899845ad3d59bd9653f200f220920489ca2b5937696c31910160405180910390a35050565b610e7e848484611361565b6001600160a01b0383163b15158015610ea05750610e9e84848484611801565b155b15610ebe576040516368d2bf6b60e11b815260040160405180910390fd5b50505050565b323314610f135760405162461bcd60e51b815260206004820152601e60248201527f5468652063616c6c657220697320616e6f7468657220636f6e7472616374000060448201526064016106f3565b600260095460ff166003811115610f3a57634e487b7160e01b600052602160045260246000fd5b14610f875760405162461bcd60e51b815260206004820152601c60248201527f5075626c69632053616c65206973206e6f74206163746976617465640000000060448201526064016106f3565b6103e8610f976002546001540390565b1061100a5760405162461bcd60e51b815260206004820152603960248201527f5055424c49435f53414c453a20506c6561736520676f20746f20746865204f7060448201527f656e73656120746f20627579205468652053686d757266732e0000000000000060648201526084016106f3565b6103e88160ff1661101e6002546001540390565b6110289190612137565b11156110765760405162461bcd60e51b815260206004820181905260248201527f5055424c49435f53414c453a204d617820737570706c7920657863656564656460448201526064016106f3565b61108b60ff821667013fbe85edc90000612188565b3410156110da5760405162461bcd60e51b815260206004820181905260248201527f57484954454c4953545f53414c453a204e6f7420656e6f7567682066756e647360448201526064016106f3565b6110e7338260ff16611551565b6110ff610a8d60ff831667013fbe85edc90000612188565b50565b606061110d826112d9565b6111595760405162461bcd60e51b815260206004820152601f60248201527f55524920717565727920666f72206e6f6e6578697374656e7420746f6b656e0060448201526064016106f3565b600c5460ff161561116d57610539826118f9565b600b805461117a906121ea565b80601f01602080910402602001604051908101604052809291908181526020018280546111a6906121ea565b80156111f35780601f106111c8576101008083540402835291602001916111f3565b820191906000526020600020905b8154815290600101906020018083116111d657829003601f168201915b50505050509050919050565b919050565b6000546001600160a01b0316331461122e5760405162461bcd60e51b81526004016106f390612102565b600c805460ff1916911515919091179055565b6000546001600160a01b0316331461126b5760405162461bcd60e51b81526004016106f390612102565b6001600160a01b0381166112d05760405162461bcd60e51b815260206004820152602660248201527f4f776e61626c653a206e6577206f776e657220697320746865207a65726f206160448201526564647265737360d01b60648201526084016106f3565b6110ff8161170e565b600060015482108015610539575050600090815260056020526040902054600160e01b900460ff161590565b60008281526007602052604080822080546001600160a01b0319166001600160a01b0387811691821790925591518593918516917f8c5be1e5ebec7d5bd14f71427d1e84f3dd0314c0f7b2291e5b200ac8c7c3b92591a4505050565b600061136c826115f2565b9050836001600160a01b031681600001516001600160a01b0316146113a35760405162a1148160e81b815260040160405180910390fd5b6000336001600160a01b03861614806113c157506113c1853361049f565b806113dc5750336113d1846105d1565b6001600160a01b0316145b9050806113fc57604051632ce44b5f60e11b815260040160405180910390fd5b6001600160a01b03841661142357604051633a954ecd60e21b815260040160405180910390fd5b61142f60008487611305565b6001600160a01b038581166000908152600660209081526040808320805467ffffffffffffffff1980821667ffffffffffffffff92831660001901831617909255898616808652838620805493841693831660019081018416949094179055898652600590945282852080546001600160e01b031916909417600160a01b42909216919091021783558701808452922080549193909116611505576001548214611505578054602086015167ffffffffffffffff16600160a01b026001600160e01b03199091166001600160a01b038a16171781555b50505082846001600160a01b0316866001600160a01b03167fddf252ad1be2c89b69c2b068fc378daa952ba7f163c4a11628f55a4df523b3ef60405160405180910390a45b5050505050565b610a9282826040518060200160405280600081525061197e565b803410156115b45760405162461bcd60e51b81526020600482015260166024820152752732b2b2103a379039b2b7321036b7b9329022aa241760511b60448201526064016106f3565b803411156110ff57336108fc6115ca83346121a7565b6040518115909202916000818181858888f19350505050158015610a92573d6000803e3d6000fd5b6040805160608101825260008082526020820181905291810191909152816001548110156116f557600081815260056020908152604091829020825160608101845290546001600160a01b0381168252600160a01b810467ffffffffffffffff1692820192909252600160e01b90910460ff161515918101829052906116f35780516001600160a01b031615611689579392505050565b5060001901600081815260056020908152604091829020825160608101845290546001600160a01b038116808352600160a01b820467ffffffffffffffff1693830193909352600160e01b900460ff16151592810192909252156116ee579392505050565b611689565b505b604051636f96cda160e11b815260040160405180910390fd5b600080546001600160a01b038381166001600160a01b0319831681178455604051919092169283917f8be0079c531659141344cd1fd0a4f28419497f9722a3daafe3b4186f6b6457e09190a35050565b6000826001600160a01b03168260405160006040518083038185875af1925050503d80600081146117ab576040519150601f19603f3d011682016040523d82523d6000602084013e6117b0565b606091505b505090508061069e5760405162461bcd60e51b815260206004820152601a60248201527f57495448445241573a205472616e73666572206661696c65642e00000000000060448201526064016106f3565b604051630a85bd0160e11b81526000906001600160a01b0385169063150b7a029061183690339089908890889060040161208a565b602060405180830381600087803b15801561185057600080fd5b505af1925050508015611880575060408051601f3d908101601f1916820190925261187d91810190611f3a565b60015b6118db573d8080156118ae576040519150601f19603f3d011682016040523d82523d6000602084013e6118b3565b606091505b5080516118d3576040516368d2bf6b60e11b815260040160405180910390fd5b805181602001fd5b6001600160e01b031916630a85bd0160e11b1490505b949350505050565b6060611904826112d9565b61192157604051630a14c4b560e41b815260040160405180910390fd5b600061192b61198b565b905080516000141561194c5760405180602001604052806000815250611977565b806119568461199a565b60405160200161196792919061205b565b6040516020818303038152906040525b9392505050565b61069e8383836001611ab4565b6060600a805461054e906121ea565b6060816119be5750506040805180820190915260018152600360fc1b602082015290565b8160005b81156119e857806119d281612225565b91506119e19050600a83612174565b91506119c2565b60008167ffffffffffffffff811115611a1157634e487b7160e01b600052604160045260246000fd5b6040519080825280601f01601f191660200182016040528015611a3b576020820181803683370190505b5090505b84156118f157611a506001836121a7565b9150611a5d600a86612240565b611a68906030612137565b60f81b818381518110611a8b57634e487b7160e01b600052603260045260246000fd5b60200101906001600160f81b031916908160001a905350611aad600a86612174565b9450611a3f565b6001546001600160a01b038516611add57604051622e076360e81b815260040160405180910390fd5b83611afb5760405163b562e8dd60e01b815260040160405180910390fd5b6001600160a01b038516600081815260066020908152604080832080546fffffffffffffffffffffffffffffffff19811667ffffffffffffffff8083168c0181169182176801000000000000000067ffffffffffffffff1990941690921783900481168c01811690920217909155858452600590925290912080546001600160e01b031916909217600160a01b429092169190910217905580808501838015611bad57506001600160a01b0387163b15155b15611c36575b60405182906001600160a01b038916906000907fddf252ad1be2c89b69c2b068fc378daa952ba7f163c4a11628f55a4df523b3ef908290a4611bfe6000888480600101955088611801565b611c1b576040516368d2bf6b60e11b815260040160405180910390fd5b80821415611bb3578260015414611c3157600080fd5b611c7c565b5b6040516001830192906001600160a01b038916906000907fddf252ad1be2c89b69c2b068fc378daa952ba7f163c4a11628f55a4df523b3ef908290a480821415611c37575b5060015561154a565b828054611c91906121ea565b90600052602060002090601f016020900481019282611cb35760008555611cf9565b82601f10611ccc5782800160ff19823516178555611cf9565b82800160010185558215611cf9579182015b82811115611cf9578235825591602001919060010190611cde565b50611d05929150611d09565b5090565b5b80821115611d055760008155600101611d0a565b80356001600160a01b03811681146111ff57600080fd5b803580151581146111ff57600080fd5b803560ff811681146111ff57600080fd5b600060208284031215611d67578081fd5b61197782611d1e565b60008060408385031215611d82578081fd5b611d8b83611d1e565b9150611d9960208401611d1e565b90509250929050565b600080600060608486031215611db6578081fd5b611dbf84611d1e565b9250611dcd60208501611d1e565b9150604084013590509250925092565b60008060008060808587031215611df2578081fd5b611dfb85611d1e565b9350611e0960208601611d1e565b925060408501359150606085013567ffffffffffffffff80821115611e2c578283fd5b818701915087601f830112611e3f578283fd5b813581811115611e5157611e51612280565b604051601f8201601f19908116603f01168101908382118183101715611e7957611e79612280565b816040528281528a6020848701011115611e91578586fd5b82602086016020830137918201602001949094529598949750929550505050565b60008060408385031215611ec4578182fd5b611ecd83611d1e565b9150611d9960208401611d35565b60008060408385031215611eed578182fd5b611ef683611d1e565b946020939093013593505050565b600060208284031215611f15578081fd5b61197782611d35565b600060208284031215611f2f578081fd5b813561197781612296565b600060208284031215611f4b578081fd5b815161197781612296565b600060208284031215611f67578081fd5b813560048110611977578182fd5b60008060208385031215611f87578182fd5b823567ffffffffffffffff80821115611f9e578384fd5b818501915085601f830112611fb1578384fd5b813581811115611fbf578485fd5b866020828501011115611fd0578485fd5b60209290920196919550909350505050565b600060208284031215611ff3578081fd5b5035919050565b60006020828403121561200b578081fd5b61197782611d45565b60008060408385031215612026578182fd5b611ef683611d45565b600081518084526120478160208601602086016121be565b601f01601f19169290920160200192915050565b6000835161206d8184602088016121be565b8351908301906120818183602088016121be565b01949350505050565b6001600160a01b03858116825284166020820152604081018390526080606082018190526000906120bd9083018461202f565b9695505050505050565b60208101600483106120e957634e487b7160e01b600052602160045260246000fd5b91905290565b602081526000611977602083018461202f565b6020808252818101527f4f776e61626c653a2063616c6c6572206973206e6f7420746865206f776e6572604082015260600190565b6000821982111561214a5761214a612254565b500190565b600060ff821660ff84168060ff0382111561216c5761216c612254565b019392505050565b6000826121835761218361226a565b500490565b60008160001904831182151516156121a2576121a2612254565b500290565b6000828210156121b9576121b9612254565b500390565b60005b838110156121d95781810151838201526020016121c1565b83811115610ebe5750506000910152565b600181811c908216806121fe57607f821691505b6020821081141561221f57634e487b7160e01b600052602260045260246000fd5b50919050565b600060001982141561223957612239612254565b5060010190565b60008261224f5761224f61226a565b500690565b634e487b7160e01b600052601160045260246000fd5b634e487b7160e01b600052601260045260246000fd5b634e487b7160e01b600052604160045260246000fd5b6001600160e01b0319811681146110ff57600080fdfea264697066735822122026ce8b84bbbb4be64a710ff8ec5835e6c59e8e7bffce48b26dc64474971ad5de64736f6c63430008040033",
  "immutableReferences": {},
  "source": "// SPDX-License-Identifier: MIT\n\n\n//                 \n//              \n//                   \n//                   \n//                         \n//                                                                                                                        \n                                                                             \npragma solidity ^0.8.4;\n\nimport \"@openzeppelin/contracts/access/Ownable.sol\";\nimport \"./ERC721A.sol\";\n\ncontract Shmurfs is Ownable, ERC721A {\n\n  enum Step {\n    Before,\n    WhitelistSale,\n    PublicSale,\n    After\n  }\n\n  Step public sellingStep;\n\n  string private baseURI;\n  string private unrevealedImageURL;\n  bool private revealed;\n\n  uint private constant MAX_SUPPLY          = 1000;\n  uint private constant PRICE_WHITELIST     = 0.08 ether;\n  uint private constant PRICE_PUBLIC        = 0.09 ether;\n  uint private constant MAX_WHITELIST_BATCH = 3;\n\n  address private fundWallet    = payable(0xc7f9aDaec08aBB1ac05d8f8Fd6015A0912b43392); // Owner Fund Wallet Address\n  address private devOneWallet  = payable(0xbC937543371F759867acf29A3391dEecF12f3d76); // Developer One Wallet Address\n\n  uint private whitelistMintPassKey = 0;\n\n  mapping(address => uint8) private whitelistBuyList;\n\n  constructor() ERC721A(\"The Shmurfs\", \"SHMURFS\") {\n    sellingStep = Step.Before;\n    revealed = false;\n  }\n\n  modifier callerIsUser() {\n    require(tx.origin == msg.sender, \"The caller is another contract\");\n    _;\n  }\n\n  modifier whitelistSaleIsOpen() {\n    require(sellingStep == Step.WhitelistSale, \"Whitelist Sale is not activated\");\n    _;\n  }\n\n  modifier publicSaleIsOpen() {\n    require(sellingStep == Step.PublicSale, \"Public Sale is not activated\");\n    _;\n  }\n\n  function whitelistMint(uint8 quantity, uint mintPasskey_) external payable callerIsUser whitelistSaleIsOpen {\n    require(whitelistMintPassKey == mintPasskey_, \"WHITELIST_SALE: Passkey not correct\");\n    require(totalSupply() < MAX_SUPPLY, \"WHITELIST_SALE: Please go to the Opensea to buy The Shmurfs.\");\n    require(totalSupply() + quantity <= MAX_SUPPLY, \"WHITELIST_SALE: Max supply exceeded\");\n    require(whitelistBuyList[msg.sender] + quantity <= MAX_WHITELIST_BATCH, \"WHITELIST_SALE: You can not get more than 3 NFTs on the Whitelist Sale\");\n    require(msg.value >= PRICE_WHITELIST * quantity, \"WHITELIST_SALE: Not enough funds\");\n    \n    whitelistBuyList[msg.sender] += quantity;\n    _safeMint(msg.sender, quantity);\n\n    refundIfOver(PRICE_WHITELIST * quantity);\n  }\n\n  function publicSaleMint(uint8 quantity) external payable callerIsUser publicSaleIsOpen{\n    require(totalSupply() < MAX_SUPPLY, \"PUBLIC_SALE: Please go to the Opensea to buy The Shmurfs.\");\n    require(totalSupply() + quantity <= MAX_SUPPLY, \"PUBLIC_SALE: Max supply exceeded\");\n    require(msg.value >= PRICE_PUBLIC * quantity, \"WHITELIST_SALE: Not enough funds\");\n\n    _safeMint(msg.sender, quantity);\n    refundIfOver(PRICE_PUBLIC * quantity);\n  }\n\n  function setWhitelistMintPassKey(uint mintPasskey_) external onlyOwner {\n    whitelistMintPassKey = mintPasskey_;\n  }\n\n  function setSellingStep(Step _step) external onlyOwner {\n    sellingStep = _step;\n  }\n\n  // metadata URI\n  function setBaseURI(string calldata _baseuri) external onlyOwner {\n    baseURI = _baseuri;\n  }\n\n  function _baseURI() internal view override returns (string memory) {\n    return baseURI;\n  }\n\n  function setUnrevealedImageURL(string calldata _imageURL) external onlyOwner {\n    unrevealedImageURL = _imageURL;\n  }\n\n  function setRevealed(bool _reveal) external onlyOwner {\n    revealed = _reveal;\n  }\n\n  function tokenURI(uint _tokenId) public view override returns (string memory) {\n    require(_exists(_tokenId), \"URI query for nonexistent token\");\n\n    if (revealed)\n      return super.tokenURI(_tokenId);\n    else\n      return unrevealedImageURL;\n  }\n\n  // fund\n  function withdrawAll() external onlyOwner {\n    uint totalBalance = address(this).balance;\n    require(totalBalance > 0, \"WITHDRAW: No balance in contract\");\n\n    uint devOneBalance = totalBalance / 10; // 10% of total sale\n    uint ownerBalance = totalBalance - devOneBalance; // 90% of total sale\n\n    _withdraw(devOneWallet, devOneBalance);\n    _withdraw(fundWallet, ownerBalance);\n  }\n\n  function _withdraw(address _address, uint _amount) private {\n    (bool success, ) = _address.call{value: _amount}(\"\");\n\n    require(success, \"WITHDRAW: Transfer failed.\");\n  }\n\n  function refundIfOver(uint price) private {\n    require(msg.value >= price, \"Need to send more ETH.\");\n\n    if (msg.value > price) {\n      payable(msg.sender).transfer(msg.value - price);\n    }\n  }\n\n  function getPrice() public view returns (uint) {\n    require(sellingStep != Step.Before, \"Sale not started yet\");\n    require(sellingStep != Step.After, \"Sale ended\");\n    if (sellingStep == Step.PublicSale)\n      return PRICE_PUBLIC;\n    else\n      return PRICE_WHITELIST;\n  }\n}",
  "sourcePath": "D:\\Development\\smurfs-minting-website-main\\contracts\\TheShmurfs.sol",
  "compiler": {
    "name": "solc",
    "version": "0.8.4+commit.c7e474f2.Emscripten.clang"
  },
  "schemaVersion": "3.4.4",
  "updatedAt": "2022-04-11T12:05:17.246Z",
  "devdoc": {
    "kind": "dev",
    "methods": {
      "approve(address,uint256)": {
        "details": "See {IERC721-approve}."
      },
      "balanceOf(address)": {
        "details": "See {IERC721-balanceOf}."
      },
      "getApproved(uint256)": {
        "details": "See {IERC721-getApproved}."
      },
      "isApprovedForAll(address,address)": {
        "details": "See {IERC721-isApprovedForAll}."
      },
      "name()": {
        "details": "See {IERC721Metadata-name}."
      },
      "owner()": {
        "details": "Returns the address of the current owner."
      },
      "ownerOf(uint256)": {
        "details": "See {IERC721-ownerOf}."
      },
      "renounceOwnership()": {
        "details": "Leaves the contract without owner. It will not be possible to call `onlyOwner` functions anymore. Can only be called by the current owner. NOTE: Renouncing ownership will leave the contract without an owner, thereby removing any functionality that is only available to the owner."
      },
      "safeTransferFrom(address,address,uint256)": {
        "details": "See {IERC721-safeTransferFrom}."
      },
      "safeTransferFrom(address,address,uint256,bytes)": {
        "details": "See {IERC721-safeTransferFrom}."
      },
      "setApprovalForAll(address,bool)": {
        "details": "See {IERC721-setApprovalForAll}."
      },
      "supportsInterface(bytes4)": {
        "details": "See {IERC165-supportsInterface}."
      },
      "symbol()": {
        "details": "See {IERC721Metadata-symbol}."
      },
      "transferFrom(address,address,uint256)": {
        "details": "See {IERC721-transferFrom}."
      },
      "transferOwnership(address)": {
        "details": "Transfers ownership of the contract to a new account (`newOwner`). Can only be called by the current owner."
      }
    },
    "version": 1
  },
  "userdoc": {
    "kind": "user",
    "methods": {},
    "version": 1
  }
}