{
  "contractName": "ShmurfsTest",
  "abi": [
    {
      "inputs": [],
      "stateMutability": "nonpayable",
      "type": "constructor"
    },
    {
      "inputs": [],
      "name": "ApprovalCallerNotOwnerNorApproved",
      "type": "error"
    },
    {
      "inputs": [],
      "name": "ApprovalQueryForNonexistentToken",
      "type": "error"
    },
    {
      "inputs": [],
      "name": "ApprovalToCurrentOwner",
      "type": "error"
    },
    {
      "inputs": [],
      "name": "ApproveToCaller",
      "type": "error"
    },
    {
      "inputs": [],
      "name": "BalanceQueryForZeroAddress",
      "type": "error"
    },
    {
      "inputs": [],
      "name": "MintToZeroAddress",
      "type": "error"
    },
    {
      "inputs": [],
      "name": "MintZeroQuantity",
      "type": "error"
    },
    {
      "inputs": [],
      "name": "OwnerQueryForNonexistentToken",
      "type": "error"
    },
    {
      "inputs": [],
      "name": "TransferCallerNotOwnerNorApproved",
      "type": "error"
    },
    {
      "inputs": [],
      "name": "TransferFromIncorrectOwner",
      "type": "error"
    },
    {
      "inputs": [],
      "name": "TransferToNonERC721ReceiverImplementer",
      "type": "error"
    },
    {
      "inputs": [],
      "name": "TransferToZeroAddress",
      "type": "error"
    },
    {
      "inputs": [],
      "name": "URIQueryForNonexistentToken",
      "type": "error"
    },
    {
      "anonymous": false,
      "inputs": [
        {
          "indexed": true,
          "internalType": "address",
          "name": "owner",
          "type": "address"
        },
        {
          "indexed": true,
          "internalType": "address",
          "name": "approved",
          "type": "address"
        },
        {
          "indexed": true,
          "internalType": "uint256",
          "name": "tokenId",
          "type": "uint256"
        }
      ],
      "name": "Approval",
      "type": "event"
    },
    {
      "anonymous": false,
      "inputs": [
        {
          "indexed": true,
          "internalType": "address",
          "name": "owner",
          "type": "address"
        },
        {
          "indexed": true,
          "internalType": "address",
          "name": "operator",
          "type": "address"
        },
        {
          "indexed": false,
          "internalType": "bool",
          "name": "approved",
          "type": "bool"
        }
      ],
      "name": "ApprovalForAll",
      "type": "event"
    },
    {
      "anonymous": false,
      "inputs": [
        {
          "indexed": true,
          "internalType": "address",
          "name": "previousOwner",
          "type": "address"
        },
        {
          "indexed": true,
          "internalType": "address",
          "name": "newOwner",
          "type": "address"
        }
      ],
      "name": "OwnershipTransferred",
      "type": "event"
    },
    {
      "anonymous": false,
      "inputs": [
        {
          "indexed": true,
          "internalType": "address",
          "name": "from",
          "type": "address"
        },
        {
          "indexed": true,
          "internalType": "address",
          "name": "to",
          "type": "address"
        },
        {
          "indexed": true,
          "internalType": "uint256",
          "name": "tokenId",
          "type": "uint256"
        }
      ],
      "name": "Transfer",
      "type": "event"
    },
    {
      "inputs": [
        {
          "internalType": "address",
          "name": "to",
          "type": "address"
        },
        {
          "internalType": "uint256",
          "name": "tokenId",
          "type": "uint256"
        }
      ],
      "name": "approve",
      "outputs": [],
      "stateMutability": "nonpayable",
      "type": "function"
    },
    {
      "inputs": [
        {
          "internalType": "address",
          "name": "owner",
          "type": "address"
        }
      ],
      "name": "balanceOf",
      "outputs": [
        {
          "internalType": "uint256",
          "name": "",
          "type": "uint256"
        }
      ],
      "stateMutability": "view",
      "type": "function"
    },
    {
      "inputs": [
        {
          "internalType": "uint256",
          "name": "tokenId",
          "type": "uint256"
        }
      ],
      "name": "getApproved",
      "outputs": [
        {
          "internalType": "address",
          "name": "",
          "type": "address"
        }
      ],
      "stateMutability": "view",
      "type": "function"
    },
    {
      "inputs": [
        {
          "internalType": "address",
          "name": "owner",
          "type": "address"
        },
        {
          "internalType": "address",
          "name": "operator",
          "type": "address"
        }
      ],
      "name": "isApprovedForAll",
      "outputs": [
        {
          "internalType": "bool",
          "name": "",
          "type": "bool"
        }
      ],
      "stateMutability": "view",
      "type": "function"
    },
    {
      "inputs": [],
      "name": "name",
      "outputs": [
        {
          "internalType": "string",
          "name": "",
          "type": "string"
        }
      ],
      "stateMutability": "view",
      "type": "function"
    },
    {
      "inputs": [],
      "name": "owner",
      "outputs": [
        {
          "internalType": "address",
          "name": "",
          "type": "address"
        }
      ],
      "stateMutability": "view",
      "type": "function"
    },
    {
      "inputs": [
        {
          "internalType": "uint256",
          "name": "tokenId",
          "type": "uint256"
        }
      ],
      "name": "ownerOf",
      "outputs": [
        {
          "internalType": "address",
          "name": "",
          "type": "address"
        }
      ],
      "stateMutability": "view",
      "type": "function"
    },
    {
      "inputs": [],
      "name": "renounceOwnership",
      "outputs": [],
      "stateMutability": "nonpayable",
      "type": "function"
    },
    {
      "inputs": [
        {
          "internalType": "address",
          "name": "from",
          "type": "address"
        },
        {
          "internalType": "address",
          "name": "to",
          "type": "address"
        },
        {
          "internalType": "uint256",
          "name": "tokenId",
          "type": "uint256"
        }
      ],
      "name": "safeTransferFrom",
      "outputs": [],
      "stateMutability": "nonpayable",
      "type": "function"
    },
    {
      "inputs": [
        {
          "internalType": "address",
          "name": "from",
          "type": "address"
        },
        {
          "internalType": "address",
          "name": "to",
          "type": "address"
        },
        {
          "internalType": "uint256",
          "name": "tokenId",
          "type": "uint256"
        },
        {
          "internalType": "bytes",
          "name": "_data",
          "type": "bytes"
        }
      ],
      "name": "safeTransferFrom",
      "outputs": [],
      "stateMutability": "nonpayable",
      "type": "function"
    },
    {
      "inputs": [],
      "name": "sellingStep",
      "outputs": [
        {
          "internalType": "enum ShmurfsTest.Step",
          "name": "",
          "type": "uint8"
        }
      ],
      "stateMutability": "view",
      "type": "function"
    },
    {
      "inputs": [
        {
          "internalType": "address",
          "name": "operator",
          "type": "address"
        },
        {
          "internalType": "bool",
          "name": "approved",
          "type": "bool"
        }
      ],
      "name": "setApprovalForAll",
      "outputs": [],
      "stateMutability": "nonpayable",
      "type": "function"
    },
    {
      "inputs": [
        {
          "internalType": "bytes4",
          "name": "interfaceId",
          "type": "bytes4"
        }
      ],
      "name": "supportsInterface",
      "outputs": [
        {
          "internalType": "bool",
          "name": "",
          "type": "bool"
        }
      ],
      "stateMutability": "view",
      "type": "function"
    },
    {
      "inputs": [],
      "name": "symbol",
      "outputs": [
        {
          "internalType": "string",
          "name": "",
          "type": "string"
        }
      ],
      "stateMutability": "view",
      "type": "function"
    },
    {
      "inputs": [
        {
          "internalType": "address",
          "name": "from",
          "type": "address"
        },
        {
          "internalType": "address",
          "name": "to",
          "type": "address"
        },
        {
          "internalType": "uint256",
          "name": "tokenId",
          "type": "uint256"
        }
      ],
      "name": "transferFrom",
      "outputs": [],
      "stateMutability": "nonpayable",
      "type": "function"
    },
    {
      "inputs": [
        {
          "internalType": "address",
          "name": "newOwner",
          "type": "address"
        }
      ],
      "name": "transferOwnership",
      "outputs": [],
      "stateMutability": "nonpayable",
      "type": "function"
    },
    {
      "inputs": [
        {
          "internalType": "uint8",
          "name": "quantity",
          "type": "uint8"
        },
        {
          "internalType": "uint256",
          "name": "mintPasskey_",
          "type": "uint256"
        }
      ],
      "name": "whitelistMint",
      "outputs": [],
      "stateMutability": "payable",
      "type": "function"
    },
    {
      "inputs": [
        {
          "internalType": "uint8",
          "name": "quantity",
          "type": "uint8"
        }
      ],
      "name": "publicSaleMint",
      "outputs": [],
      "stateMutability": "payable",
      "type": "function"
    },
    {
      "inputs": [
        {
          "internalType": "uint256",
          "name": "mintPasskey_",
          "type": "uint256"
        }
      ],
      "name": "setWhitelistMintPassKey",
      "outputs": [],
      "stateMutability": "nonpayable",
      "type": "function"
    },
    {
      "inputs": [
        {
          "internalType": "enum ShmurfsTest.Step",
          "name": "_step",
          "type": "uint8"
        }
      ],
      "name": "setSellingStep",
      "outputs": [],
      "stateMutability": "nonpayable",
      "type": "function"
    },
    {
      "inputs": [
        {
          "internalType": "string",
          "name": "_baseuri",
          "type": "string"
        }
      ],
      "name": "setBaseURI",
      "outputs": [],
      "stateMutability": "nonpayable",
      "type": "function"
    },
    {
      "inputs": [
        {
          "internalType": "string",
          "name": "_imageURL",
          "type": "string"
        }
      ],
      "name": "setUnrevealedImageURL",
      "outputs": [],
      "stateMutability": "nonpayable",
      "type": "function"
    },
    {
      "inputs": [
        {
          "internalType": "bool",
          "name": "_reveal",
          "type": "bool"
        }
      ],
      "name": "setRevealed",
      "outputs": [],
      "stateMutability": "nonpayable",
      "type": "function"
    },
    {
      "inputs": [
        {
          "internalType": "uint256",
          "name": "_tokenId",
          "type": "uint256"
        }
      ],
      "name": "tokenURI",
      "outputs": [
        {
          "internalType": "string",
          "name": "",
          "type": "string"
        }
      ],
      "stateMutability": "view",
      "type": "function"
    },
    {
      "inputs": [],
      "name": "withdrawAll",
      "outputs": [],
      "stateMutability": "nonpayable",
      "type": "function"
    }
  ],
  "bytecode": "0x6080604052600c805474c7f9adaec08abb1ac05d8f8fd6015a0912b4339200610100600160a81b0319909116179055600d80546001600160a01b03191673bc937543371f759867acf29a3391deecf12f3d761790556000600e553480156200006657600080fd5b506040518060400160405280600c81526020016b14da1b5d5c999ccb55195cdd60a21b81525060405180604001604052806004815260200163534d545360e01b815250620000c3620000bd6200011260201b60201c565b62000116565b8151620000d890600390602085019062000166565b508051620000ee90600490602084019062000166565b50600060015550506009805460ff19908116909155600c8054909116905562000249565b3390565b600080546001600160a01b038381166001600160a01b0319831681178455604051919092169283917f8be0079c531659141344cd1fd0a4f28419497f9722a3daafe3b4186f6b6457e09190a35050565b82805462000174906200020c565b90600052602060002090601f016020900481019282620001985760008555620001e3565b82601f10620001b357805160ff1916838001178555620001e3565b82800160010185558215620001e3579182015b82811115620001e3578251825591602001919060010190620001c6565b50620001f1929150620001f5565b5090565b5b80821115620001f15760008155600101620001f6565b600181811c908216806200022157607f821691505b602082108114156200024357634e487b7160e01b600052602260045260246000fd5b50919050565b61219c80620002596000396000f3fe6080604052600436106101665760003560e01c8063853828b6116100d1578063b88d4fde1161008a578063cbccefb211610064578063cbccefb21461040d578063e0a8085314610434578063e985e9c514610454578063f2fde38b1461049d57600080fd5b8063b88d4fde146103ba578063c76df80e146103da578063c87b56dd146103ed57600080fd5b8063853828b6146103125780638d9ce5e1146103275780638da5cb5b1461034757806391313eaf1461036557806395d89b4114610385578063a22cb4651461039a57600080fd5b806355f804b31161012357806355f804b31461025c578063592566741461027c5780636352211e1461028f57806370a08231146102af578063715018a6146102dd5780637427c713146102f257600080fd5b806301ffc9a71461016b57806306fdde03146101a0578063081812fc146101c2578063095ea7b3146101fa57806323b872dd1461021c57806342842e0e1461023c575b600080fd5b34801561017757600080fd5b5061018b610186366004611dd8565b6104bd565b60405190151581526020015b60405180910390f35b3480156101ac57600080fd5b506101b561050f565b6040516101979190611fa9565b3480156101ce57600080fd5b506101e26101dd366004611e9c565b6105a1565b6040516001600160a01b039091168152602001610197565b34801561020657600080fd5b5061021a610215366004611d95565b6105e5565b005b34801561022857600080fd5b5061021a610237366004611c5c565b610673565b34801561024857600080fd5b5061021a610257366004611c5c565b61067e565b34801561026857600080fd5b5061021a610277366004611e2f565b610699565b61021a61028a366004611ece565b6106d8565b34801561029b57600080fd5b506101e26102aa366004611e9c565b610a66565b3480156102bb57600080fd5b506102cf6102ca366004611c10565b610a78565b604051908152602001610197565b3480156102e957600080fd5b5061021a610ac7565b3480156102fe57600080fd5b5061021a61030d366004611e9c565b610afd565b34801561031e57600080fd5b5061021a610b2c565b34801561033357600080fd5b5061021a610342366004611e2f565b610bf3565b34801561035357600080fd5b506000546001600160a01b03166101e2565b34801561037157600080fd5b5061021a610380366004611e10565b610c29565b34801561039157600080fd5b506101b5610c88565b3480156103a657600080fd5b5061021a6103b5366004611d6c565b610c97565b3480156103c657600080fd5b5061021a6103d5366004611c97565b610d2d565b61021a6103e8366004611eb4565b610d7e565b3480156103f957600080fd5b506101b5610408366004611e9c565b610fbc565b34801561041957600080fd5b506009546104279060ff1681565b6040516101979190611f81565b34801561044057600080fd5b5061021a61044f366004611dbe565b6110be565b34801561046057600080fd5b5061018b61046f366004611c2a565b6001600160a01b03918216600090815260086020908152604080832093909416825291909152205460ff1690565b3480156104a957600080fd5b5061021a6104b8366004611c10565b6110fb565b60006001600160e01b031982166380ac58cd60e01b14806104ee57506001600160e01b03198216635b5e139f60e01b145b8061050957506301ffc9a760e01b6001600160e01b03198316145b92915050565b60606003805461051e906120a4565b80601f016020809104026020016040519081016040528092919081815260200182805461054a906120a4565b80156105975780601f1061056c57610100808354040283529160200191610597565b820191906000526020600020905b81548152906001019060200180831161057a57829003601f168201915b5050505050905090565b60006105ac82611193565b6105c9576040516333d1c03960e21b815260040160405180910390fd5b506000908152600760205260409020546001600160a01b031690565b60006105f082610a66565b9050806001600160a01b0316836001600160a01b031614156106255760405163250fdee360e21b815260040160405180910390fd5b336001600160a01b038216148015906106455750610643813361046f565b155b15610663576040516367d9dca160e11b815260040160405180910390fd5b61066e8383836111bf565b505050565b61066e83838361121b565b61066e83838360405180602001604052806000815250610d2d565b6000546001600160a01b031633146106cc5760405162461bcd60e51b81526004016106c390611fbc565b60405180910390fd5b61066e600a8383611b3f565b3233146107275760405162461bcd60e51b815260206004820152601e60248201527f5468652063616c6c657220697320616e6f7468657220636f6e7472616374000060448201526064016106c3565b600160095460ff16600381111561074e57634e487b7160e01b600052602160045260246000fd5b1461079b5760405162461bcd60e51b815260206004820152601f60248201527f57686974656c6973742053616c65206973206e6f74206163746976617465640060448201526064016106c3565b80600e54146107f85760405162461bcd60e51b815260206004820152602360248201527f57484954454c4953545f53414c453a20506173736b6579206e6f7420636f72726044820152621958dd60ea1b60648201526084016106c3565b6103e86108086002546001540390565b1061087b5760405162461bcd60e51b815260206004820152603c60248201527f57484954454c4953545f53414c453a20506c6561736520676f20746f2074686560448201527f204f70656e73656120746f20627579205468652053686d757266732e0000000060648201526084016106c3565b6103e88260ff1661088f6002546001540390565b6108999190611ff1565b11156108f35760405162461bcd60e51b815260206004820152602360248201527f57484954454c4953545f53414c453a204d617820737570706c7920657863656560448201526219195960ea1b60648201526084016106c3565b336000908152600f602052604090205460039061091490849060ff16612009565b60ff16111561099a5760405162461bcd60e51b815260206004820152604660248201527f57484954454c4953545f53414c453a20596f752063616e206e6f74206765742060448201527f6d6f7265207468616e2033204e465473206f6e207468652057686974656c6973606482015265742053616c6560d01b608482015260a4016106c3565b6109af60ff831667011c37937e080000612042565b3410156109fe5760405162461bcd60e51b815260206004820181905260248201527f57484954454c4953545f53414c453a204e6f7420656e6f7567682066756e647360448201526064016106c3565b336000908152600f602052604081208054849290610a2090849060ff16612009565b92506101000a81548160ff021916908360ff160217905550610a45338360ff1661140b565b610a62610a5d60ff841667011c37937e080000612042565b611425565b5050565b6000610a71826114ac565b5192915050565b60006001600160a01b038216610aa1576040516323d3ad8160e21b815260040160405180910390fd5b506001600160a01b031660009081526006602052604090205467ffffffffffffffff1690565b6000546001600160a01b03163314610af15760405162461bcd60e51b81526004016106c390611fbc565b610afb60006115c8565b565b6000546001600160a01b03163314610b275760405162461bcd60e51b81526004016106c390611fbc565b600e55565b6000546001600160a01b03163314610b565760405162461bcd60e51b81526004016106c390611fbc565b4780610ba45760405162461bcd60e51b815260206004820181905260248201527f57495448445241573a204e6f2062616c616e636520696e20636f6e747261637460448201526064016106c3565b6000610bb1600a8361202e565b90506000610bbf8284612061565b600d54909150610bd8906001600160a01b031683611618565b600c5461066e9061010090046001600160a01b031682611618565b6000546001600160a01b03163314610c1d5760405162461bcd60e51b81526004016106c390611fbc565b61066e600b8383611b3f565b6000546001600160a01b03163314610c535760405162461bcd60e51b81526004016106c390611fbc565b6009805482919060ff19166001836003811115610c8057634e487b7160e01b600052602160045260246000fd5b021790555050565b60606004805461051e906120a4565b6001600160a01b038216331415610cc15760405163b06307db60e01b815260040160405180910390fd5b3360008181526008602090815260408083206001600160a01b03871680855290835292819020805460ff191686151590811790915590519081529192917f17307eab39ab6107e8899845ad3d59bd9653f200f220920489ca2b5937696c31910160405180910390a35050565b610d3884848461121b565b6001600160a01b0383163b15158015610d5a5750610d58848484846116bb565b155b15610d78576040516368d2bf6b60e11b815260040160405180910390fd5b50505050565b323314610dcd5760405162461bcd60e51b815260206004820152601e60248201527f5468652063616c6c657220697320616e6f7468657220636f6e7472616374000060448201526064016106c3565b600260095460ff166003811115610df457634e487b7160e01b600052602160045260246000fd5b14610e415760405162461bcd60e51b815260206004820152601c60248201527f5075626c69632053616c65206973206e6f74206163746976617465640000000060448201526064016106c3565b6103e8610e516002546001540390565b10610ec45760405162461bcd60e51b815260206004820152603960248201527f5055424c49435f53414c453a20506c6561736520676f20746f20746865204f7060448201527f656e73656120746f20627579205468652053686d757266732e0000000000000060648201526084016106c3565b6103e88160ff16610ed86002546001540390565b610ee29190611ff1565b1115610f305760405162461bcd60e51b815260206004820181905260248201527f5055424c49435f53414c453a204d617820737570706c7920657863656564656460448201526064016106c3565b610f4560ff821667013fbe85edc90000612042565b341015610f945760405162461bcd60e51b815260206004820181905260248201527f57484954454c4953545f53414c453a204e6f7420656e6f7567682066756e647360448201526064016106c3565b610fa1338260ff1661140b565b610fb9610a5d60ff831667013fbe85edc90000612042565b50565b6060610fc782611193565b6110135760405162461bcd60e51b815260206004820152601f60248201527f55524920717565727920666f72206e6f6e6578697374656e7420746f6b656e0060448201526064016106c3565b600c5460ff161561102757610509826117b3565b600b8054611034906120a4565b80601f0160208091040260200160405190810160405280929190818152602001828054611060906120a4565b80156110ad5780601f10611082576101008083540402835291602001916110ad565b820191906000526020600020905b81548152906001019060200180831161109057829003601f168201915b50505050509050919050565b919050565b6000546001600160a01b031633146110e85760405162461bcd60e51b81526004016106c390611fbc565b600c805460ff1916911515919091179055565b6000546001600160a01b031633146111255760405162461bcd60e51b81526004016106c390611fbc565b6001600160a01b03811661118a5760405162461bcd60e51b815260206004820152602660248201527f4f776e61626c653a206e6577206f776e657220697320746865207a65726f206160448201526564647265737360d01b60648201526084016106c3565b610fb9816115c8565b600060015482108015610509575050600090815260056020526040902054600160e01b900460ff161590565b60008281526007602052604080822080546001600160a01b0319166001600160a01b0387811691821790925591518593918516917f8c5be1e5ebec7d5bd14f71427d1e84f3dd0314c0f7b2291e5b200ac8c7c3b92591a4505050565b6000611226826114ac565b9050836001600160a01b031681600001516001600160a01b03161461125d5760405162a1148160e81b815260040160405180910390fd5b6000336001600160a01b038616148061127b575061127b853361046f565b8061129657503361128b846105a1565b6001600160a01b0316145b9050806112b657604051632ce44b5f60e11b815260040160405180910390fd5b6001600160a01b0384166112dd57604051633a954ecd60e21b815260040160405180910390fd5b6112e9600084876111bf565b6001600160a01b038581166000908152600660209081526040808320805467ffffffffffffffff1980821667ffffffffffffffff92831660001901831617909255898616808652838620805493841693831660019081018416949094179055898652600590945282852080546001600160e01b031916909417600160a01b429092169190910217835587018084529220805491939091166113bf5760015482146113bf578054602086015167ffffffffffffffff16600160a01b026001600160e01b03199091166001600160a01b038a16171781555b50505082846001600160a01b0316866001600160a01b03167fddf252ad1be2c89b69c2b068fc378daa952ba7f163c4a11628f55a4df523b3ef60405160405180910390a45b5050505050565b610a62828260405180602001604052806000815250611838565b8034101561146e5760405162461bcd60e51b81526020600482015260166024820152752732b2b2103a379039b2b7321036b7b9329022aa241760511b60448201526064016106c3565b80341115610fb957336108fc6114848334612061565b6040518115909202916000818181858888f19350505050158015610a62573d6000803e3d6000fd5b6040805160608101825260008082526020820181905291810191909152816001548110156115af57600081815260056020908152604091829020825160608101845290546001600160a01b0381168252600160a01b810467ffffffffffffffff1692820192909252600160e01b90910460ff161515918101829052906115ad5780516001600160a01b031615611543579392505050565b5060001901600081815260056020908152604091829020825160608101845290546001600160a01b038116808352600160a01b820467ffffffffffffffff1693830193909352600160e01b900460ff16151592810192909252156115a8579392505050565b611543565b505b604051636f96cda160e11b815260040160405180910390fd5b600080546001600160a01b038381166001600160a01b0319831681178455604051919092169283917f8be0079c531659141344cd1fd0a4f28419497f9722a3daafe3b4186f6b6457e09190a35050565b6000826001600160a01b03168260405160006040518083038185875af1925050503d8060008114611665576040519150601f19603f3d011682016040523d82523d6000602084013e61166a565b606091505b505090508061066e5760405162461bcd60e51b815260206004820152601a60248201527f57495448445241573a205472616e73666572206661696c65642e00000000000060448201526064016106c3565b604051630a85bd0160e11b81526000906001600160a01b0385169063150b7a02906116f0903390899088908890600401611f44565b602060405180830381600087803b15801561170a57600080fd5b505af192505050801561173a575060408051601f3d908101601f1916820190925261173791810190611df4565b60015b611795573d808015611768576040519150601f19603f3d011682016040523d82523d6000602084013e61176d565b606091505b50805161178d576040516368d2bf6b60e11b815260040160405180910390fd5b805181602001fd5b6001600160e01b031916630a85bd0160e11b1490505b949350505050565b60606117be82611193565b6117db57604051630a14c4b560e41b815260040160405180910390fd5b60006117e5611845565b90508051600014156118065760405180602001604052806000815250611831565b8061181084611854565b604051602001611821929190611f15565b6040516020818303038152906040525b9392505050565b61066e838383600161196e565b6060600a805461051e906120a4565b6060816118785750506040805180820190915260018152600360fc1b602082015290565b8160005b81156118a2578061188c816120df565b915061189b9050600a8361202e565b915061187c565b60008167ffffffffffffffff8111156118cb57634e487b7160e01b600052604160045260246000fd5b6040519080825280601f01601f1916602001820160405280156118f5576020820181803683370190505b5090505b84156117ab5761190a600183612061565b9150611917600a866120fa565b611922906030611ff1565b60f81b81838151811061194557634e487b7160e01b600052603260045260246000fd5b60200101906001600160f81b031916908160001a905350611967600a8661202e565b94506118f9565b6001546001600160a01b03851661199757604051622e076360e81b815260040160405180910390fd5b836119b55760405163b562e8dd60e01b815260040160405180910390fd5b6001600160a01b038516600081815260066020908152604080832080546fffffffffffffffffffffffffffffffff19811667ffffffffffffffff8083168c0181169182176801000000000000000067ffffffffffffffff1990941690921783900481168c01811690920217909155858452600590925290912080546001600160e01b031916909217600160a01b429092169190910217905580808501838015611a6757506001600160a01b0387163b15155b15611af0575b60405182906001600160a01b038916906000907fddf252ad1be2c89b69c2b068fc378daa952ba7f163c4a11628f55a4df523b3ef908290a4611ab860008884806001019550886116bb565b611ad5576040516368d2bf6b60e11b815260040160405180910390fd5b80821415611a6d578260015414611aeb57600080fd5b611b36565b5b6040516001830192906001600160a01b038916906000907fddf252ad1be2c89b69c2b068fc378daa952ba7f163c4a11628f55a4df523b3ef908290a480821415611af1575b50600155611404565b828054611b4b906120a4565b90600052602060002090601f016020900481019282611b6d5760008555611bb3565b82601f10611b865782800160ff19823516178555611bb3565b82800160010185558215611bb3579182015b82811115611bb3578235825591602001919060010190611b98565b50611bbf929150611bc3565b5090565b5b80821115611bbf5760008155600101611bc4565b80356001600160a01b03811681146110b957600080fd5b803580151581146110b957600080fd5b803560ff811681146110b957600080fd5b600060208284031215611c21578081fd5b61183182611bd8565b60008060408385031215611c3c578081fd5b611c4583611bd8565b9150611c5360208401611bd8565b90509250929050565b600080600060608486031215611c70578081fd5b611c7984611bd8565b9250611c8760208501611bd8565b9150604084013590509250925092565b60008060008060808587031215611cac578081fd5b611cb585611bd8565b9350611cc360208601611bd8565b925060408501359150606085013567ffffffffffffffff80821115611ce6578283fd5b818701915087601f830112611cf9578283fd5b813581811115611d0b57611d0b61213a565b604051601f8201601f19908116603f01168101908382118183101715611d3357611d3361213a565b816040528281528a6020848701011115611d4b578586fd5b82602086016020830137918201602001949094529598949750929550505050565b60008060408385031215611d7e578182fd5b611d8783611bd8565b9150611c5360208401611bef565b60008060408385031215611da7578182fd5b611db083611bd8565b946020939093013593505050565b600060208284031215611dcf578081fd5b61183182611bef565b600060208284031215611de9578081fd5b813561183181612150565b600060208284031215611e05578081fd5b815161183181612150565b600060208284031215611e21578081fd5b813560048110611831578182fd5b60008060208385031215611e41578182fd5b823567ffffffffffffffff80821115611e58578384fd5b818501915085601f830112611e6b578384fd5b813581811115611e79578485fd5b866020828501011115611e8a578485fd5b60209290920196919550909350505050565b600060208284031215611ead578081fd5b5035919050565b600060208284031215611ec5578081fd5b61183182611bff565b60008060408385031215611ee0578182fd5b611db083611bff565b60008151808452611f01816020860160208601612078565b601f01601f19169290920160200192915050565b60008351611f27818460208801612078565b835190830190611f3b818360208801612078565b01949350505050565b6001600160a01b0385811682528416602082015260408101839052608060608201819052600090611f7790830184611ee9565b9695505050505050565b6020810160048310611fa357634e487b7160e01b600052602160045260246000fd5b91905290565b6020815260006118316020830184611ee9565b6020808252818101527f4f776e61626c653a2063616c6c6572206973206e6f7420746865206f776e6572604082015260600190565b600082198211156120045761200461210e565b500190565b600060ff821660ff84168060ff038211156120265761202661210e565b019392505050565b60008261203d5761203d612124565b500490565b600081600019048311821515161561205c5761205c61210e565b500290565b6000828210156120735761207361210e565b500390565b60005b8381101561209357818101518382015260200161207b565b83811115610d785750506000910152565b600181811c908216806120b857607f821691505b602082108114156120d957634e487b7160e01b600052602260045260246000fd5b50919050565b60006000198214156120f3576120f361210e565b5060010190565b60008261210957612109612124565b500690565b634e487b7160e01b600052601160045260246000fd5b634e487b7160e01b600052601260045260246000fd5b634e487b7160e01b600052604160045260246000fd5b6001600160e01b031981168114610fb957600080fdfea26469706673582212205a7501bffcd348cf5c1d7111d1b08a41c8b151fc27e5d699e33d34eb22eb183064736f6c63430008040033",
  "immutableReferences": {},
  "source": "// SPDX-License-Identifier: MIT\n\n\n//                 \n//              \n//                   \n//                   \n//                         \n//                                                                                                                        \n                                                                             \npragma solidity ^0.8.4;\n\nimport \"@openzeppelin/contracts/access/Ownable.sol\";\nimport \"./ERC721A.sol\";\n\ncontract ShmurfsTest is Ownable, ERC721A {\n\n  enum Step {\n    Before,\n    WhitelistSale,\n    PublicSale,\n    After\n  }\n\n  Step public sellingStep;\n\n  string private baseURI;\n  string private unrevealedImageURL;\n  bool private revealed;\n\n  uint private constant MAX_SUPPLY          = 1000;\n  uint private constant PRICE_WHITELIST     = 0.08 ether;\n  uint private constant PRICE_PUBLIC        = 0.09 ether;\n  uint private constant MAX_WHITELIST_BATCH = 3;\n\n  address private fundWallet    = payable(0xc7f9aDaec08aBB1ac05d8f8Fd6015A0912b43392); // Owner Fund Wallet Address\n  address private devOneWallet  = payable(0xbC937543371F759867acf29A3391dEecF12f3d76); // Developer One Wallet Address\n\n  uint private whitelistMintPassKey = 0;\n\n  mapping(address => uint8) private whitelistBuyList;\n\n  constructor() ERC721A(\"Shmurfs-Test\", \"SMTS\") {\n    sellingStep = Step.Before;\n    revealed = false;\n  }\n\n  modifier callerIsUser() {\n    require(tx.origin == msg.sender, \"The caller is another contract\");\n    _;\n  }\n\n  modifier whitelistSaleIsOpen() {\n    require(sellingStep == Step.WhitelistSale, \"Whitelist Sale is not activated\");\n    _;\n  }\n\n  modifier publicSaleIsOpen() {\n    require(sellingStep == Step.PublicSale, \"Public Sale is not activated\");\n    _;\n  }\n\n  function whitelistMint(uint8 quantity, uint mintPasskey_) external payable callerIsUser whitelistSaleIsOpen {\n    require(whitelistMintPassKey == mintPasskey_, \"WHITELIST_SALE: Passkey not correct\");\n    require(totalSupply() < MAX_SUPPLY, \"WHITELIST_SALE: Please go to the Opensea to buy The Shmurfs.\");\n    require(totalSupply() + quantity <= MAX_SUPPLY, \"WHITELIST_SALE: Max supply exceeded\");\n    require(whitelistBuyList[msg.sender] + quantity <= MAX_WHITELIST_BATCH, \"WHITELIST_SALE: You can not get more than 3 NFTs on the Whitelist Sale\");\n    require(msg.value >= PRICE_WHITELIST * quantity, \"WHITELIST_SALE: Not enough funds\");\n    \n    whitelistBuyList[msg.sender] += quantity;\n    _safeMint(msg.sender, quantity);\n\n    refundIfOver(PRICE_WHITELIST * quantity);\n  }\n\n  function publicSaleMint(uint8 quantity) external payable callerIsUser publicSaleIsOpen{\n    require(totalSupply() < MAX_SUPPLY, \"PUBLIC_SALE: Please go to the Opensea to buy The Shmurfs.\");\n    require(totalSupply() + quantity <= MAX_SUPPLY, \"PUBLIC_SALE: Max supply exceeded\");\n    require(msg.value >= PRICE_PUBLIC * quantity, \"WHITELIST_SALE: Not enough funds\");\n\n    _safeMint(msg.sender, quantity);\n    refundIfOver(PRICE_PUBLIC * quantity);\n  }\n\n  function setWhitelistMintPassKey(uint mintPasskey_) external onlyOwner {\n    whitelistMintPassKey = mintPasskey_;\n  }\n\n  function setSellingStep(Step _step) external onlyOwner {\n    sellingStep = _step;\n  }\n\n  // metadata URI\n  function setBaseURI(string calldata _baseuri) external onlyOwner {\n    baseURI = _baseuri;\n  }\n\n  function _baseURI() internal view override returns (string memory) {\n    return baseURI;\n  }\n\n  function setUnrevealedImageURL(string calldata _imageURL) external onlyOwner {\n    unrevealedImageURL = _imageURL;\n  }\n\n  function setRevealed(bool _reveal) external onlyOwner {\n    revealed = _reveal;\n  }\n\n  function tokenURI(uint _tokenId) public view override returns (string memory) {\n    require(_exists(_tokenId), \"URI query for nonexistent token\");\n\n    if (revealed)\n      return super.tokenURI(_tokenId);\n    else\n      return unrevealedImageURL;\n  }\n\n  // fund\n  function withdrawAll() external onlyOwner {\n    uint totalBalance = address(this).balance;\n    require(totalBalance > 0, \"WITHDRAW: No balance in contract\");\n\n    uint devOneBalance = totalBalance / 10; // 10% of total sale\n    uint ownerBalance = totalBalance - devOneBalance; // 90% of total sale\n\n    _withdraw(devOneWallet, devOneBalance);\n    _withdraw(fundWallet, ownerBalance);\n  }\n\n  function _withdraw(address _address, uint _amount) private {\n    (bool success, ) = _address.call{value: _amount}(\"\");\n\n    require(success, \"WITHDRAW: Transfer failed.\");\n  }\n\n  function refundIfOver(uint price) private {\n    require(msg.value >= price, \"Need to send more ETH.\");\n\n    if (msg.value > price) {\n      payable(msg.sender).transfer(msg.value - price);\n    }\n  }\n}",
  "sourcePath": "D:\\Development\\smurfs-minting-website-main\\contracts\\ShmurfsTest.sol",
  "compiler": {
    "name": "solc",
    "version": "0.8.4+commit.c7e474f2.Emscripten.clang"
  },
  "schemaVersion": "3.4.4",
  "updatedAt": "2022-04-09T21:11:35.042Z",
  "devdoc": {
    "kind": "dev",
    "methods": {
      "approve(address,uint256)": {
        "details": "See {IERC721-approve}."
      },
      "balanceOf(address)": {
        "details": "See {IERC721-balanceOf}."
      },
      "getApproved(uint256)": {
        "details": "See {IERC721-getApproved}."
      },
      "isApprovedForAll(address,address)": {
        "details": "See {IERC721-isApprovedForAll}."
      },
      "name()": {
        "details": "See {IERC721Metadata-name}."
      },
      "owner()": {
        "details": "Returns the address of the current owner."
      },
      "ownerOf(uint256)": {
        "details": "See {IERC721-ownerOf}."
      },
      "renounceOwnership()": {
        "details": "Leaves the contract without owner. It will not be possible to call `onlyOwner` functions anymore. Can only be called by the current owner. NOTE: Renouncing ownership will leave the contract without an owner, thereby removing any functionality that is only available to the owner."
      },
      "safeTransferFrom(address,address,uint256)": {
        "details": "See {IERC721-safeTransferFrom}."
      },
      "safeTransferFrom(address,address,uint256,bytes)": {
        "details": "See {IERC721-safeTransferFrom}."
      },
      "setApprovalForAll(address,bool)": {
        "details": "See {IERC721-setApprovalForAll}."
      },
      "supportsInterface(bytes4)": {
        "details": "See {IERC165-supportsInterface}."
      },
      "symbol()": {
        "details": "See {IERC721Metadata-symbol}."
      },
      "transferFrom(address,address,uint256)": {
        "details": "See {IERC721-transferFrom}."
      },
      "transferOwnership(address)": {
        "details": "Transfers ownership of the contract to a new account (`newOwner`). Can only be called by the current owner."
      }
    },
    "version": 1
  },
  "userdoc": {
    "kind": "user",
    "methods": {},
    "version": 1
  }
}