{
  "contractName": "TheShmurfs",
  "abi": [
    {
      "inputs": [],
      "stateMutability": "nonpayable",
      "type": "constructor"
    },
    {
      "inputs": [],
      "name": "ApprovalCallerNotOwnerNorApproved",
      "type": "error"
    },
    {
      "inputs": [],
      "name": "ApprovalQueryForNonexistentToken",
      "type": "error"
    },
    {
      "inputs": [],
      "name": "ApprovalToCurrentOwner",
      "type": "error"
    },
    {
      "inputs": [],
      "name": "ApproveToCaller",
      "type": "error"
    },
    {
      "inputs": [],
      "name": "BalanceQueryForZeroAddress",
      "type": "error"
    },
    {
      "inputs": [],
      "name": "MintToZeroAddress",
      "type": "error"
    },
    {
      "inputs": [],
      "name": "MintZeroQuantity",
      "type": "error"
    },
    {
      "inputs": [],
      "name": "OwnerQueryForNonexistentToken",
      "type": "error"
    },
    {
      "inputs": [],
      "name": "TransferCallerNotOwnerNorApproved",
      "type": "error"
    },
    {
      "inputs": [],
      "name": "TransferFromIncorrectOwner",
      "type": "error"
    },
    {
      "inputs": [],
      "name": "TransferToNonERC721ReceiverImplementer",
      "type": "error"
    },
    {
      "inputs": [],
      "name": "TransferToZeroAddress",
      "type": "error"
    },
    {
      "inputs": [],
      "name": "URIQueryForNonexistentToken",
      "type": "error"
    },
    {
      "anonymous": false,
      "inputs": [
        {
          "indexed": true,
          "internalType": "address",
          "name": "owner",
          "type": "address"
        },
        {
          "indexed": true,
          "internalType": "address",
          "name": "approved",
          "type": "address"
        },
        {
          "indexed": true,
          "internalType": "uint256",
          "name": "tokenId",
          "type": "uint256"
        }
      ],
      "name": "Approval",
      "type": "event"
    },
    {
      "anonymous": false,
      "inputs": [
        {
          "indexed": true,
          "internalType": "address",
          "name": "owner",
          "type": "address"
        },
        {
          "indexed": true,
          "internalType": "address",
          "name": "operator",
          "type": "address"
        },
        {
          "indexed": false,
          "internalType": "bool",
          "name": "approved",
          "type": "bool"
        }
      ],
      "name": "ApprovalForAll",
      "type": "event"
    },
    {
      "anonymous": false,
      "inputs": [
        {
          "indexed": true,
          "internalType": "address",
          "name": "previousOwner",
          "type": "address"
        },
        {
          "indexed": true,
          "internalType": "address",
          "name": "newOwner",
          "type": "address"
        }
      ],
      "name": "OwnershipTransferred",
      "type": "event"
    },
    {
      "anonymous": false,
      "inputs": [
        {
          "indexed": true,
          "internalType": "address",
          "name": "from",
          "type": "address"
        },
        {
          "indexed": true,
          "internalType": "address",
          "name": "to",
          "type": "address"
        },
        {
          "indexed": true,
          "internalType": "uint256",
          "name": "tokenId",
          "type": "uint256"
        }
      ],
      "name": "Transfer",
      "type": "event"
    },
    {
      "inputs": [
        {
          "internalType": "address",
          "name": "to",
          "type": "address"
        },
        {
          "internalType": "uint256",
          "name": "tokenId",
          "type": "uint256"
        }
      ],
      "name": "approve",
      "outputs": [],
      "stateMutability": "nonpayable",
      "type": "function"
    },
    {
      "inputs": [
        {
          "internalType": "address",
          "name": "owner",
          "type": "address"
        }
      ],
      "name": "balanceOf",
      "outputs": [
        {
          "internalType": "uint256",
          "name": "",
          "type": "uint256"
        }
      ],
      "stateMutability": "view",
      "type": "function"
    },
    {
      "inputs": [
        {
          "internalType": "uint256",
          "name": "tokenId",
          "type": "uint256"
        }
      ],
      "name": "getApproved",
      "outputs": [
        {
          "internalType": "address",
          "name": "",
          "type": "address"
        }
      ],
      "stateMutability": "view",
      "type": "function"
    },
    {
      "inputs": [
        {
          "internalType": "address",
          "name": "owner",
          "type": "address"
        },
        {
          "internalType": "address",
          "name": "operator",
          "type": "address"
        }
      ],
      "name": "isApprovedForAll",
      "outputs": [
        {
          "internalType": "bool",
          "name": "",
          "type": "bool"
        }
      ],
      "stateMutability": "view",
      "type": "function"
    },
    {
      "inputs": [],
      "name": "name",
      "outputs": [
        {
          "internalType": "string",
          "name": "",
          "type": "string"
        }
      ],
      "stateMutability": "view",
      "type": "function"
    },
    {
      "inputs": [],
      "name": "owner",
      "outputs": [
        {
          "internalType": "address",
          "name": "",
          "type": "address"
        }
      ],
      "stateMutability": "view",
      "type": "function"
    },
    {
      "inputs": [
        {
          "internalType": "uint256",
          "name": "tokenId",
          "type": "uint256"
        }
      ],
      "name": "ownerOf",
      "outputs": [
        {
          "internalType": "address",
          "name": "",
          "type": "address"
        }
      ],
      "stateMutability": "view",
      "type": "function"
    },
    {
      "inputs": [],
      "name": "renounceOwnership",
      "outputs": [],
      "stateMutability": "nonpayable",
      "type": "function"
    },
    {
      "inputs": [
        {
          "internalType": "address",
          "name": "from",
          "type": "address"
        },
        {
          "internalType": "address",
          "name": "to",
          "type": "address"
        },
        {
          "internalType": "uint256",
          "name": "tokenId",
          "type": "uint256"
        }
      ],
      "name": "safeTransferFrom",
      "outputs": [],
      "stateMutability": "nonpayable",
      "type": "function"
    },
    {
      "inputs": [
        {
          "internalType": "address",
          "name": "from",
          "type": "address"
        },
        {
          "internalType": "address",
          "name": "to",
          "type": "address"
        },
        {
          "internalType": "uint256",
          "name": "tokenId",
          "type": "uint256"
        },
        {
          "internalType": "bytes",
          "name": "_data",
          "type": "bytes"
        }
      ],
      "name": "safeTransferFrom",
      "outputs": [],
      "stateMutability": "nonpayable",
      "type": "function"
    },
    {
      "inputs": [],
      "name": "sellingStep",
      "outputs": [
        {
          "internalType": "enum TheShmurfs.Step",
          "name": "",
          "type": "uint8"
        }
      ],
      "stateMutability": "view",
      "type": "function"
    },
    {
      "inputs": [
        {
          "internalType": "address",
          "name": "operator",
          "type": "address"
        },
        {
          "internalType": "bool",
          "name": "approved",
          "type": "bool"
        }
      ],
      "name": "setApprovalForAll",
      "outputs": [],
      "stateMutability": "nonpayable",
      "type": "function"
    },
    {
      "inputs": [
        {
          "internalType": "bytes4",
          "name": "interfaceId",
          "type": "bytes4"
        }
      ],
      "name": "supportsInterface",
      "outputs": [
        {
          "internalType": "bool",
          "name": "",
          "type": "bool"
        }
      ],
      "stateMutability": "view",
      "type": "function"
    },
    {
      "inputs": [],
      "name": "symbol",
      "outputs": [
        {
          "internalType": "string",
          "name": "",
          "type": "string"
        }
      ],
      "stateMutability": "view",
      "type": "function"
    },
    {
      "inputs": [
        {
          "internalType": "address",
          "name": "from",
          "type": "address"
        },
        {
          "internalType": "address",
          "name": "to",
          "type": "address"
        },
        {
          "internalType": "uint256",
          "name": "tokenId",
          "type": "uint256"
        }
      ],
      "name": "transferFrom",
      "outputs": [],
      "stateMutability": "nonpayable",
      "type": "function"
    },
    {
      "inputs": [
        {
          "internalType": "address",
          "name": "newOwner",
          "type": "address"
        }
      ],
      "name": "transferOwnership",
      "outputs": [],
      "stateMutability": "nonpayable",
      "type": "function"
    },
    {
      "inputs": [
        {
          "internalType": "uint8",
          "name": "quantity",
          "type": "uint8"
        }
      ],
      "name": "whitelistMint",
      "outputs": [],
      "stateMutability": "payable",
      "type": "function"
    },
    {
      "inputs": [
        {
          "internalType": "uint8",
          "name": "quantity",
          "type": "uint8"
        }
      ],
      "name": "publicSaleMint",
      "outputs": [],
      "stateMutability": "payable",
      "type": "function"
    },
    {
      "inputs": [],
      "name": "setStepAsBefore",
      "outputs": [],
      "stateMutability": "nonpayable",
      "type": "function"
    },
    {
      "inputs": [],
      "name": "setStepAsWhitelistSale",
      "outputs": [],
      "stateMutability": "nonpayable",
      "type": "function"
    },
    {
      "inputs": [],
      "name": "setStepAsPublicSale",
      "outputs": [],
      "stateMutability": "nonpayable",
      "type": "function"
    },
    {
      "inputs": [],
      "name": "setStepAsAfter",
      "outputs": [],
      "stateMutability": "nonpayable",
      "type": "function"
    },
    {
      "inputs": [
        {
          "internalType": "string",
          "name": "_imageURL",
          "type": "string"
        }
      ],
      "name": "setUnrevealedImageURL",
      "outputs": [],
      "stateMutability": "nonpayable",
      "type": "function"
    },
    {
      "inputs": [
        {
          "internalType": "bool",
          "name": "_reveal",
          "type": "bool"
        }
      ],
      "name": "setRevealed",
      "outputs": [],
      "stateMutability": "nonpayable",
      "type": "function"
    },
    {
      "inputs": [
        {
          "internalType": "string",
          "name": "_baseuri",
          "type": "string"
        }
      ],
      "name": "setBaseURI",
      "outputs": [],
      "stateMutability": "nonpayable",
      "type": "function"
    },
    {
      "inputs": [
        {
          "internalType": "uint256",
          "name": "_tokenId",
          "type": "uint256"
        }
      ],
      "name": "tokenURI",
      "outputs": [
        {
          "internalType": "string",
          "name": "",
          "type": "string"
        }
      ],
      "stateMutability": "view",
      "type": "function"
    },
    {
      "inputs": [],
      "name": "withdrawAll",
      "outputs": [],
      "stateMutability": "nonpayable",
      "type": "function"
    },
    {
      "inputs": [],
      "name": "getPrice",
      "outputs": [
        {
          "internalType": "uint256",
          "name": "",
          "type": "uint256"
        }
      ],
      "stateMutability": "view",
      "type": "function"
    }
  ],
  "bytecode": "0x6080604052600c805474e8a18cd415e54a99fcd2d89f52434dd8259926fb00610100600160a81b0319909116179055600d80546001600160a01b03191673bc937543371f759867acf29a3391deecf12f3d761790553480156200006157600080fd5b506040518060400160405280601f81526020017f5468652053686d75726673204f6666696369616c20436f6c6c656374696f6e008152506040518060400160405280600781526020016653484d5552465360c81b815250620000d2620000cc6200012160201b60201c565b62000125565b8151620000e790600390602085019062000175565b508051620000fd90600490602084019062000175565b50600060015550506009805460ff19908116909155600c8054909116905562000258565b3390565b600080546001600160a01b038381166001600160a01b0319831681178455604051919092169283917f8be0079c531659141344cd1fd0a4f28419497f9722a3daafe3b4186f6b6457e09190a35050565b82805462000183906200021b565b90600052602060002090601f016020900481019282620001a75760008555620001f2565b82601f10620001c257805160ff1916838001178555620001f2565b82800160010185558215620001f2579182015b82811115620001f2578251825591602001919060010190620001d5565b506200020092915062000204565b5090565b5b8082111562000200576000815560010162000205565b600181811c908216806200023057607f821691505b602082108114156200025257634e487b7160e01b600052602260045260246000fd5b50919050565b6122f780620002686000396000f3fe6080604052600436106101b75760003560e01c80638d9ce5e1116100ec578063b8919df31161008a578063cbccefb211610064578063cbccefb214610487578063e0a80853146104ae578063e985e9c5146104ce578063f2fde38b1461051757600080fd5b8063b8919df31461043f578063c76df80e14610454578063c87b56dd1461046757600080fd5b806395d89b41116100c657806395d89b41146103d557806398d5fdca146103ea578063a22cb465146103ff578063b88d4fde1461041f57600080fd5b80638d9ce5e1146103825780638da5cb5b146103a257806390caedae146103c057600080fd5b806355f804b311610159578063700760d211610133578063700760d21461031557806370a082311461032a578063715018a614610358578063853828b61461036d57600080fd5b806355f804b3146102c257806360e85cde146102e25780636352211e146102f557600080fd5b8063095ea7b311610195578063095ea7b31461024b57806323b872dd1461026d5780632543bb851461028d57806342842e0e146102a257600080fd5b806301ffc9a7146101bc57806306fdde03146101f1578063081812fc14610213575b600080fd5b3480156101c857600080fd5b506101dc6101d7366004611f66565b610537565b60405190151581526020015b60405180910390f35b3480156101fd57600080fd5b50610206610589565b6040516101e89190612104565b34801561021f57600080fd5b5061023361022e36600461200b565b61061b565b6040516001600160a01b0390911681526020016101e8565b34801561025757600080fd5b5061026b610266366004611f23565b61065f565b005b34801561027957600080fd5b5061026b610288366004611dea565b6106ed565b34801561029957600080fd5b5061026b6106f8565b3480156102ae57600080fd5b5061026b6102bd366004611dea565b610742565b3480156102ce57600080fd5b5061026b6102dd366004611f9e565b61075d565b61026b6102f0366004612023565b610793565b34801561030157600080fd5b5061023361031036600461200b565b610ac3565b34801561032157600080fd5b5061026b610ad5565b34801561033657600080fd5b5061034a610345366004611d9e565b610b13565b6040519081526020016101e8565b34801561036457600080fd5b5061026b610b62565b34801561037957600080fd5b5061026b610b98565b34801561038e57600080fd5b5061026b61039d366004611f9e565b610c5f565b3480156103ae57600080fd5b506000546001600160a01b0316610233565b3480156103cc57600080fd5b5061026b610c95565b3480156103e157600080fd5b50610206610cd3565b3480156103f657600080fd5b5061034a610ce2565b34801561040b57600080fd5b5061026b61041a366004611efa565b610df8565b34801561042b57600080fd5b5061026b61043a366004611e25565b610e8e565b34801561044b57600080fd5b5061026b610edf565b61026b610462366004612023565b610f1c565b34801561047357600080fd5b5061020661048236600461200b565b611157565b34801561049357600080fd5b506009546104a19060ff1681565b6040516101e891906120dc565b3480156104ba57600080fd5b5061026b6104c9366004611f4c565b611259565b3480156104da57600080fd5b506101dc6104e9366004611db8565b6001600160a01b03918216600090815260086020908152604080832093909416825291909152205460ff1690565b34801561052357600080fd5b5061026b610532366004611d9e565b611296565b60006001600160e01b031982166380ac58cd60e01b148061056857506001600160e01b03198216635b5e139f60e01b145b8061058357506301ffc9a760e01b6001600160e01b03198316145b92915050565b606060038054610598906121ff565b80601f01602080910402602001604051908101604052809291908181526020018280546105c4906121ff565b80156106115780601f106105e657610100808354040283529160200191610611565b820191906000526020600020905b8154815290600101906020018083116105f457829003601f168201915b5050505050905090565b60006106268261132e565b610643576040516333d1c03960e21b815260040160405180910390fd5b506000908152600760205260409020546001600160a01b031690565b600061066a82610ac3565b9050806001600160a01b0316836001600160a01b0316141561069f5760405163250fdee360e21b815260040160405180910390fd5b336001600160a01b038216148015906106bf57506106bd81336104e9565b155b156106dd576040516367d9dca160e11b815260040160405180910390fd5b6106e883838361135a565b505050565b6106e88383836113b6565b6000546001600160a01b0316331461072b5760405162461bcd60e51b815260040161072290612117565b60405180910390fd5b600980546003919060ff19166001835b0217905550565b6106e883838360405180602001604052806000815250610e8e565b6000546001600160a01b031633146107875760405162461bcd60e51b815260040161072290612117565b6106e8600a8383611cde565b3233146107e25760405162461bcd60e51b815260206004820152601e60248201527f5468652063616c6c657220697320616e6f7468657220636f6e747261637400006044820152606401610722565b600160095460ff16600381111561080957634e487b7160e01b600052602160045260246000fd5b146108565760405162461bcd60e51b815260206004820152601f60248201527f57686974656c6973742053616c65206973206e6f7420616374697661746564006044820152606401610722565b6103e86108666002546001540390565b106108d95760405162461bcd60e51b815260206004820152603c60248201527f57484954454c4953545f53414c453a20506c6561736520676f20746f2074686560448201527f204f70656e73656120746f20627579205468652053686d757266732e000000006064820152608401610722565b6103e88160ff166108ed6002546001540390565b6108f7919061214c565b11156109515760405162461bcd60e51b815260206004820152602360248201527f57484954454c4953545f53414c453a204d617820737570706c7920657863656560448201526219195960ea1b6064820152608401610722565b336000908152600e602052604090205460039061097290839060ff16612164565b60ff1611156109f85760405162461bcd60e51b815260206004820152604660248201527f57484954454c4953545f53414c453a20596f752063616e206e6f74206765742060448201527f6d6f7265207468616e2033204e465473206f6e207468652057686974656c6973606482015265742053616c6560d01b608482015260a401610722565b610a0d60ff821667011c37937e08000061219d565b341015610a5c5760405162461bcd60e51b815260206004820181905260248201527f57484954454c4953545f53414c453a204e6f7420656e6f7567682066756e64736044820152606401610722565b336000908152600e602052604081208054839290610a7e90849060ff16612164565b92506101000a81548160ff021916908360ff160217905550610aa3338260ff166115a6565b610ac0610abb60ff831667011c37937e08000061219d565b6115c4565b50565b6000610ace8261164b565b5192915050565b6000546001600160a01b03163314610aff5760405162461bcd60e51b815260040161072290612117565b600980546000919060ff191660018361073b565b60006001600160a01b038216610b3c576040516323d3ad8160e21b815260040160405180910390fd5b506001600160a01b031660009081526006602052604090205467ffffffffffffffff1690565b6000546001600160a01b03163314610b8c5760405162461bcd60e51b815260040161072290612117565b610b966000611767565b565b6000546001600160a01b03163314610bc25760405162461bcd60e51b815260040161072290612117565b4780610c105760405162461bcd60e51b815260206004820181905260248201527f57495448445241573a204e6f2062616c616e636520696e20636f6e74726163746044820152606401610722565b6000610c1d600a83612189565b90506000610c2b82846121bc565b600d54909150610c44906001600160a01b0316836117b7565b600c546106e89061010090046001600160a01b0316826117b7565b6000546001600160a01b03163314610c895760405162461bcd60e51b815260040161072290612117565b6106e8600b8383611cde565b6000546001600160a01b03163314610cbf5760405162461bcd60e51b815260040161072290612117565b600980546002919060ff191660018361073b565b606060048054610598906121ff565b60008060095460ff166003811115610d0a57634e487b7160e01b600052602160045260246000fd5b1415610d4f5760405162461bcd60e51b815260206004820152601460248201527314d85b19481b9bdd081cdd185c9d1959081e595d60621b6044820152606401610722565b600360095460ff166003811115610d7657634e487b7160e01b600052602160045260246000fd5b1415610db15760405162461bcd60e51b815260206004820152600a60248201526914d85b1948195b99195960b21b6044820152606401610722565b600260095460ff166003811115610dd857634e487b7160e01b600052602160045260246000fd5b1415610deb575067013fbe85edc9000090565b5067011c37937e08000090565b6001600160a01b038216331415610e225760405163b06307db60e01b815260040160405180910390fd5b3360008181526008602090815260408083206001600160a01b03871680855290835292819020805460ff191686151590811790915590519081529192917f17307eab39ab6107e8899845ad3d59bd9653f200f220920489ca2b5937696c31910160405180910390a35050565b610e998484846113b6565b6001600160a01b0383163b15158015610ebb5750610eb98484848461185a565b155b15610ed9576040516368d2bf6b60e11b815260040160405180910390fd5b50505050565b6000546001600160a01b03163314610f095760405162461bcd60e51b815260040161072290612117565b600980546001919060ff1916828061073b565b323314610f6b5760405162461bcd60e51b815260206004820152601e60248201527f5468652063616c6c657220697320616e6f7468657220636f6e747261637400006044820152606401610722565b600260095460ff166003811115610f9257634e487b7160e01b600052602160045260246000fd5b14610fdf5760405162461bcd60e51b815260206004820152601c60248201527f5075626c69632053616c65206973206e6f7420616374697661746564000000006044820152606401610722565b6103e8610fef6002546001540390565b106110625760405162461bcd60e51b815260206004820152603960248201527f5055424c49435f53414c453a20506c6561736520676f20746f20746865204f7060448201527f656e73656120746f20627579205468652053686d757266732e000000000000006064820152608401610722565b6103e88160ff166110766002546001540390565b611080919061214c565b11156110ce5760405162461bcd60e51b815260206004820181905260248201527f5055424c49435f53414c453a204d617820737570706c792065786365656465646044820152606401610722565b6110e360ff821667013fbe85edc9000061219d565b3410156111325760405162461bcd60e51b815260206004820181905260248201527f57484954454c4953545f53414c453a204e6f7420656e6f7567682066756e64736044820152606401610722565b61113f338260ff166115a6565b610ac0610abb60ff831667013fbe85edc9000061219d565b60606111628261132e565b6111ae5760405162461bcd60e51b815260206004820152601f60248201527f55524920717565727920666f72206e6f6e6578697374656e7420746f6b656e006044820152606401610722565b600c5460ff16156111c25761058382611952565b600b80546111cf906121ff565b80601f01602080910402602001604051908101604052809291908181526020018280546111fb906121ff565b80156112485780601f1061121d57610100808354040283529160200191611248565b820191906000526020600020905b81548152906001019060200180831161122b57829003601f168201915b50505050509050919050565b919050565b6000546001600160a01b031633146112835760405162461bcd60e51b815260040161072290612117565b600c805460ff1916911515919091179055565b6000546001600160a01b031633146112c05760405162461bcd60e51b815260040161072290612117565b6001600160a01b0381166113255760405162461bcd60e51b815260206004820152602660248201527f4f776e61626c653a206e6577206f776e657220697320746865207a65726f206160448201526564647265737360d01b6064820152608401610722565b610ac081611767565b600060015482108015610583575050600090815260056020526040902054600160e01b900460ff161590565b60008281526007602052604080822080546001600160a01b0319166001600160a01b0387811691821790925591518593918516917f8c5be1e5ebec7d5bd14f71427d1e84f3dd0314c0f7b2291e5b200ac8c7c3b92591a4505050565b60006113c18261164b565b9050836001600160a01b031681600001516001600160a01b0316146113f85760405162a1148160e81b815260040160405180910390fd5b6000336001600160a01b0386161480611416575061141685336104e9565b806114315750336114268461061b565b6001600160a01b0316145b90508061145157604051632ce44b5f60e11b815260040160405180910390fd5b6001600160a01b03841661147857604051633a954ecd60e21b815260040160405180910390fd5b6114846000848761135a565b6001600160a01b038581166000908152600660209081526040808320805467ffffffffffffffff1980821667ffffffffffffffff92831660001901831617909255898616808652838620805493841693831660019081018416949094179055898652600590945282852080546001600160e01b031916909417600160a01b4290921691909102178355870180845292208054919390911661155a57600154821461155a578054602086015167ffffffffffffffff16600160a01b026001600160e01b03199091166001600160a01b038a16171781555b50505082846001600160a01b0316866001600160a01b03167fddf252ad1be2c89b69c2b068fc378daa952ba7f163c4a11628f55a4df523b3ef60405160405180910390a45b5050505050565b6115c08282604051806020016040528060008152506119d7565b5050565b8034101561160d5760405162461bcd60e51b81526020600482015260166024820152752732b2b2103a379039b2b7321036b7b9329022aa241760511b6044820152606401610722565b80341115610ac057336108fc61162383346121bc565b6040518115909202916000818181858888f193505050501580156115c0573d6000803e3d6000fd5b60408051606081018252600080825260208201819052918101919091528160015481101561174e57600081815260056020908152604091829020825160608101845290546001600160a01b0381168252600160a01b810467ffffffffffffffff1692820192909252600160e01b90910460ff1615159181018290529061174c5780516001600160a01b0316156116e2579392505050565b5060001901600081815260056020908152604091829020825160608101845290546001600160a01b038116808352600160a01b820467ffffffffffffffff1693830193909352600160e01b900460ff1615159281019290925215611747579392505050565b6116e2565b505b604051636f96cda160e11b815260040160405180910390fd5b600080546001600160a01b038381166001600160a01b0319831681178455604051919092169283917f8be0079c531659141344cd1fd0a4f28419497f9722a3daafe3b4186f6b6457e09190a35050565b6000826001600160a01b03168260405160006040518083038185875af1925050503d8060008114611804576040519150601f19603f3d011682016040523d82523d6000602084013e611809565b606091505b50509050806106e85760405162461bcd60e51b815260206004820152601a60248201527f57495448445241573a205472616e73666572206661696c65642e0000000000006044820152606401610722565b604051630a85bd0160e11b81526000906001600160a01b0385169063150b7a029061188f90339089908890889060040161209f565b602060405180830381600087803b1580156118a957600080fd5b505af19250505080156118d9575060408051601f3d908101601f191682019092526118d691810190611f82565b60015b611934573d808015611907576040519150601f19603f3d011682016040523d82523d6000602084013e61190c565b606091505b50805161192c576040516368d2bf6b60e11b815260040160405180910390fd5b805181602001fd5b6001600160e01b031916630a85bd0160e11b1490505b949350505050565b606061195d8261132e565b61197a57604051630a14c4b560e41b815260040160405180910390fd5b60006119846119e4565b90508051600014156119a557604051806020016040528060008152506119d0565b806119af846119f3565b6040516020016119c0929190612070565b6040516020818303038152906040525b9392505050565b6106e88383836001611b0d565b6060600a8054610598906121ff565b606081611a175750506040805180820190915260018152600360fc1b602082015290565b8160005b8115611a415780611a2b8161223a565b9150611a3a9050600a83612189565b9150611a1b565b60008167ffffffffffffffff811115611a6a57634e487b7160e01b600052604160045260246000fd5b6040519080825280601f01601f191660200182016040528015611a94576020820181803683370190505b5090505b841561194a57611aa96001836121bc565b9150611ab6600a86612255565b611ac190603061214c565b60f81b818381518110611ae457634e487b7160e01b600052603260045260246000fd5b60200101906001600160f81b031916908160001a905350611b06600a86612189565b9450611a98565b6001546001600160a01b038516611b3657604051622e076360e81b815260040160405180910390fd5b83611b545760405163b562e8dd60e01b815260040160405180910390fd5b6001600160a01b038516600081815260066020908152604080832080546fffffffffffffffffffffffffffffffff19811667ffffffffffffffff8083168c0181169182176801000000000000000067ffffffffffffffff1990941690921783900481168c01811690920217909155858452600590925290912080546001600160e01b031916909217600160a01b429092169190910217905580808501838015611c0657506001600160a01b0387163b15155b15611c8f575b60405182906001600160a01b038916906000907fddf252ad1be2c89b69c2b068fc378daa952ba7f163c4a11628f55a4df523b3ef908290a4611c57600088848060010195508861185a565b611c74576040516368d2bf6b60e11b815260040160405180910390fd5b80821415611c0c578260015414611c8a57600080fd5b611cd5565b5b6040516001830192906001600160a01b038916906000907fddf252ad1be2c89b69c2b068fc378daa952ba7f163c4a11628f55a4df523b3ef908290a480821415611c90575b5060015561159f565b828054611cea906121ff565b90600052602060002090601f016020900481019282611d0c5760008555611d52565b82601f10611d255782800160ff19823516178555611d52565b82800160010185558215611d52579182015b82811115611d52578235825591602001919060010190611d37565b50611d5e929150611d62565b5090565b5b80821115611d5e5760008155600101611d63565b80356001600160a01b038116811461125457600080fd5b8035801515811461125457600080fd5b600060208284031215611daf578081fd5b6119d082611d77565b60008060408385031215611dca578081fd5b611dd383611d77565b9150611de160208401611d77565b90509250929050565b600080600060608486031215611dfe578081fd5b611e0784611d77565b9250611e1560208501611d77565b9150604084013590509250925092565b60008060008060808587031215611e3a578081fd5b611e4385611d77565b9350611e5160208601611d77565b925060408501359150606085013567ffffffffffffffff80821115611e74578283fd5b818701915087601f830112611e87578283fd5b813581811115611e9957611e99612295565b604051601f8201601f19908116603f01168101908382118183101715611ec157611ec1612295565b816040528281528a6020848701011115611ed9578586fd5b82602086016020830137918201602001949094529598949750929550505050565b60008060408385031215611f0c578182fd5b611f1583611d77565b9150611de160208401611d8e565b60008060408385031215611f35578182fd5b611f3e83611d77565b946020939093013593505050565b600060208284031215611f5d578081fd5b6119d082611d8e565b600060208284031215611f77578081fd5b81356119d0816122ab565b600060208284031215611f93578081fd5b81516119d0816122ab565b60008060208385031215611fb0578182fd5b823567ffffffffffffffff80821115611fc7578384fd5b818501915085601f830112611fda578384fd5b813581811115611fe8578485fd5b866020828501011115611ff9578485fd5b60209290920196919550909350505050565b60006020828403121561201c578081fd5b5035919050565b600060208284031215612034578081fd5b813560ff811681146119d0578182fd5b6000815180845261205c8160208601602086016121d3565b601f01601f19169290920160200192915050565b600083516120828184602088016121d3565b8351908301906120968183602088016121d3565b01949350505050565b6001600160a01b03858116825284166020820152604081018390526080606082018190526000906120d290830184612044565b9695505050505050565b60208101600483106120fe57634e487b7160e01b600052602160045260246000fd5b91905290565b6020815260006119d06020830184612044565b6020808252818101527f4f776e61626c653a2063616c6c6572206973206e6f7420746865206f776e6572604082015260600190565b6000821982111561215f5761215f612269565b500190565b600060ff821660ff84168060ff0382111561218157612181612269565b019392505050565b6000826121985761219861227f565b500490565b60008160001904831182151516156121b7576121b7612269565b500290565b6000828210156121ce576121ce612269565b500390565b60005b838110156121ee5781810151838201526020016121d6565b83811115610ed95750506000910152565b600181811c9082168061221357607f821691505b6020821081141561223457634e487b7160e01b600052602260045260246000fd5b50919050565b600060001982141561224e5761224e612269565b5060010190565b6000826122645761226461227f565b500690565b634e487b7160e01b600052601160045260246000fd5b634e487b7160e01b600052601260045260246000fd5b634e487b7160e01b600052604160045260246000fd5b6001600160e01b031981168114610ac057600080fdfea2646970667358221220d27db31fa1f3db47db12268a246508ce6e6b5249705acafececa69ead687b6da64736f6c63430008040033",
  "immutableReferences": {},
  "source": "// SPDX-License-Identifier: MIT\n\n//   /$$$$$$$$ /$$                        /$$$$$$  /$$                                          /$$$$$$                 /$$$$$$   /$$$$$$   /$$$$$$  /$$           /$$           /$$        /$$$$$$            /$$ /$$                       /$$     /$$                    \n//  |__  $$__/| $$                       /$$__  $$| $$                                         /$$__  $$               /$$__  $$ /$$__  $$ /$$__  $$|__/          |__/          | $$       /$$__  $$          | $$| $$                      | $$    |__/                    \n//     | $$   | $$$$$$$   /$$$$$$       | $$  \\__/| $$$$$$$  /$$$$$$/$$$$  /$$   /$$  /$$$$$$ | $$  \\__//$$$$$$$      | $$  \\ $$| $$  \\__/| $$  \\__/ /$$  /$$$$$$$ /$$  /$$$$$$ | $$      | $$  \\__/  /$$$$$$ | $$| $$  /$$$$$$   /$$$$$$$ /$$$$$$   /$$  /$$$$$$  /$$$$$$$ \n//     | $$   | $$__  $$ /$$__  $$      |  $$$$$$ | $$__  $$| $$_  $$_  $$| $$  | $$ /$$__  $$| $$$$   /$$_____/      | $$  | $$| $$$$    | $$$$    | $$ /$$_____/| $$ |____  $$| $$      | $$       /$$__  $$| $$| $$ /$$__  $$ /$$_____/|_  $$_/  | $$ /$$__  $$| $$__  $$\n//     | $$   | $$  \\ $$| $$$$$$$$       \\____  $$| $$  \\ $$| $$ \\ $$ \\ $$| $$  | $$| $$  \\__/| $$_/  |  $$$$$$       | $$  | $$| $$_/    | $$_/    | $$| $$      | $$  /$$$$$$$| $$      | $$      | $$  \\ $$| $$| $$| $$$$$$$$| $$        | $$    | $$| $$  \\ $$| $$  \\ $$\n//     | $$   | $$  | $$| $$_____/       /$$  \\ $$| $$  | $$| $$ | $$ | $$| $$  | $$| $$      | $$     \\____  $$      | $$  | $$| $$      | $$      | $$| $$      | $$ /$$__  $$| $$      | $$    $$| $$  | $$| $$| $$| $$_____/| $$        | $$ /$$| $$| $$  | $$| $$  | $$\n//     | $$   | $$  | $$|  $$$$$$$      |  $$$$$$/| $$  | $$| $$ | $$ | $$|  $$$$$$/| $$      | $$     /$$$$$$$/      |  $$$$$$/| $$      | $$      | $$|  $$$$$$$| $$|  $$$$$$$| $$      |  $$$$$$/|  $$$$$$/| $$| $$|  $$$$$$$|  $$$$$$$  |  $$$$/| $$|  $$$$$$/| $$  | $$\n//     |__/   |__/  |__/ \\_______/       \\______/ |__/  |__/|__/ |__/ |__/ \\______/ |__/      |__/    |_______/        \\______/ |__/      |__/      |__/ \\_______/|__/ \\_______/|__/       \\______/  \\______/ |__/|__/ \\_______/ \\_______/   \\___/  |__/ \\______/ |__/  |__/\n//                                                                                                                                                                                                                                                                          \n//                                                                                                                                                                                                                                                                          \n//                                                                                                                                                                                                                                                                          \n\npragma solidity ^0.8.4;\n\nimport \"@openzeppelin/contracts/access/Ownable.sol\";\nimport \"./ERC721A.sol\";\n\ncontract TheShmurfs is Ownable, ERC721A {\n\n  enum Step {\n    Before,\n    WhitelistSale,\n    PublicSale,\n    After\n  }\n\n  Step public sellingStep;\n\n  string private baseURI;\n  string private unrevealedImageURL;\n  bool private revealed;\n\n  uint private constant MAX_SUPPLY          = 1000;\n  uint private constant PRICE_WHITELIST     = 0.08 ether;\n  uint private constant PRICE_PUBLIC        = 0.09 ether;\n  uint private constant MAX_WHITELIST_BATCH = 3;\n\n  address private fundWallet    = payable(0xe8a18cD415e54A99FCd2d89F52434dd8259926fb); // Owner Fund Wallet Address\n  address private devOneWallet  = payable(0xbC937543371F759867acf29A3391dEecF12f3d76); // Developer One Wallet Address\n\n  mapping(address => uint8) private whitelistBuyList;\n\n  constructor() ERC721A(\"The Shmurfs Official Collection\", \"SHMURFS\") {\n    sellingStep = Step.Before;\n    revealed = false;\n  }\n\n  modifier callerIsUser() {\n    require(tx.origin == msg.sender, \"The caller is another contract\");\n    _;\n  }\n\n  modifier whitelistSaleIsOpen() {\n    require(sellingStep == Step.WhitelistSale, \"Whitelist Sale is not activated\");\n    _;\n  }\n\n  modifier publicSaleIsOpen() {\n    require(sellingStep == Step.PublicSale, \"Public Sale is not activated\");\n    _;\n  }\n\n  function whitelistMint(uint8 quantity) external payable callerIsUser whitelistSaleIsOpen {\n    require(totalSupply() < MAX_SUPPLY, \"WHITELIST_SALE: Please go to the Opensea to buy The Shmurfs.\");\n    require(totalSupply() + quantity <= MAX_SUPPLY, \"WHITELIST_SALE: Max supply exceeded\");\n    require(whitelistBuyList[msg.sender] + quantity <= MAX_WHITELIST_BATCH, \"WHITELIST_SALE: You can not get more than 3 NFTs on the Whitelist Sale\");\n    require(msg.value >= PRICE_WHITELIST * quantity, \"WHITELIST_SALE: Not enough funds\");\n\n    whitelistBuyList[msg.sender] += quantity;\n    _safeMint(msg.sender, quantity);\n\n    refundIfOver(PRICE_WHITELIST * quantity);\n  }\n\n  function publicSaleMint(uint8 quantity) external payable callerIsUser publicSaleIsOpen{\n    require(totalSupply() < MAX_SUPPLY, \"PUBLIC_SALE: Please go to the Opensea to buy The Shmurfs.\");\n    require(totalSupply() + quantity <= MAX_SUPPLY, \"PUBLIC_SALE: Max supply exceeded\");\n    require(msg.value >= PRICE_PUBLIC * quantity, \"WHITELIST_SALE: Not enough funds\");\n\n    _safeMint(msg.sender, quantity);\n    refundIfOver(PRICE_PUBLIC * quantity);\n  }\n\n  function setStepAsBefore() external onlyOwner {\n    sellingStep = Step.Before;\n  }\n\n  function setStepAsWhitelistSale() external onlyOwner {\n    sellingStep = Step.WhitelistSale;\n  }\n\n  function setStepAsPublicSale() external onlyOwner {\n    sellingStep = Step.PublicSale;\n  }\n\n  function setStepAsAfter() external onlyOwner {\n    sellingStep = Step.After;\n  }\n\n  // metadata URI\n  function setUnrevealedImageURL(string calldata _imageURL) external onlyOwner {\n    unrevealedImageURL = _imageURL;\n  }\n\n  function setRevealed(bool _reveal) external onlyOwner {\n    revealed = _reveal;\n  }\n\n  function setBaseURI(string calldata _baseuri) external onlyOwner {\n    baseURI = _baseuri;\n  }\n\n  function _baseURI() internal view override returns (string memory) {\n    return baseURI;\n  }\n\n  function tokenURI(uint _tokenId) public view override returns (string memory) {\n    require(_exists(_tokenId), \"URI query for nonexistent token\");\n\n    if (revealed)\n      return super.tokenURI(_tokenId);\n    else\n      return unrevealedImageURL;\n  }\n\n  // fund\n  function withdrawAll() external onlyOwner {\n    uint totalBalance = address(this).balance;\n    require(totalBalance > 0, \"WITHDRAW: No balance in contract\");\n\n    uint devOneBalance = totalBalance / 10; // 10% of total sale\n    uint ownerBalance = totalBalance - devOneBalance; // 90% of total sale\n\n    _withdraw(devOneWallet, devOneBalance);\n    _withdraw(fundWallet, ownerBalance);\n  }\n\n  function _withdraw(address _address, uint _amount) private {\n    (bool success, ) = _address.call{value: _amount}(\"\");\n\n    require(success, \"WITHDRAW: Transfer failed.\");\n  }\n\n  function refundIfOver(uint price) private {\n    require(msg.value >= price, \"Need to send more ETH.\");\n\n    if (msg.value > price) {\n      payable(msg.sender).transfer(msg.value - price);\n    }\n  }\n\n  function getPrice() public view returns (uint) {\n    require(sellingStep != Step.Before, \"Sale not started yet\");\n    require(sellingStep != Step.After, \"Sale ended\");\n    if (sellingStep == Step.PublicSale)\n      return PRICE_PUBLIC;\n    else\n      return PRICE_WHITELIST;\n  }\n}",
  "sourcePath": "D:\\Development\\smurfs-minting-website-main\\contracts\\TheShmurfs.sol",
  "compiler": {
    "name": "solc",
    "version": "0.8.4+commit.c7e474f2.Emscripten.clang"
  },
  "schemaVersion": "3.4.4",
  "updatedAt": "2022-04-12T20:48:47.256Z",
  "devdoc": {
    "kind": "dev",
    "methods": {
      "approve(address,uint256)": {
        "details": "See {IERC721-approve}."
      },
      "balanceOf(address)": {
        "details": "See {IERC721-balanceOf}."
      },
      "getApproved(uint256)": {
        "details": "See {IERC721-getApproved}."
      },
      "isApprovedForAll(address,address)": {
        "details": "See {IERC721-isApprovedForAll}."
      },
      "name()": {
        "details": "See {IERC721Metadata-name}."
      },
      "owner()": {
        "details": "Returns the address of the current owner."
      },
      "ownerOf(uint256)": {
        "details": "See {IERC721-ownerOf}."
      },
      "renounceOwnership()": {
        "details": "Leaves the contract without owner. It will not be possible to call `onlyOwner` functions anymore. Can only be called by the current owner. NOTE: Renouncing ownership will leave the contract without an owner, thereby removing any functionality that is only available to the owner."
      },
      "safeTransferFrom(address,address,uint256)": {
        "details": "See {IERC721-safeTransferFrom}."
      },
      "safeTransferFrom(address,address,uint256,bytes)": {
        "details": "See {IERC721-safeTransferFrom}."
      },
      "setApprovalForAll(address,bool)": {
        "details": "See {IERC721-setApprovalForAll}."
      },
      "supportsInterface(bytes4)": {
        "details": "See {IERC165-supportsInterface}."
      },
      "symbol()": {
        "details": "See {IERC721Metadata-symbol}."
      },
      "transferFrom(address,address,uint256)": {
        "details": "See {IERC721-transferFrom}."
      },
      "transferOwnership(address)": {
        "details": "Transfers ownership of the contract to a new account (`newOwner`). Can only be called by the current owner."
      }
    },
    "version": 1
  },
  "userdoc": {
    "kind": "user",
    "methods": {},
    "version": 1
  }
}