{
  "contractName": "TheShmurfs",
  "abi": [
    {
      "inputs": [],
      "stateMutability": "nonpayable",
      "type": "constructor"
    },
    {
      "inputs": [],
      "name": "ApprovalCallerNotOwnerNorApproved",
      "type": "error"
    },
    {
      "inputs": [],
      "name": "ApprovalQueryForNonexistentToken",
      "type": "error"
    },
    {
      "inputs": [],
      "name": "ApprovalToCurrentOwner",
      "type": "error"
    },
    {
      "inputs": [],
      "name": "ApproveToCaller",
      "type": "error"
    },
    {
      "inputs": [],
      "name": "BalanceQueryForZeroAddress",
      "type": "error"
    },
    {
      "inputs": [],
      "name": "MintToZeroAddress",
      "type": "error"
    },
    {
      "inputs": [],
      "name": "MintZeroQuantity",
      "type": "error"
    },
    {
      "inputs": [],
      "name": "OwnerQueryForNonexistentToken",
      "type": "error"
    },
    {
      "inputs": [],
      "name": "TransferCallerNotOwnerNorApproved",
      "type": "error"
    },
    {
      "inputs": [],
      "name": "TransferFromIncorrectOwner",
      "type": "error"
    },
    {
      "inputs": [],
      "name": "TransferToNonERC721ReceiverImplementer",
      "type": "error"
    },
    {
      "inputs": [],
      "name": "TransferToZeroAddress",
      "type": "error"
    },
    {
      "inputs": [],
      "name": "URIQueryForNonexistentToken",
      "type": "error"
    },
    {
      "anonymous": false,
      "inputs": [
        {
          "indexed": true,
          "internalType": "address",
          "name": "owner",
          "type": "address"
        },
        {
          "indexed": true,
          "internalType": "address",
          "name": "approved",
          "type": "address"
        },
        {
          "indexed": true,
          "internalType": "uint256",
          "name": "tokenId",
          "type": "uint256"
        }
      ],
      "name": "Approval",
      "type": "event"
    },
    {
      "anonymous": false,
      "inputs": [
        {
          "indexed": true,
          "internalType": "address",
          "name": "owner",
          "type": "address"
        },
        {
          "indexed": true,
          "internalType": "address",
          "name": "operator",
          "type": "address"
        },
        {
          "indexed": false,
          "internalType": "bool",
          "name": "approved",
          "type": "bool"
        }
      ],
      "name": "ApprovalForAll",
      "type": "event"
    },
    {
      "anonymous": false,
      "inputs": [
        {
          "indexed": true,
          "internalType": "address",
          "name": "previousOwner",
          "type": "address"
        },
        {
          "indexed": true,
          "internalType": "address",
          "name": "newOwner",
          "type": "address"
        }
      ],
      "name": "OwnershipTransferred",
      "type": "event"
    },
    {
      "anonymous": false,
      "inputs": [
        {
          "indexed": true,
          "internalType": "address",
          "name": "from",
          "type": "address"
        },
        {
          "indexed": true,
          "internalType": "address",
          "name": "to",
          "type": "address"
        },
        {
          "indexed": true,
          "internalType": "uint256",
          "name": "tokenId",
          "type": "uint256"
        }
      ],
      "name": "Transfer",
      "type": "event"
    },
    {
      "inputs": [
        {
          "internalType": "address",
          "name": "to",
          "type": "address"
        },
        {
          "internalType": "uint256",
          "name": "tokenId",
          "type": "uint256"
        }
      ],
      "name": "approve",
      "outputs": [],
      "stateMutability": "nonpayable",
      "type": "function"
    },
    {
      "inputs": [
        {
          "internalType": "address",
          "name": "owner",
          "type": "address"
        }
      ],
      "name": "balanceOf",
      "outputs": [
        {
          "internalType": "uint256",
          "name": "",
          "type": "uint256"
        }
      ],
      "stateMutability": "view",
      "type": "function"
    },
    {
      "inputs": [
        {
          "internalType": "uint256",
          "name": "tokenId",
          "type": "uint256"
        }
      ],
      "name": "getApproved",
      "outputs": [
        {
          "internalType": "address",
          "name": "",
          "type": "address"
        }
      ],
      "stateMutability": "view",
      "type": "function"
    },
    {
      "inputs": [
        {
          "internalType": "address",
          "name": "owner",
          "type": "address"
        },
        {
          "internalType": "address",
          "name": "operator",
          "type": "address"
        }
      ],
      "name": "isApprovedForAll",
      "outputs": [
        {
          "internalType": "bool",
          "name": "",
          "type": "bool"
        }
      ],
      "stateMutability": "view",
      "type": "function"
    },
    {
      "inputs": [],
      "name": "name",
      "outputs": [
        {
          "internalType": "string",
          "name": "",
          "type": "string"
        }
      ],
      "stateMutability": "view",
      "type": "function"
    },
    {
      "inputs": [],
      "name": "owner",
      "outputs": [
        {
          "internalType": "address",
          "name": "",
          "type": "address"
        }
      ],
      "stateMutability": "view",
      "type": "function"
    },
    {
      "inputs": [
        {
          "internalType": "uint256",
          "name": "tokenId",
          "type": "uint256"
        }
      ],
      "name": "ownerOf",
      "outputs": [
        {
          "internalType": "address",
          "name": "",
          "type": "address"
        }
      ],
      "stateMutability": "view",
      "type": "function"
    },
    {
      "inputs": [],
      "name": "renounceOwnership",
      "outputs": [],
      "stateMutability": "nonpayable",
      "type": "function"
    },
    {
      "inputs": [
        {
          "internalType": "address",
          "name": "from",
          "type": "address"
        },
        {
          "internalType": "address",
          "name": "to",
          "type": "address"
        },
        {
          "internalType": "uint256",
          "name": "tokenId",
          "type": "uint256"
        }
      ],
      "name": "safeTransferFrom",
      "outputs": [],
      "stateMutability": "nonpayable",
      "type": "function"
    },
    {
      "inputs": [
        {
          "internalType": "address",
          "name": "from",
          "type": "address"
        },
        {
          "internalType": "address",
          "name": "to",
          "type": "address"
        },
        {
          "internalType": "uint256",
          "name": "tokenId",
          "type": "uint256"
        },
        {
          "internalType": "bytes",
          "name": "_data",
          "type": "bytes"
        }
      ],
      "name": "safeTransferFrom",
      "outputs": [],
      "stateMutability": "nonpayable",
      "type": "function"
    },
    {
      "inputs": [],
      "name": "sellingStep",
      "outputs": [
        {
          "internalType": "enum TheShmurfs.Step",
          "name": "",
          "type": "uint8"
        }
      ],
      "stateMutability": "view",
      "type": "function"
    },
    {
      "inputs": [
        {
          "internalType": "address",
          "name": "operator",
          "type": "address"
        },
        {
          "internalType": "bool",
          "name": "approved",
          "type": "bool"
        }
      ],
      "name": "setApprovalForAll",
      "outputs": [],
      "stateMutability": "nonpayable",
      "type": "function"
    },
    {
      "inputs": [
        {
          "internalType": "bytes4",
          "name": "interfaceId",
          "type": "bytes4"
        }
      ],
      "name": "supportsInterface",
      "outputs": [
        {
          "internalType": "bool",
          "name": "",
          "type": "bool"
        }
      ],
      "stateMutability": "view",
      "type": "function"
    },
    {
      "inputs": [],
      "name": "symbol",
      "outputs": [
        {
          "internalType": "string",
          "name": "",
          "type": "string"
        }
      ],
      "stateMutability": "view",
      "type": "function"
    },
    {
      "inputs": [
        {
          "internalType": "address",
          "name": "from",
          "type": "address"
        },
        {
          "internalType": "address",
          "name": "to",
          "type": "address"
        },
        {
          "internalType": "uint256",
          "name": "tokenId",
          "type": "uint256"
        }
      ],
      "name": "transferFrom",
      "outputs": [],
      "stateMutability": "nonpayable",
      "type": "function"
    },
    {
      "inputs": [
        {
          "internalType": "address",
          "name": "newOwner",
          "type": "address"
        }
      ],
      "name": "transferOwnership",
      "outputs": [],
      "stateMutability": "nonpayable",
      "type": "function"
    },
    {
      "inputs": [
        {
          "internalType": "uint8",
          "name": "quantity",
          "type": "uint8"
        },
        {
          "internalType": "string",
          "name": "mintPasskey_",
          "type": "string"
        }
      ],
      "name": "whitelistMint",
      "outputs": [],
      "stateMutability": "payable",
      "type": "function"
    },
    {
      "inputs": [
        {
          "internalType": "uint8",
          "name": "quantity",
          "type": "uint8"
        }
      ],
      "name": "publicSaleMint",
      "outputs": [],
      "stateMutability": "payable",
      "type": "function"
    },
    {
      "inputs": [
        {
          "internalType": "string",
          "name": "mintPasskey_",
          "type": "string"
        }
      ],
      "name": "setWhitelistMintPassKey",
      "outputs": [],
      "stateMutability": "nonpayable",
      "type": "function"
    },
    {
      "inputs": [],
      "name": "setStepAsBefore",
      "outputs": [],
      "stateMutability": "nonpayable",
      "type": "function"
    },
    {
      "inputs": [],
      "name": "setStepAsWhitelistSale",
      "outputs": [],
      "stateMutability": "nonpayable",
      "type": "function"
    },
    {
      "inputs": [],
      "name": "setStepAsPublicSale",
      "outputs": [],
      "stateMutability": "nonpayable",
      "type": "function"
    },
    {
      "inputs": [],
      "name": "setStepAsAfter",
      "outputs": [],
      "stateMutability": "nonpayable",
      "type": "function"
    },
    {
      "inputs": [
        {
          "internalType": "string",
          "name": "_imageURL",
          "type": "string"
        }
      ],
      "name": "setUnrevealedImageURL",
      "outputs": [],
      "stateMutability": "nonpayable",
      "type": "function"
    },
    {
      "inputs": [
        {
          "internalType": "bool",
          "name": "_reveal",
          "type": "bool"
        }
      ],
      "name": "setRevealed",
      "outputs": [],
      "stateMutability": "nonpayable",
      "type": "function"
    },
    {
      "inputs": [
        {
          "internalType": "string",
          "name": "_baseuri",
          "type": "string"
        }
      ],
      "name": "setBaseURI",
      "outputs": [],
      "stateMutability": "nonpayable",
      "type": "function"
    },
    {
      "inputs": [
        {
          "internalType": "uint256",
          "name": "_tokenId",
          "type": "uint256"
        }
      ],
      "name": "tokenURI",
      "outputs": [
        {
          "internalType": "string",
          "name": "",
          "type": "string"
        }
      ],
      "stateMutability": "view",
      "type": "function"
    },
    {
      "inputs": [],
      "name": "withdrawAll",
      "outputs": [],
      "stateMutability": "nonpayable",
      "type": "function"
    },
    {
      "inputs": [],
      "name": "getPrice",
      "outputs": [
        {
          "internalType": "uint256",
          "name": "",
          "type": "uint256"
        }
      ],
      "stateMutability": "view",
      "type": "function"
    },
    {
      "inputs": [
        {
          "internalType": "string",
          "name": "_string",
          "type": "string"
        }
      ],
      "name": "getHash",
      "outputs": [
        {
          "internalType": "string",
          "name": "",
          "type": "string"
        }
      ],
      "stateMutability": "pure",
      "type": "function"
    },
    {
      "inputs": [
        {
          "internalType": "bytes32",
          "name": "_bytes32",
          "type": "bytes32"
        }
      ],
      "name": "bytes32ToString",
      "outputs": [
        {
          "internalType": "string",
          "name": "",
          "type": "string"
        }
      ],
      "stateMutability": "pure",
      "type": "function"
    }
  ],
  "bytecode": "0x6080604052600c805474c7f9adaec08abb1ac05d8f8fd6015a0912b4339200610100600160a81b0319909116179055600d80546001600160a01b03191673bc937543371f759867acf29a3391deecf12f3d761790553480156200006157600080fd5b506040518060400160405280600b81526020016a5468652053686d7572667360a81b8152506040518060400160405280600781526020016653484d5552465360c81b815250620000c0620000ba6200014a60201b60201c565b6200014e565b8151620000d59060039060208501906200036b565b508051620000eb9060049060208401906200036b565b5050600060019081556009805460ff19908116909155600c8054909116905560408051808201909152908152600360fc1b60208201526200012d91506200019e565b80516200014391600e916020909101906200036b565b50620004b7565b3390565b600080546001600160a01b038381166001600160a01b0319831681178455604051919092169283917f8be0079c531659141344cd1fd0a4f28419497f9722a3daafe3b4186f6b6457e09190a35050565b6060620001d982604051602001620001b7919062000411565b60405160208183030381529060405280519060200120620001df60201b60201c565b92915050565b606060005b60208160ff16108015620002285750828160ff16602081106200021757634e487b7160e01b600052603260045260246000fd5b1a60f81b6001600160f81b03191615155b156200024357806200023a816200048a565b915050620001e4565b60008160ff166001600160401b038111156200026f57634e487b7160e01b600052604160045260246000fd5b6040519080825280601f01601f1916602001820160405280156200029a576020820181803683370190505b509050600091505b60208260ff16108015620002e65750838260ff1660208110620002d557634e487b7160e01b600052603260045260246000fd5b1a60f81b6001600160f81b03191615155b156200036457838260ff16602081106200031057634e487b7160e01b600052603260045260246000fd5b1a60f81b818360ff16815181106200033857634e487b7160e01b600052603260045260246000fd5b60200101906001600160f81b031916908160001a905350816200035b816200048a565b925050620002a2565b9392505050565b82805462000379906200044d565b90600052602060002090601f0160209004810192826200039d5760008555620003e8565b82601f10620003b857805160ff1916838001178555620003e8565b82800160010185558215620003e8579182015b82811115620003e8578251825591602001919060010190620003cb565b50620003f6929150620003fa565b5090565b5b80821115620003f65760008155600101620003fb565b60008251815b8181101562000433576020818601810151858301520162000417565b81811115620004425782828501525b509190910192915050565b600181811c908216806200046257607f821691505b602082108114156200048457634e487b7160e01b600052602260045260246000fd5b50919050565b600060ff821660ff811415620004ae57634e487b7160e01b82526011600452602482fd5b60010192915050565b6127df80620004c76000396000f3fe6080604052600436106101d85760003560e01c8063853828b611610102578063b88d4fde11610095578063cbccefb211610064578063cbccefb214610508578063e0a808531461052f578063e985e9c51461054f578063f2fde38b1461059857600080fd5b8063b88d4fde146104a0578063b8919df3146104c0578063c76df80e146104d5578063c87b56dd146104e857600080fd5b80639201de55116100d15780639201de551461043657806395d89b411461045657806398d5fdca1461046b578063a22cb4651461048057600080fd5b8063853828b6146103ce5780638d9ce5e1146103e35780638da5cb5b1461040357806390caedae1461042157600080fd5b806342842e0e1161017a5780636352211e116101495780636352211e14610356578063700760d21461037657806370a082311461038b578063715018a6146103b957600080fd5b806342842e0e146102e3578063487278aa1461030357806355f804b3146103165780635b6beeb91461033657600080fd5b8063095ea7b3116101b6578063095ea7b31461026c57806323b872dd1461028e5780632543bb85146102ae578063315a9b19146102c357600080fd5b806301ffc9a7146101dd57806306fdde0314610212578063081812fc14610234575b600080fd5b3480156101e957600080fd5b506101fd6101f836600461232f565b6105b8565b60405190151581526020015b60405180910390f35b34801561021e57600080fd5b5061022761060a565b60405161020991906125cc565b34801561024057600080fd5b5061025461024f366004612317565b61069c565b6040516001600160a01b039091168152602001610209565b34801561027857600080fd5b5061028c6102873660046122d4565b6106e0565b005b34801561029a57600080fd5b5061028c6102a93660046121f8565b61076e565b3480156102ba57600080fd5b5061028c610779565b3480156102cf57600080fd5b5061028c6102de366004612367565b6107c3565b3480156102ef57600080fd5b5061028c6102fe3660046121f8565b6107f9565b61028c610311366004612405565b610814565b34801561032257600080fd5b5061028c610331366004612367565b610c27565b34801561034257600080fd5b506102276103513660046123a6565b610c5d565b34801561036257600080fd5b50610254610371366004612317565b610c8e565b34801561038257600080fd5b5061028c610ca0565b34801561039757600080fd5b506103ab6103a63660046121ac565b610cde565b604051908152602001610209565b3480156103c557600080fd5b5061028c610d2c565b3480156103da57600080fd5b5061028c610d62565b3480156103ef57600080fd5b5061028c6103fe366004612367565b610e29565b34801561040f57600080fd5b506000546001600160a01b0316610254565b34801561042d57600080fd5b5061028c610e5f565b34801561044257600080fd5b50610227610451366004612317565b610e9d565b34801561046257600080fd5b50610227611019565b34801561047757600080fd5b506103ab611028565b34801561048c57600080fd5b5061028c61049b3660046122ab565b61113e565b3480156104ac57600080fd5b5061028c6104bb366004612233565b6111d4565b3480156104cc57600080fd5b5061028c611225565b61028c6104e33660046123eb565b611262565b3480156104f457600080fd5b50610227610503366004612317565b6114a0565b34801561051457600080fd5b506009546105229060ff1681565b60405161020991906125a4565b34801561053b57600080fd5b5061028c61054a3660046122fd565b6115a2565b34801561055b57600080fd5b506101fd61056a3660046121c6565b6001600160a01b03918216600090815260086020908152604080832093909416825291909152205460ff1690565b3480156105a457600080fd5b5061028c6105b33660046121ac565b6115df565b60006001600160e01b031982166380ac58cd60e01b14806105e957506001600160e01b03198216635b5e139f60e01b145b8061060457506301ffc9a760e01b6001600160e01b03198316145b92915050565b606060038054610619906126c7565b80601f0160208091040260200160405190810160405280929190818152602001828054610645906126c7565b80156106925780601f1061066757610100808354040283529160200191610692565b820191906000526020600020905b81548152906001019060200180831161067557829003601f168201915b5050505050905090565b60006106a782611677565b6106c4576040516333d1c03960e21b815260040160405180910390fd5b506000908152600760205260409020546001600160a01b031690565b60006106eb82610c8e565b9050806001600160a01b0316836001600160a01b031614156107205760405163250fdee360e21b815260040160405180910390fd5b336001600160a01b03821614801590610740575061073e813361056a565b155b1561075e576040516367d9dca160e11b815260040160405180910390fd5b6107698383836116a3565b505050565b6107698383836116ff565b6000546001600160a01b031633146107ac5760405162461bcd60e51b81526004016107a3906125df565b60405180910390fd5b600980546003919060ff19166001835b0217905550565b6000546001600160a01b031633146107ed5760405162461bcd60e51b81526004016107a3906125df565b610769600e8383612020565b610769838383604051806020016040528060008152506111d4565b3233146108635760405162461bcd60e51b815260206004820152601e60248201527f5468652063616c6c657220697320616e6f7468657220636f6e7472616374000060448201526064016107a3565b600160095460ff16600381111561088a57634e487b7160e01b600052602160045260246000fd5b146108d75760405162461bcd60e51b815260206004820152601f60248201527f57686974656c6973742053616c65206973206e6f74206163746976617465640060448201526064016107a3565b61091682828080601f016020809104026020016040519081016040528093929190818152602001838380828437600092019190915250610c5d92505050565b6040516020016109269190612481565b60405160208183030381529060405280519060200120600e60405160200161094e91906124cc565b60405160208183030381529060405280519060200120146109bd5760405162461bcd60e51b815260206004820152602360248201527f57484954454c4953545f53414c453a20506173736b6579206e6f7420636f72726044820152621958dd60ea1b60648201526084016107a3565b6103e86109cd6002546001540390565b10610a405760405162461bcd60e51b815260206004820152603c60248201527f57484954454c4953545f53414c453a20506c6561736520676f20746f2074686560448201527f204f70656e73656120746f20627579205468652053686d757266732e0000000060648201526084016107a3565b6103e88360ff16610a546002546001540390565b610a5e9190612614565b1115610ab85760405162461bcd60e51b815260206004820152602360248201527f57484954454c4953545f53414c453a204d617820737570706c7920657863656560448201526219195960ea1b60648201526084016107a3565b336000908152600f6020526040902054600390610ad990859060ff1661262c565b60ff161115610b5f5760405162461bcd60e51b815260206004820152604660248201527f57484954454c4953545f53414c453a20596f752063616e206e6f74206765742060448201527f6d6f7265207468616e2033204e465473206f6e207468652057686974656c6973606482015265742053616c6560d01b608482015260a4016107a3565b610b7460ff841667011c37937e080000612665565b341015610bc35760405162461bcd60e51b815260206004820181905260248201527f57484954454c4953545f53414c453a204e6f7420656e6f7567682066756e647360448201526064016107a3565b336000908152600f602052604081208054859290610be590849060ff1661262c565b92506101000a81548160ff021916908360ff160217905550610c0a338460ff166118ed565b610769610c2260ff851667011c37937e080000612665565b61190b565b6000546001600160a01b03163314610c515760405162461bcd60e51b81526004016107a3906125df565b610769600a8383612020565b606061060482604051602001610c739190612481565b60405160208183030381529060405280519060200120610e9d565b6000610c9982611992565b5192915050565b6000546001600160a01b03163314610cca5760405162461bcd60e51b81526004016107a3906125df565b600980546000919060ff19166001836107bc565b60006001600160a01b038216610d07576040516323d3ad8160e21b815260040160405180910390fd5b506001600160a01b03166000908152600660205260409020546001600160401b031690565b6000546001600160a01b03163314610d565760405162461bcd60e51b81526004016107a3906125df565b610d606000611aac565b565b6000546001600160a01b03163314610d8c5760405162461bcd60e51b81526004016107a3906125df565b4780610dda5760405162461bcd60e51b815260206004820181905260248201527f57495448445241573a204e6f2062616c616e636520696e20636f6e747261637460448201526064016107a3565b6000610de7600a83612651565b90506000610df58284612684565b600d54909150610e0e906001600160a01b031683611afc565b600c546107699061010090046001600160a01b031682611afc565b6000546001600160a01b03163314610e535760405162461bcd60e51b81526004016107a3906125df565b610769600b8383612020565b6000546001600160a01b03163314610e895760405162461bcd60e51b81526004016107a3906125df565b600980546002919060ff19166001836107bc565b606060005b60208160ff16108015610ee45750828160ff1660208110610ed357634e487b7160e01b600052603260045260246000fd5b1a60f81b6001600160f81b03191615155b15610efb5780610ef38161271d565b915050610ea2565b60008160ff166001600160401b03811115610f2657634e487b7160e01b600052604160045260246000fd5b6040519080825280601f01601f191660200182016040528015610f50576020820181803683370190505b509050600091505b60208260ff16108015610f9a5750838260ff1660208110610f8957634e487b7160e01b600052603260045260246000fd5b1a60f81b6001600160f81b03191615155b1561101257838260ff1660208110610fc257634e487b7160e01b600052603260045260246000fd5b1a60f81b818360ff1681518110610fe957634e487b7160e01b600052603260045260246000fd5b60200101906001600160f81b031916908160001a9053508161100a8161271d565b925050610f58565b9392505050565b606060048054610619906126c7565b60008060095460ff16600381111561105057634e487b7160e01b600052602160045260246000fd5b14156110955760405162461bcd60e51b815260206004820152601460248201527314d85b19481b9bdd081cdd185c9d1959081e595d60621b60448201526064016107a3565b600360095460ff1660038111156110bc57634e487b7160e01b600052602160045260246000fd5b14156110f75760405162461bcd60e51b815260206004820152600a60248201526914d85b1948195b99195960b21b60448201526064016107a3565b600260095460ff16600381111561111e57634e487b7160e01b600052602160045260246000fd5b1415611131575067013fbe85edc9000090565b5067011c37937e08000090565b6001600160a01b0382163314156111685760405163b06307db60e01b815260040160405180910390fd5b3360008181526008602090815260408083206001600160a01b03871680855290835292819020805460ff191686151590811790915590519081529192917f17307eab39ab6107e8899845ad3d59bd9653f200f220920489ca2b5937696c31910160405180910390a35050565b6111df8484846116ff565b6001600160a01b0383163b1515801561120157506111ff84848484611b9f565b155b1561121f576040516368d2bf6b60e11b815260040160405180910390fd5b50505050565b6000546001600160a01b0316331461124f5760405162461bcd60e51b81526004016107a3906125df565b600980546001919060ff191682806107bc565b3233146112b15760405162461bcd60e51b815260206004820152601e60248201527f5468652063616c6c657220697320616e6f7468657220636f6e7472616374000060448201526064016107a3565b600260095460ff1660038111156112d857634e487b7160e01b600052602160045260246000fd5b146113255760405162461bcd60e51b815260206004820152601c60248201527f5075626c69632053616c65206973206e6f74206163746976617465640000000060448201526064016107a3565b6103e86113356002546001540390565b106113a85760405162461bcd60e51b815260206004820152603960248201527f5055424c49435f53414c453a20506c6561736520676f20746f20746865204f7060448201527f656e73656120746f20627579205468652053686d757266732e0000000000000060648201526084016107a3565b6103e88160ff166113bc6002546001540390565b6113c69190612614565b11156114145760405162461bcd60e51b815260206004820181905260248201527f5055424c49435f53414c453a204d617820737570706c7920657863656564656460448201526064016107a3565b61142960ff821667013fbe85edc90000612665565b3410156114785760405162461bcd60e51b815260206004820181905260248201527f57484954454c4953545f53414c453a204e6f7420656e6f7567682066756e647360448201526064016107a3565b611485338260ff166118ed565b61149d610c2260ff831667013fbe85edc90000612665565b50565b60606114ab82611677565b6114f75760405162461bcd60e51b815260206004820152601f60248201527f55524920717565727920666f72206e6f6e6578697374656e7420746f6b656e0060448201526064016107a3565b600c5460ff161561150b5761060482611c97565b600b8054611518906126c7565b80601f0160208091040260200160405190810160405280929190818152602001828054611544906126c7565b80156115915780601f1061156657610100808354040283529160200191611591565b820191906000526020600020905b81548152906001019060200180831161157457829003601f168201915b50505050509050919050565b919050565b6000546001600160a01b031633146115cc5760405162461bcd60e51b81526004016107a3906125df565b600c805460ff1916911515919091179055565b6000546001600160a01b031633146116095760405162461bcd60e51b81526004016107a3906125df565b6001600160a01b03811661166e5760405162461bcd60e51b815260206004820152602660248201527f4f776e61626c653a206e6577206f776e657220697320746865207a65726f206160448201526564647265737360d01b60648201526084016107a3565b61149d81611aac565b600060015482108015610604575050600090815260056020526040902054600160e01b900460ff161590565b60008281526007602052604080822080546001600160a01b0319166001600160a01b0387811691821790925591518593918516917f8c5be1e5ebec7d5bd14f71427d1e84f3dd0314c0f7b2291e5b200ac8c7c3b92591a4505050565b600061170a82611992565b9050836001600160a01b031681600001516001600160a01b0316146117415760405162a1148160e81b815260040160405180910390fd5b6000336001600160a01b038616148061175f575061175f853361056a565b8061177a57503361176f8461069c565b6001600160a01b0316145b90508061179a57604051632ce44b5f60e11b815260040160405180910390fd5b6001600160a01b0384166117c157604051633a954ecd60e21b815260040160405180910390fd5b6117cd600084876116a3565b6001600160a01b038581166000908152600660209081526040808320805467ffffffffffffffff198082166001600160401b0392831660001901831617909255898616808652838620805493841693831660019081018416949094179055898652600590945282852080546001600160e01b031916909417600160a01b429092169190910217835587018084529220805491939091166118a15760015482146118a157805460208601516001600160401b0316600160a01b026001600160e01b03199091166001600160a01b038a16171781555b50505082846001600160a01b0316866001600160a01b03167fddf252ad1be2c89b69c2b068fc378daa952ba7f163c4a11628f55a4df523b3ef60405160405180910390a45b5050505050565b611907828260405180602001604052806000815250611d1b565b5050565b803410156119545760405162461bcd60e51b81526020600482015260166024820152752732b2b2103a379039b2b7321036b7b9329022aa241760511b60448201526064016107a3565b8034111561149d57336108fc61196a8334612684565b6040518115909202916000818181858888f19350505050158015611907573d6000803e3d6000fd5b604080516060810182526000808252602082018190529181019190915281600154811015611a9357600081815260056020908152604091829020825160608101845290546001600160a01b0381168252600160a01b81046001600160401b031692820192909252600160e01b90910460ff16151591810182905290611a915780516001600160a01b031615611a28579392505050565b5060001901600081815260056020908152604091829020825160608101845290546001600160a01b038116808352600160a01b82046001600160401b031693830193909352600160e01b900460ff1615159281019290925215611a8c579392505050565b611a28565b505b604051636f96cda160e11b815260040160405180910390fd5b600080546001600160a01b038381166001600160a01b0319831681178455604051919092169283917f8be0079c531659141344cd1fd0a4f28419497f9722a3daafe3b4186f6b6457e09190a35050565b6000826001600160a01b03168260405160006040518083038185875af1925050503d8060008114611b49576040519150601f19603f3d011682016040523d82523d6000602084013e611b4e565b606091505b50509050806107695760405162461bcd60e51b815260206004820152601a60248201527f57495448445241573a205472616e73666572206661696c65642e00000000000060448201526064016107a3565b604051630a85bd0160e11b81526000906001600160a01b0385169063150b7a0290611bd4903390899088908890600401612567565b602060405180830381600087803b158015611bee57600080fd5b505af1925050508015611c1e575060408051601f3d908101601f19168201909252611c1b9181019061234b565b60015b611c79573d808015611c4c576040519150601f19603f3d011682016040523d82523d6000602084013e611c51565b606091505b508051611c71576040516368d2bf6b60e11b815260040160405180910390fd5b805181602001fd5b6001600160e01b031916630a85bd0160e11b1490505b949350505050565b6060611ca282611677565b611cbf57604051630a14c4b560e41b815260040160405180910390fd5b6000611cc9611d28565b9050805160001415611cea5760405180602001604052806000815250611012565b80611cf484611d37565b604051602001611d0592919061249d565b6040516020818303038152906040529392505050565b6107698383836001611e50565b6060600a8054610619906126c7565b606081611d5b5750506040805180820190915260018152600360fc1b602082015290565b8160005b8115611d855780611d6f81612702565b9150611d7e9050600a83612651565b9150611d5f565b6000816001600160401b03811115611dad57634e487b7160e01b600052604160045260246000fd5b6040519080825280601f01601f191660200182016040528015611dd7576020820181803683370190505b5090505b8415611c8f57611dec600183612684565b9150611df9600a8661273d565b611e04906030612614565b60f81b818381518110611e2757634e487b7160e01b600052603260045260246000fd5b60200101906001600160f81b031916908160001a905350611e49600a86612651565b9450611ddb565b6001546001600160a01b038516611e7957604051622e076360e81b815260040160405180910390fd5b83611e975760405163b562e8dd60e01b815260040160405180910390fd5b6001600160a01b038516600081815260066020908152604080832080546fffffffffffffffffffffffffffffffff1981166001600160401b038083168c0181169182176801000000000000000067ffffffffffffffff1990941690921783900481168c01811690920217909155858452600590925290912080546001600160e01b031916909217600160a01b429092169190910217905580808501838015611f4857506001600160a01b0387163b15155b15611fd1575b60405182906001600160a01b038916906000907fddf252ad1be2c89b69c2b068fc378daa952ba7f163c4a11628f55a4df523b3ef908290a4611f996000888480600101955088611b9f565b611fb6576040516368d2bf6b60e11b815260040160405180910390fd5b80821415611f4e578260015414611fcc57600080fd5b612017565b5b6040516001830192906001600160a01b038916906000907fddf252ad1be2c89b69c2b068fc378daa952ba7f163c4a11628f55a4df523b3ef908290a480821415611fd2575b506001556118e6565b82805461202c906126c7565b90600052602060002090601f01602090048101928261204e5760008555612094565b82601f106120675782800160ff19823516178555612094565b82800160010185558215612094579182015b82811115612094578235825591602001919060010190612079565b506120a09291506120a4565b5090565b5b808211156120a057600081556001016120a5565b60006001600160401b03808411156120d3576120d361277d565b604051601f8501601f19908116603f011681019082821181831017156120fb576120fb61277d565b8160405280935085815286868601111561211457600080fd5b858560208301376000602087830101525050509392505050565b80356001600160a01b038116811461159d57600080fd5b8035801515811461159d57600080fd5b60008083601f840112612166578182fd5b5081356001600160401b0381111561217c578182fd5b60208301915083602082850101111561219457600080fd5b9250929050565b803560ff8116811461159d57600080fd5b6000602082840312156121bd578081fd5b6110128261212e565b600080604083850312156121d8578081fd5b6121e18361212e565b91506121ef6020840161212e565b90509250929050565b60008060006060848603121561220c578081fd5b6122158461212e565b92506122236020850161212e565b9150604084013590509250925092565b60008060008060808587031215612248578081fd5b6122518561212e565b935061225f6020860161212e565b92506040850135915060608501356001600160401b03811115612280578182fd5b8501601f81018713612290578182fd5b61229f878235602084016120b9565b91505092959194509250565b600080604083850312156122bd578182fd5b6122c68361212e565b91506121ef60208401612145565b600080604083850312156122e6578182fd5b6122ef8361212e565b946020939093013593505050565b60006020828403121561230e578081fd5b61101282612145565b600060208284031215612328578081fd5b5035919050565b600060208284031215612340578081fd5b813561101281612793565b60006020828403121561235c578081fd5b815161101281612793565b60008060208385031215612379578182fd5b82356001600160401b0381111561238e578283fd5b61239a85828601612155565b90969095509350505050565b6000602082840312156123b7578081fd5b81356001600160401b038111156123cc578182fd5b8201601f810184136123dc578182fd5b611c8f848235602084016120b9565b6000602082840312156123fc578081fd5b6110128261219b565b600080600060408486031215612419578081fd5b6124228461219b565b925060208401356001600160401b0381111561243c578182fd5b61244886828701612155565b9497909650939450505050565b6000815180845261246d81602086016020860161269b565b601f01601f19169290920160200192915050565b6000825161249381846020870161269b565b9190910192915050565b600083516124af81846020880161269b565b8351908301906124c381836020880161269b565b01949350505050565b600080835482600182811c9150808316806124e857607f831692505b602080841082141561250857634e487b7160e01b87526022600452602487fd5b81801561251c576001811461252d57612559565b60ff19861689528489019650612559565b60008a815260209020885b868110156125515781548b820152908501908301612538565b505084890196505b509498975050505050505050565b6001600160a01b038581168252841660208201526040810183905260806060820181905260009061259a90830184612455565b9695505050505050565b60208101600483106125c657634e487b7160e01b600052602160045260246000fd5b91905290565b6020815260006110126020830184612455565b6020808252818101527f4f776e61626c653a2063616c6c6572206973206e6f7420746865206f776e6572604082015260600190565b6000821982111561262757612627612751565b500190565b600060ff821660ff84168060ff0382111561264957612649612751565b019392505050565b60008261266057612660612767565b500490565b600081600019048311821515161561267f5761267f612751565b500290565b60008282101561269657612696612751565b500390565b60005b838110156126b657818101518382015260200161269e565b8381111561121f5750506000910152565b600181811c908216806126db57607f821691505b602082108114156126fc57634e487b7160e01b600052602260045260246000fd5b50919050565b600060001982141561271657612716612751565b5060010190565b600060ff821660ff81141561273457612734612751565b60010192915050565b60008261274c5761274c612767565b500690565b634e487b7160e01b600052601160045260246000fd5b634e487b7160e01b600052601260045260246000fd5b634e487b7160e01b600052604160045260246000fd5b6001600160e01b03198116811461149d57600080fdfea26469706673582212205ad912ea285c53b50b2947a4b2747fe18a525d98e3cb85cf9382cf2d068bd2f564736f6c63430008040033",
  "immutableReferences": {},
  "source": "// SPDX-License-Identifier: MIT\n\n\n//                 \n//              \n//                   \n//                   \n//                         \n//                              \n\npragma solidity ^0.8.4;\n\nimport \"@openzeppelin/contracts/access/Ownable.sol\";\nimport \"./ERC721A.sol\";\n\ncontract TheShmurfs is Ownable, ERC721A {\n\n  enum Step {\n    Before,\n    WhitelistSale,\n    PublicSale,\n    After\n  }\n\n  Step public sellingStep;\n\n  string private baseURI;\n  string private unrevealedImageURL;\n  bool private revealed;\n\n  uint private constant MAX_SUPPLY          = 1000;\n  uint private constant PRICE_WHITELIST     = 0.08 ether;\n  uint private constant PRICE_PUBLIC        = 0.09 ether;\n  uint private constant MAX_WHITELIST_BATCH = 3;\n\n  address private fundWallet    = payable(0xc7f9aDaec08aBB1ac05d8f8Fd6015A0912b43392); // Owner Fund Wallet Address\n  address private devOneWallet  = payable(0xbC937543371F759867acf29A3391dEecF12f3d76); // Developer One Wallet Address\n\n  string private whitelistMintPassKey;\n\n  mapping(address => uint8) private whitelistBuyList;\n\n  constructor() ERC721A(\"The Shmurfs\", \"SHMURFS\") {\n    sellingStep = Step.Before;\n    revealed = false;\n    whitelistMintPassKey = getHash(\"0\");\n  }\n\n  modifier callerIsUser() {\n    require(tx.origin == msg.sender, \"The caller is another contract\");\n    _;\n  }\n\n  modifier whitelistSaleIsOpen() {\n    require(sellingStep == Step.WhitelistSale, \"Whitelist Sale is not activated\");\n    _;\n  }\n\n  modifier publicSaleIsOpen() {\n    require(sellingStep == Step.PublicSale, \"Public Sale is not activated\");\n    _;\n  }\n\n  function whitelistMint(uint8 quantity, string calldata mintPasskey_) external payable callerIsUser whitelistSaleIsOpen {\n    require(keccak256(abi.encodePacked(whitelistMintPassKey)) == keccak256(abi.encodePacked(getHash(mintPasskey_))), \"WHITELIST_SALE: Passkey not correct\");\n    require(totalSupply() < MAX_SUPPLY, \"WHITELIST_SALE: Please go to the Opensea to buy The Shmurfs.\");\n    require(totalSupply() + quantity <= MAX_SUPPLY, \"WHITELIST_SALE: Max supply exceeded\");\n    require(whitelistBuyList[msg.sender] + quantity <= MAX_WHITELIST_BATCH, \"WHITELIST_SALE: You can not get more than 3 NFTs on the Whitelist Sale\");\n    require(msg.value >= PRICE_WHITELIST * quantity, \"WHITELIST_SALE: Not enough funds\");\n\n    whitelistBuyList[msg.sender] += quantity;\n    _safeMint(msg.sender, quantity);\n\n    refundIfOver(PRICE_WHITELIST * quantity);\n  }\n\n  function publicSaleMint(uint8 quantity) external payable callerIsUser publicSaleIsOpen{\n    require(totalSupply() < MAX_SUPPLY, \"PUBLIC_SALE: Please go to the Opensea to buy The Shmurfs.\");\n    require(totalSupply() + quantity <= MAX_SUPPLY, \"PUBLIC_SALE: Max supply exceeded\");\n    require(msg.value >= PRICE_PUBLIC * quantity, \"WHITELIST_SALE: Not enough funds\");\n\n    _safeMint(msg.sender, quantity);\n    refundIfOver(PRICE_PUBLIC * quantity);\n  }\n\n  function setWhitelistMintPassKey(string calldata mintPasskey_) external onlyOwner {\n    whitelistMintPassKey = mintPasskey_;\n  }\n\n  function setStepAsBefore() external onlyOwner {\n    sellingStep = Step.Before;\n  }\n\n  function setStepAsWhitelistSale() external onlyOwner {\n    sellingStep = Step.WhitelistSale;\n  }\n\n  function setStepAsPublicSale() external onlyOwner {\n    sellingStep = Step.PublicSale;\n  }\n\n  function setStepAsAfter() external onlyOwner {\n    sellingStep = Step.After;\n  }\n\n  // metadata URI\n  function setUnrevealedImageURL(string calldata _imageURL) external onlyOwner {\n    unrevealedImageURL = _imageURL;\n  }\n\n  function setRevealed(bool _reveal) external onlyOwner {\n    revealed = _reveal;\n  }\n\n  function setBaseURI(string calldata _baseuri) external onlyOwner {\n    baseURI = _baseuri;\n  }\n\n  function _baseURI() internal view override returns (string memory) {\n    return baseURI;\n  }\n\n  function tokenURI(uint _tokenId) public view override returns (string memory) {\n    require(_exists(_tokenId), \"URI query for nonexistent token\");\n\n    if (revealed)\n      return super.tokenURI(_tokenId);\n    else\n      return unrevealedImageURL;\n  }\n\n  // fund\n  function withdrawAll() external onlyOwner {\n    uint totalBalance = address(this).balance;\n    require(totalBalance > 0, \"WITHDRAW: No balance in contract\");\n\n    uint devOneBalance = totalBalance / 10; // 10% of total sale\n    uint ownerBalance = totalBalance - devOneBalance; // 90% of total sale\n\n    _withdraw(devOneWallet, devOneBalance);\n    _withdraw(fundWallet, ownerBalance);\n  }\n\n  function _withdraw(address _address, uint _amount) private {\n    (bool success, ) = _address.call{value: _amount}(\"\");\n\n    require(success, \"WITHDRAW: Transfer failed.\");\n  }\n\n  function refundIfOver(uint price) private {\n    require(msg.value >= price, \"Need to send more ETH.\");\n\n    if (msg.value > price) {\n      payable(msg.sender).transfer(msg.value - price);\n    }\n  }\n\n  function getPrice() public view returns (uint) {\n    require(sellingStep != Step.Before, \"Sale not started yet\");\n    require(sellingStep != Step.After, \"Sale ended\");\n    if (sellingStep == Step.PublicSale)\n      return PRICE_PUBLIC;\n    else\n      return PRICE_WHITELIST;\n  }\n\n  // Security for whitelist\n  function getHash(string memory _string) public pure returns(string memory) {\n     return bytes32ToString(keccak256(abi.encodePacked(_string)));\n  }\n\n  function bytes32ToString(bytes32 _bytes32) public pure returns (string memory) {\n    uint8 i = 0;\n    while(i < 32 && _bytes32[i] != 0) {\n        i++;\n    }\n    bytes memory bytesArray = new bytes(i);\n    for (i = 0; i < 32 && _bytes32[i] != 0; i++) {\n        bytesArray[i] = _bytes32[i];\n    }\n    return string(bytesArray);\n  }\n}",
  "sourcePath": "D:\\Development\\smurfs-minting-website-main\\contracts\\TheShmurfs.sol",
  "compiler": {
    "name": "solc",
    "version": "0.8.4+commit.c7e474f2.Emscripten.clang"
  },
  "schemaVersion": "3.4.4",
  "updatedAt": "2022-04-11T22:45:48.322Z",
  "devdoc": {
    "kind": "dev",
    "methods": {
      "approve(address,uint256)": {
        "details": "See {IERC721-approve}."
      },
      "balanceOf(address)": {
        "details": "See {IERC721-balanceOf}."
      },
      "getApproved(uint256)": {
        "details": "See {IERC721-getApproved}."
      },
      "isApprovedForAll(address,address)": {
        "details": "See {IERC721-isApprovedForAll}."
      },
      "name()": {
        "details": "See {IERC721Metadata-name}."
      },
      "owner()": {
        "details": "Returns the address of the current owner."
      },
      "ownerOf(uint256)": {
        "details": "See {IERC721-ownerOf}."
      },
      "renounceOwnership()": {
        "details": "Leaves the contract without owner. It will not be possible to call `onlyOwner` functions anymore. Can only be called by the current owner. NOTE: Renouncing ownership will leave the contract without an owner, thereby removing any functionality that is only available to the owner."
      },
      "safeTransferFrom(address,address,uint256)": {
        "details": "See {IERC721-safeTransferFrom}."
      },
      "safeTransferFrom(address,address,uint256,bytes)": {
        "details": "See {IERC721-safeTransferFrom}."
      },
      "setApprovalForAll(address,bool)": {
        "details": "See {IERC721-setApprovalForAll}."
      },
      "supportsInterface(bytes4)": {
        "details": "See {IERC165-supportsInterface}."
      },
      "symbol()": {
        "details": "See {IERC721Metadata-symbol}."
      },
      "transferFrom(address,address,uint256)": {
        "details": "See {IERC721-transferFrom}."
      },
      "transferOwnership(address)": {
        "details": "Transfers ownership of the contract to a new account (`newOwner`). Can only be called by the current owner."
      }
    },
    "version": 1
  },
  "userdoc": {
    "kind": "user",
    "methods": {},
    "version": 1
  }
}