{
  "contractName": "TheShmurfs",
  "abi": [
    {
      "inputs": [],
      "stateMutability": "nonpayable",
      "type": "constructor"
    },
    {
      "inputs": [],
      "name": "ApprovalCallerNotOwnerNorApproved",
      "type": "error"
    },
    {
      "inputs": [],
      "name": "ApprovalQueryForNonexistentToken",
      "type": "error"
    },
    {
      "inputs": [],
      "name": "ApprovalToCurrentOwner",
      "type": "error"
    },
    {
      "inputs": [],
      "name": "ApproveToCaller",
      "type": "error"
    },
    {
      "inputs": [],
      "name": "BalanceQueryForZeroAddress",
      "type": "error"
    },
    {
      "inputs": [],
      "name": "MintToZeroAddress",
      "type": "error"
    },
    {
      "inputs": [],
      "name": "MintZeroQuantity",
      "type": "error"
    },
    {
      "inputs": [],
      "name": "OwnerQueryForNonexistentToken",
      "type": "error"
    },
    {
      "inputs": [],
      "name": "TransferCallerNotOwnerNorApproved",
      "type": "error"
    },
    {
      "inputs": [],
      "name": "TransferFromIncorrectOwner",
      "type": "error"
    },
    {
      "inputs": [],
      "name": "TransferToNonERC721ReceiverImplementer",
      "type": "error"
    },
    {
      "inputs": [],
      "name": "TransferToZeroAddress",
      "type": "error"
    },
    {
      "inputs": [],
      "name": "URIQueryForNonexistentToken",
      "type": "error"
    },
    {
      "anonymous": false,
      "inputs": [
        {
          "indexed": true,
          "internalType": "address",
          "name": "owner",
          "type": "address"
        },
        {
          "indexed": true,
          "internalType": "address",
          "name": "approved",
          "type": "address"
        },
        {
          "indexed": true,
          "internalType": "uint256",
          "name": "tokenId",
          "type": "uint256"
        }
      ],
      "name": "Approval",
      "type": "event"
    },
    {
      "anonymous": false,
      "inputs": [
        {
          "indexed": true,
          "internalType": "address",
          "name": "owner",
          "type": "address"
        },
        {
          "indexed": true,
          "internalType": "address",
          "name": "operator",
          "type": "address"
        },
        {
          "indexed": false,
          "internalType": "bool",
          "name": "approved",
          "type": "bool"
        }
      ],
      "name": "ApprovalForAll",
      "type": "event"
    },
    {
      "anonymous": false,
      "inputs": [
        {
          "indexed": true,
          "internalType": "address",
          "name": "previousOwner",
          "type": "address"
        },
        {
          "indexed": true,
          "internalType": "address",
          "name": "newOwner",
          "type": "address"
        }
      ],
      "name": "OwnershipTransferred",
      "type": "event"
    },
    {
      "anonymous": false,
      "inputs": [
        {
          "indexed": true,
          "internalType": "address",
          "name": "from",
          "type": "address"
        },
        {
          "indexed": true,
          "internalType": "address",
          "name": "to",
          "type": "address"
        },
        {
          "indexed": true,
          "internalType": "uint256",
          "name": "tokenId",
          "type": "uint256"
        }
      ],
      "name": "Transfer",
      "type": "event"
    },
    {
      "inputs": [
        {
          "internalType": "address",
          "name": "to",
          "type": "address"
        },
        {
          "internalType": "uint256",
          "name": "tokenId",
          "type": "uint256"
        }
      ],
      "name": "approve",
      "outputs": [],
      "stateMutability": "nonpayable",
      "type": "function"
    },
    {
      "inputs": [
        {
          "internalType": "address",
          "name": "owner",
          "type": "address"
        }
      ],
      "name": "balanceOf",
      "outputs": [
        {
          "internalType": "uint256",
          "name": "",
          "type": "uint256"
        }
      ],
      "stateMutability": "view",
      "type": "function"
    },
    {
      "inputs": [
        {
          "internalType": "uint256",
          "name": "tokenId",
          "type": "uint256"
        }
      ],
      "name": "getApproved",
      "outputs": [
        {
          "internalType": "address",
          "name": "",
          "type": "address"
        }
      ],
      "stateMutability": "view",
      "type": "function"
    },
    {
      "inputs": [
        {
          "internalType": "address",
          "name": "owner",
          "type": "address"
        },
        {
          "internalType": "address",
          "name": "operator",
          "type": "address"
        }
      ],
      "name": "isApprovedForAll",
      "outputs": [
        {
          "internalType": "bool",
          "name": "",
          "type": "bool"
        }
      ],
      "stateMutability": "view",
      "type": "function"
    },
    {
      "inputs": [],
      "name": "name",
      "outputs": [
        {
          "internalType": "string",
          "name": "",
          "type": "string"
        }
      ],
      "stateMutability": "view",
      "type": "function"
    },
    {
      "inputs": [],
      "name": "owner",
      "outputs": [
        {
          "internalType": "address",
          "name": "",
          "type": "address"
        }
      ],
      "stateMutability": "view",
      "type": "function"
    },
    {
      "inputs": [
        {
          "internalType": "uint256",
          "name": "tokenId",
          "type": "uint256"
        }
      ],
      "name": "ownerOf",
      "outputs": [
        {
          "internalType": "address",
          "name": "",
          "type": "address"
        }
      ],
      "stateMutability": "view",
      "type": "function"
    },
    {
      "inputs": [],
      "name": "renounceOwnership",
      "outputs": [],
      "stateMutability": "nonpayable",
      "type": "function"
    },
    {
      "inputs": [
        {
          "internalType": "address",
          "name": "from",
          "type": "address"
        },
        {
          "internalType": "address",
          "name": "to",
          "type": "address"
        },
        {
          "internalType": "uint256",
          "name": "tokenId",
          "type": "uint256"
        }
      ],
      "name": "safeTransferFrom",
      "outputs": [],
      "stateMutability": "nonpayable",
      "type": "function"
    },
    {
      "inputs": [
        {
          "internalType": "address",
          "name": "from",
          "type": "address"
        },
        {
          "internalType": "address",
          "name": "to",
          "type": "address"
        },
        {
          "internalType": "uint256",
          "name": "tokenId",
          "type": "uint256"
        },
        {
          "internalType": "bytes",
          "name": "_data",
          "type": "bytes"
        }
      ],
      "name": "safeTransferFrom",
      "outputs": [],
      "stateMutability": "nonpayable",
      "type": "function"
    },
    {
      "inputs": [],
      "name": "sellingStep",
      "outputs": [
        {
          "internalType": "enum TheShmurfs.Step",
          "name": "",
          "type": "uint8"
        }
      ],
      "stateMutability": "view",
      "type": "function"
    },
    {
      "inputs": [
        {
          "internalType": "address",
          "name": "operator",
          "type": "address"
        },
        {
          "internalType": "bool",
          "name": "approved",
          "type": "bool"
        }
      ],
      "name": "setApprovalForAll",
      "outputs": [],
      "stateMutability": "nonpayable",
      "type": "function"
    },
    {
      "inputs": [
        {
          "internalType": "bytes4",
          "name": "interfaceId",
          "type": "bytes4"
        }
      ],
      "name": "supportsInterface",
      "outputs": [
        {
          "internalType": "bool",
          "name": "",
          "type": "bool"
        }
      ],
      "stateMutability": "view",
      "type": "function"
    },
    {
      "inputs": [],
      "name": "symbol",
      "outputs": [
        {
          "internalType": "string",
          "name": "",
          "type": "string"
        }
      ],
      "stateMutability": "view",
      "type": "function"
    },
    {
      "inputs": [
        {
          "internalType": "address",
          "name": "from",
          "type": "address"
        },
        {
          "internalType": "address",
          "name": "to",
          "type": "address"
        },
        {
          "internalType": "uint256",
          "name": "tokenId",
          "type": "uint256"
        }
      ],
      "name": "transferFrom",
      "outputs": [],
      "stateMutability": "nonpayable",
      "type": "function"
    },
    {
      "inputs": [
        {
          "internalType": "address",
          "name": "newOwner",
          "type": "address"
        }
      ],
      "name": "transferOwnership",
      "outputs": [],
      "stateMutability": "nonpayable",
      "type": "function"
    },
    {
      "inputs": [
        {
          "internalType": "uint8",
          "name": "quantity",
          "type": "uint8"
        }
      ],
      "name": "whitelistMint",
      "outputs": [],
      "stateMutability": "payable",
      "type": "function"
    },
    {
      "inputs": [
        {
          "internalType": "uint8",
          "name": "quantity",
          "type": "uint8"
        }
      ],
      "name": "publicSaleMint",
      "outputs": [],
      "stateMutability": "payable",
      "type": "function"
    },
    {
      "inputs": [],
      "name": "setStepAsInactive",
      "outputs": [],
      "stateMutability": "nonpayable",
      "type": "function"
    },
    {
      "inputs": [],
      "name": "setStepAsWhitelistSale",
      "outputs": [],
      "stateMutability": "nonpayable",
      "type": "function"
    },
    {
      "inputs": [],
      "name": "setStepAsPublicSale",
      "outputs": [],
      "stateMutability": "nonpayable",
      "type": "function"
    },
    {
      "inputs": [
        {
          "internalType": "string",
          "name": "_imageURL",
          "type": "string"
        }
      ],
      "name": "setUnrevealedImageURL",
      "outputs": [],
      "stateMutability": "nonpayable",
      "type": "function"
    },
    {
      "inputs": [
        {
          "internalType": "bool",
          "name": "_reveal",
          "type": "bool"
        }
      ],
      "name": "setRevealed",
      "outputs": [],
      "stateMutability": "nonpayable",
      "type": "function"
    },
    {
      "inputs": [
        {
          "internalType": "string",
          "name": "_baseuri",
          "type": "string"
        }
      ],
      "name": "setBaseURI",
      "outputs": [],
      "stateMutability": "nonpayable",
      "type": "function"
    },
    {
      "inputs": [
        {
          "internalType": "uint256",
          "name": "_tokenId",
          "type": "uint256"
        }
      ],
      "name": "tokenURI",
      "outputs": [
        {
          "internalType": "string",
          "name": "",
          "type": "string"
        }
      ],
      "stateMutability": "view",
      "type": "function"
    },
    {
      "inputs": [],
      "name": "withdrawAll",
      "outputs": [],
      "stateMutability": "nonpayable",
      "type": "function"
    },
    {
      "inputs": [],
      "name": "getPrice",
      "outputs": [
        {
          "internalType": "uint256",
          "name": "",
          "type": "uint256"
        }
      ],
      "stateMutability": "view",
      "type": "function"
    }
  ],
  "bytecode": "0x6080604052600c805474e8a18cd415e54a99fcd2d89f52434dd8259926fb00610100600160a81b0319909116179055600d80546001600160a01b03191673bc937543371f759867acf29a3391deecf12f3d761790553480156200006157600080fd5b506040518060400160405280601f81526020017f5468652053686d75726673204f6666696369616c20436f6c6c656374696f6e008152506040518060400160405280600781526020016653484d5552465360c81b815250620000d2620000cc6200012160201b60201c565b62000125565b8151620000e790600390602085019062000175565b508051620000fd90600490602084019062000175565b50600060015550506009805460ff19908116909155600c8054909116905562000258565b3390565b600080546001600160a01b038381166001600160a01b0319831681178455604051919092169283917f8be0079c531659141344cd1fd0a4f28419497f9722a3daafe3b4186f6b6457e09190a35050565b82805462000183906200021b565b90600052602060002090601f016020900481019282620001a75760008555620001f2565b82601f10620001c257805160ff1916838001178555620001f2565b82800160010185558215620001f2579182015b82811115620001f2578251825591602001919060010190620001d5565b506200020092915062000204565b5090565b5b8082111562000200576000815560010162000205565b600181811c908216806200023057607f821691505b602082108114156200025257634e487b7160e01b600052602260045260246000fd5b50919050565b61222580620002686000396000f3fe60806040526004361061019c5760003560e01c80638da5cb5b116100ec578063c76df80e1161008a578063e0a8085311610064578063e0a8085314610469578063e985e9c514610489578063f09351e6146104d2578063f2fde38b146104e757600080fd5b8063c76df80e1461040f578063c87b56dd14610422578063cbccefb21461044257600080fd5b806398d5fdca116100c657806398d5fdca146103a5578063a22cb465146103ba578063b88d4fde146103da578063b8919df3146103fa57600080fd5b80638da5cb5b1461035d57806390caedae1461037b57806395d89b411461039057600080fd5b806355f804b31161015957806370a082311161013357806370a08231146102e5578063715018a614610313578063853828b6146103285780638d9ce5e11461033d57600080fd5b806355f804b31461029257806360e85cde146102b25780636352211e146102c557600080fd5b806301ffc9a7146101a157806306fdde03146101d6578063081812fc146101f8578063095ea7b31461023057806323b872dd1461025257806342842e0e14610272575b600080fd5b3480156101ad57600080fd5b506101c16101bc366004611e94565b610507565b60405190151581526020015b60405180910390f35b3480156101e257600080fd5b506101eb610559565b6040516101cd9190612032565b34801561020457600080fd5b50610218610213366004611f39565b6105eb565b6040516001600160a01b0390911681526020016101cd565b34801561023c57600080fd5b5061025061024b366004611e51565b61062f565b005b34801561025e57600080fd5b5061025061026d366004611d18565b6106bd565b34801561027e57600080fd5b5061025061028d366004611d18565b6106c8565b34801561029e57600080fd5b506102506102ad366004611ecc565b6106e3565b6102506102c0366004611f51565b610722565b3480156102d157600080fd5b506102186102e0366004611f39565b610a52565b3480156102f157600080fd5b50610305610300366004611ccc565b610a64565b6040519081526020016101cd565b34801561031f57600080fd5b50610250610ab3565b34801561033457600080fd5b50610250610ae9565b34801561034957600080fd5b50610250610358366004611ecc565b610bb0565b34801561036957600080fd5b506000546001600160a01b0316610218565b34801561038757600080fd5b50610250610be6565b34801561039c57600080fd5b506101eb610c27565b3480156103b157600080fd5b50610305610c36565b3480156103c657600080fd5b506102506103d5366004611e28565b610ce8565b3480156103e657600080fd5b506102506103f5366004611d53565b610d7e565b34801561040657600080fd5b50610250610dcf565b61025061041d366004611f51565b610e0c565b34801561042e57600080fd5b506101eb61043d366004611f39565b611047565b34801561044e57600080fd5b5060095461045c9060ff1681565b6040516101cd919061200a565b34801561047557600080fd5b50610250610484366004611e7a565b611149565b34801561049557600080fd5b506101c16104a4366004611ce6565b6001600160a01b03918216600090815260086020908152604080832093909416825291909152205460ff1690565b3480156104de57600080fd5b50610250611186565b3480156104f357600080fd5b50610250610502366004611ccc565b6111c4565b60006001600160e01b031982166380ac58cd60e01b148061053857506001600160e01b03198216635b5e139f60e01b145b8061055357506301ffc9a760e01b6001600160e01b03198316145b92915050565b6060600380546105689061212d565b80601f01602080910402602001604051908101604052809291908181526020018280546105949061212d565b80156105e15780601f106105b6576101008083540402835291602001916105e1565b820191906000526020600020905b8154815290600101906020018083116105c457829003601f168201915b5050505050905090565b60006105f68261125c565b610613576040516333d1c03960e21b815260040160405180910390fd5b506000908152600760205260409020546001600160a01b031690565b600061063a82610a52565b9050806001600160a01b0316836001600160a01b0316141561066f5760405163250fdee360e21b815260040160405180910390fd5b336001600160a01b0382161480159061068f575061068d81336104a4565b155b156106ad576040516367d9dca160e11b815260040160405180910390fd5b6106b8838383611288565b505050565b6106b88383836112e4565b6106b883838360405180602001604052806000815250610d7e565b6000546001600160a01b031633146107165760405162461bcd60e51b815260040161070d90612045565b60405180910390fd5b6106b8600a8383611c0c565b3233146107715760405162461bcd60e51b815260206004820152601e60248201527f5468652063616c6c657220697320616e6f7468657220636f6e74726163740000604482015260640161070d565b600160095460ff16600281111561079857634e487b7160e01b600052602160045260246000fd5b146107e55760405162461bcd60e51b815260206004820152601f60248201527f57686974656c6973742053616c65206973206e6f742061637469766174656400604482015260640161070d565b6103e86107f56002546001540390565b106108685760405162461bcd60e51b815260206004820152603c60248201527f57484954454c4953545f53414c453a20506c6561736520676f20746f2074686560448201527f204f70656e73656120746f20627579205468652053686d757266732e00000000606482015260840161070d565b6103e88160ff1661087c6002546001540390565b610886919061207a565b11156108e05760405162461bcd60e51b815260206004820152602360248201527f57484954454c4953545f53414c453a204d617820737570706c7920657863656560448201526219195960ea1b606482015260840161070d565b336000908152600e602052604090205460039061090190839060ff16612092565b60ff1611156109875760405162461bcd60e51b815260206004820152604660248201527f57484954454c4953545f53414c453a20596f752063616e206e6f74206765742060448201527f6d6f7265207468616e2033204e465473206f6e207468652057686974656c6973606482015265742053616c6560d01b608482015260a40161070d565b61099c60ff821667011c37937e0800006120cb565b3410156109eb5760405162461bcd60e51b815260206004820181905260248201527f57484954454c4953545f53414c453a204e6f7420656e6f7567682066756e6473604482015260640161070d565b336000908152600e602052604081208054839290610a0d90849060ff16612092565b92506101000a81548160ff021916908360ff160217905550610a32338260ff166114d4565b610a4f610a4a60ff831667011c37937e0800006120cb565b6114f2565b50565b6000610a5d82611579565b5192915050565b60006001600160a01b038216610a8d576040516323d3ad8160e21b815260040160405180910390fd5b506001600160a01b031660009081526006602052604090205467ffffffffffffffff1690565b6000546001600160a01b03163314610add5760405162461bcd60e51b815260040161070d90612045565b610ae76000611695565b565b6000546001600160a01b03163314610b135760405162461bcd60e51b815260040161070d90612045565b4780610b615760405162461bcd60e51b815260206004820181905260248201527f57495448445241573a204e6f2062616c616e636520696e20636f6e7472616374604482015260640161070d565b6000610b6e600a836120b7565b90506000610b7c82846120ea565b600d54909150610b95906001600160a01b0316836116e5565b600c546106b89061010090046001600160a01b0316826116e5565b6000546001600160a01b03163314610bda5760405162461bcd60e51b815260040161070d90612045565b6106b8600b8383611c0c565b6000546001600160a01b03163314610c105760405162461bcd60e51b815260040161070d90612045565b600980546002919060ff19166001835b0217905550565b6060600480546105689061212d565b60008060095460ff166002811115610c5e57634e487b7160e01b600052602160045260246000fd5b1415610ca15760405162461bcd60e51b815260206004820152601260248201527114d85b19481b9bdd081858dd1a5d985d195960721b604482015260640161070d565b600260095460ff166002811115610cc857634e487b7160e01b600052602160045260246000fd5b1415610cdb575067013fbe85edc9000090565b5067011c37937e08000090565b6001600160a01b038216331415610d125760405163b06307db60e01b815260040160405180910390fd5b3360008181526008602090815260408083206001600160a01b03871680855290835292819020805460ff191686151590811790915590519081529192917f17307eab39ab6107e8899845ad3d59bd9653f200f220920489ca2b5937696c31910160405180910390a35050565b610d898484846112e4565b6001600160a01b0383163b15158015610dab5750610da984848484611788565b155b15610dc9576040516368d2bf6b60e11b815260040160405180910390fd5b50505050565b6000546001600160a01b03163314610df95760405162461bcd60e51b815260040161070d90612045565b600980546001919060ff19168280610c20565b323314610e5b5760405162461bcd60e51b815260206004820152601e60248201527f5468652063616c6c657220697320616e6f7468657220636f6e74726163740000604482015260640161070d565b600260095460ff166002811115610e8257634e487b7160e01b600052602160045260246000fd5b14610ecf5760405162461bcd60e51b815260206004820152601c60248201527f5075626c69632053616c65206973206e6f742061637469766174656400000000604482015260640161070d565b6103e8610edf6002546001540390565b10610f525760405162461bcd60e51b815260206004820152603960248201527f5055424c49435f53414c453a20506c6561736520676f20746f20746865204f7060448201527f656e73656120746f20627579205468652053686d757266732e00000000000000606482015260840161070d565b6103e88160ff16610f666002546001540390565b610f70919061207a565b1115610fbe5760405162461bcd60e51b815260206004820181905260248201527f5055424c49435f53414c453a204d617820737570706c79206578636565646564604482015260640161070d565b610fd360ff821667013fbe85edc900006120cb565b3410156110225760405162461bcd60e51b815260206004820181905260248201527f57484954454c4953545f53414c453a204e6f7420656e6f7567682066756e6473604482015260640161070d565b61102f338260ff166114d4565b610a4f610a4a60ff831667013fbe85edc900006120cb565b60606110528261125c565b61109e5760405162461bcd60e51b815260206004820152601f60248201527f55524920717565727920666f72206e6f6e6578697374656e7420746f6b656e00604482015260640161070d565b600c5460ff16156110b25761055382611880565b600b80546110bf9061212d565b80601f01602080910402602001604051908101604052809291908181526020018280546110eb9061212d565b80156111385780601f1061110d57610100808354040283529160200191611138565b820191906000526020600020905b81548152906001019060200180831161111b57829003601f168201915b50505050509050919050565b919050565b6000546001600160a01b031633146111735760405162461bcd60e51b815260040161070d90612045565b600c805460ff1916911515919091179055565b6000546001600160a01b031633146111b05760405162461bcd60e51b815260040161070d90612045565b600980546000919060ff1916600183610c20565b6000546001600160a01b031633146111ee5760405162461bcd60e51b815260040161070d90612045565b6001600160a01b0381166112535760405162461bcd60e51b815260206004820152602660248201527f4f776e61626c653a206e6577206f776e657220697320746865207a65726f206160448201526564647265737360d01b606482015260840161070d565b610a4f81611695565b600060015482108015610553575050600090815260056020526040902054600160e01b900460ff161590565b60008281526007602052604080822080546001600160a01b0319166001600160a01b0387811691821790925591518593918516917f8c5be1e5ebec7d5bd14f71427d1e84f3dd0314c0f7b2291e5b200ac8c7c3b92591a4505050565b60006112ef82611579565b9050836001600160a01b031681600001516001600160a01b0316146113265760405162a1148160e81b815260040160405180910390fd5b6000336001600160a01b0386161480611344575061134485336104a4565b8061135f575033611354846105eb565b6001600160a01b0316145b90508061137f57604051632ce44b5f60e11b815260040160405180910390fd5b6001600160a01b0384166113a657604051633a954ecd60e21b815260040160405180910390fd5b6113b260008487611288565b6001600160a01b038581166000908152600660209081526040808320805467ffffffffffffffff1980821667ffffffffffffffff92831660001901831617909255898616808652838620805493841693831660019081018416949094179055898652600590945282852080546001600160e01b031916909417600160a01b42909216919091021783558701808452922080549193909116611488576001548214611488578054602086015167ffffffffffffffff16600160a01b026001600160e01b03199091166001600160a01b038a16171781555b50505082846001600160a01b0316866001600160a01b03167fddf252ad1be2c89b69c2b068fc378daa952ba7f163c4a11628f55a4df523b3ef60405160405180910390a45b5050505050565b6114ee828260405180602001604052806000815250611905565b5050565b8034101561153b5760405162461bcd60e51b81526020600482015260166024820152752732b2b2103a379039b2b7321036b7b9329022aa241760511b604482015260640161070d565b80341115610a4f57336108fc61155183346120ea565b6040518115909202916000818181858888f193505050501580156114ee573d6000803e3d6000fd5b60408051606081018252600080825260208201819052918101919091528160015481101561167c57600081815260056020908152604091829020825160608101845290546001600160a01b0381168252600160a01b810467ffffffffffffffff1692820192909252600160e01b90910460ff1615159181018290529061167a5780516001600160a01b031615611610579392505050565b5060001901600081815260056020908152604091829020825160608101845290546001600160a01b038116808352600160a01b820467ffffffffffffffff1693830193909352600160e01b900460ff1615159281019290925215611675579392505050565b611610565b505b604051636f96cda160e11b815260040160405180910390fd5b600080546001600160a01b038381166001600160a01b0319831681178455604051919092169283917f8be0079c531659141344cd1fd0a4f28419497f9722a3daafe3b4186f6b6457e09190a35050565b6000826001600160a01b03168260405160006040518083038185875af1925050503d8060008114611732576040519150601f19603f3d011682016040523d82523d6000602084013e611737565b606091505b50509050806106b85760405162461bcd60e51b815260206004820152601a60248201527f57495448445241573a205472616e73666572206661696c65642e000000000000604482015260640161070d565b604051630a85bd0160e11b81526000906001600160a01b0385169063150b7a02906117bd903390899088908890600401611fcd565b602060405180830381600087803b1580156117d757600080fd5b505af1925050508015611807575060408051601f3d908101601f1916820190925261180491810190611eb0565b60015b611862573d808015611835576040519150601f19603f3d011682016040523d82523d6000602084013e61183a565b606091505b50805161185a576040516368d2bf6b60e11b815260040160405180910390fd5b805181602001fd5b6001600160e01b031916630a85bd0160e11b1490505b949350505050565b606061188b8261125c565b6118a857604051630a14c4b560e41b815260040160405180910390fd5b60006118b2611912565b90508051600014156118d357604051806020016040528060008152506118fe565b806118dd84611921565b6040516020016118ee929190611f9e565b6040516020818303038152906040525b9392505050565b6106b88383836001611a3b565b6060600a80546105689061212d565b6060816119455750506040805180820190915260018152600360fc1b602082015290565b8160005b811561196f578061195981612168565b91506119689050600a836120b7565b9150611949565b60008167ffffffffffffffff81111561199857634e487b7160e01b600052604160045260246000fd5b6040519080825280601f01601f1916602001820160405280156119c2576020820181803683370190505b5090505b8415611878576119d76001836120ea565b91506119e4600a86612183565b6119ef90603061207a565b60f81b818381518110611a1257634e487b7160e01b600052603260045260246000fd5b60200101906001600160f81b031916908160001a905350611a34600a866120b7565b94506119c6565b6001546001600160a01b038516611a6457604051622e076360e81b815260040160405180910390fd5b83611a825760405163b562e8dd60e01b815260040160405180910390fd5b6001600160a01b038516600081815260066020908152604080832080546fffffffffffffffffffffffffffffffff19811667ffffffffffffffff8083168c0181169182176801000000000000000067ffffffffffffffff1990941690921783900481168c01811690920217909155858452600590925290912080546001600160e01b031916909217600160a01b429092169190910217905580808501838015611b3457506001600160a01b0387163b15155b15611bbd575b60405182906001600160a01b038916906000907fddf252ad1be2c89b69c2b068fc378daa952ba7f163c4a11628f55a4df523b3ef908290a4611b856000888480600101955088611788565b611ba2576040516368d2bf6b60e11b815260040160405180910390fd5b80821415611b3a578260015414611bb857600080fd5b611c03565b5b6040516001830192906001600160a01b038916906000907fddf252ad1be2c89b69c2b068fc378daa952ba7f163c4a11628f55a4df523b3ef908290a480821415611bbe575b506001556114cd565b828054611c189061212d565b90600052602060002090601f016020900481019282611c3a5760008555611c80565b82601f10611c535782800160ff19823516178555611c80565b82800160010185558215611c80579182015b82811115611c80578235825591602001919060010190611c65565b50611c8c929150611c90565b5090565b5b80821115611c8c5760008155600101611c91565b80356001600160a01b038116811461114457600080fd5b8035801515811461114457600080fd5b600060208284031215611cdd578081fd5b6118fe82611ca5565b60008060408385031215611cf8578081fd5b611d0183611ca5565b9150611d0f60208401611ca5565b90509250929050565b600080600060608486031215611d2c578081fd5b611d3584611ca5565b9250611d4360208501611ca5565b9150604084013590509250925092565b60008060008060808587031215611d68578081fd5b611d7185611ca5565b9350611d7f60208601611ca5565b925060408501359150606085013567ffffffffffffffff80821115611da2578283fd5b818701915087601f830112611db5578283fd5b813581811115611dc757611dc76121c3565b604051601f8201601f19908116603f01168101908382118183101715611def57611def6121c3565b816040528281528a6020848701011115611e07578586fd5b82602086016020830137918201602001949094529598949750929550505050565b60008060408385031215611e3a578182fd5b611e4383611ca5565b9150611d0f60208401611cbc565b60008060408385031215611e63578182fd5b611e6c83611ca5565b946020939093013593505050565b600060208284031215611e8b578081fd5b6118fe82611cbc565b600060208284031215611ea5578081fd5b81356118fe816121d9565b600060208284031215611ec1578081fd5b81516118fe816121d9565b60008060208385031215611ede578182fd5b823567ffffffffffffffff80821115611ef5578384fd5b818501915085601f830112611f08578384fd5b813581811115611f16578485fd5b866020828501011115611f27578485fd5b60209290920196919550909350505050565b600060208284031215611f4a578081fd5b5035919050565b600060208284031215611f62578081fd5b813560ff811681146118fe578182fd5b60008151808452611f8a816020860160208601612101565b601f01601f19169290920160200192915050565b60008351611fb0818460208801612101565b835190830190611fc4818360208801612101565b01949350505050565b6001600160a01b038581168252841660208201526040810183905260806060820181905260009061200090830184611f72565b9695505050505050565b602081016003831061202c57634e487b7160e01b600052602160045260246000fd5b91905290565b6020815260006118fe6020830184611f72565b6020808252818101527f4f776e61626c653a2063616c6c6572206973206e6f7420746865206f776e6572604082015260600190565b6000821982111561208d5761208d612197565b500190565b600060ff821660ff84168060ff038211156120af576120af612197565b019392505050565b6000826120c6576120c66121ad565b500490565b60008160001904831182151516156120e5576120e5612197565b500290565b6000828210156120fc576120fc612197565b500390565b60005b8381101561211c578181015183820152602001612104565b83811115610dc95750506000910152565b600181811c9082168061214157607f821691505b6020821081141561216257634e487b7160e01b600052602260045260246000fd5b50919050565b600060001982141561217c5761217c612197565b5060010190565b600082612192576121926121ad565b500690565b634e487b7160e01b600052601160045260246000fd5b634e487b7160e01b600052601260045260246000fd5b634e487b7160e01b600052604160045260246000fd5b6001600160e01b031981168114610a4f57600080fdfea2646970667358221220019944afd5917463b9c299b2219a3f4e9889188439aadf8ef4bcd06af060ffa064736f6c63430008040033",
  "immutableReferences": {},
  "source": "// SPDX-License-Identifier: MIT\n\n//   /$$$$$$$$ /$$                        /$$$$$$  /$$                                          /$$$$$$                 /$$$$$$   /$$$$$$   /$$$$$$  /$$           /$$           /$$        /$$$$$$            /$$ /$$                       /$$     /$$                    \n//  |__  $$__/| $$                       /$$__  $$| $$                                         /$$__  $$               /$$__  $$ /$$__  $$ /$$__  $$|__/          |__/          | $$       /$$__  $$          | $$| $$                      | $$    |__/                    \n//     | $$   | $$$$$$$   /$$$$$$       | $$  \\__/| $$$$$$$  /$$$$$$/$$$$  /$$   /$$  /$$$$$$ | $$  \\__//$$$$$$$      | $$  \\ $$| $$  \\__/| $$  \\__/ /$$  /$$$$$$$ /$$  /$$$$$$ | $$      | $$  \\__/  /$$$$$$ | $$| $$  /$$$$$$   /$$$$$$$ /$$$$$$   /$$  /$$$$$$  /$$$$$$$ \n//     | $$   | $$__  $$ /$$__  $$      |  $$$$$$ | $$__  $$| $$_  $$_  $$| $$  | $$ /$$__  $$| $$$$   /$$_____/      | $$  | $$| $$$$    | $$$$    | $$ /$$_____/| $$ |____  $$| $$      | $$       /$$__  $$| $$| $$ /$$__  $$ /$$_____/|_  $$_/  | $$ /$$__  $$| $$__  $$\n//     | $$   | $$  \\ $$| $$$$$$$$       \\____  $$| $$  \\ $$| $$ \\ $$ \\ $$| $$  | $$| $$  \\__/| $$_/  |  $$$$$$       | $$  | $$| $$_/    | $$_/    | $$| $$      | $$  /$$$$$$$| $$      | $$      | $$  \\ $$| $$| $$| $$$$$$$$| $$        | $$    | $$| $$  \\ $$| $$  \\ $$\n//     | $$   | $$  | $$| $$_____/       /$$  \\ $$| $$  | $$| $$ | $$ | $$| $$  | $$| $$      | $$     \\____  $$      | $$  | $$| $$      | $$      | $$| $$      | $$ /$$__  $$| $$      | $$    $$| $$  | $$| $$| $$| $$_____/| $$        | $$ /$$| $$| $$  | $$| $$  | $$\n//     | $$   | $$  | $$|  $$$$$$$      |  $$$$$$/| $$  | $$| $$ | $$ | $$|  $$$$$$/| $$      | $$     /$$$$$$$/      |  $$$$$$/| $$      | $$      | $$|  $$$$$$$| $$|  $$$$$$$| $$      |  $$$$$$/|  $$$$$$/| $$| $$|  $$$$$$$|  $$$$$$$  |  $$$$/| $$|  $$$$$$/| $$  | $$\n//     |__/   |__/  |__/ \\_______/       \\______/ |__/  |__/|__/ |__/ |__/ \\______/ |__/      |__/    |_______/        \\______/ |__/      |__/      |__/ \\_______/|__/ \\_______/|__/       \\______/  \\______/ |__/|__/ \\_______/ \\_______/   \\___/  |__/ \\______/ |__/  |__/\n//\n//    The Shmurfs are a collection of 1,000, 3D amazing PFP NFT's that offer real long term value\n//\n//\n\npragma solidity ^0.8.4;\n\nimport \"@openzeppelin/contracts/access/Ownable.sol\";\nimport \"./ERC721A.sol\";\n\ncontract TheShmurfs is Ownable, ERC721A {\n\n  enum Step {\n    Inactive,\n    WhitelistSale,\n    PublicSale\n  }\n\n  Step public sellingStep;\n\n  string private baseURI;\n  string private unrevealedImageURL;\n  bool private revealed;\n\n  uint private constant MAX_SUPPLY          = 1000;\n  uint private constant PRICE_WHITELIST     = 0.08 ether;\n  uint private constant PRICE_PUBLIC        = 0.09 ether;\n  uint private constant MAX_WHITELIST_BATCH = 3;\n\n  address private fundWallet    = payable(0xe8a18cD415e54A99FCd2d89F52434dd8259926fb); // Owner Fund Wallet Address\n  address private devOneWallet  = payable(0xbC937543371F759867acf29A3391dEecF12f3d76); // Developer One Wallet Address\n\n  mapping(address => uint8) private whitelistBuyList;\n\n  constructor() ERC721A(\"The Shmurfs Official Collection\", \"SHMURFS\") {\n    sellingStep = Step.Inactive;\n    revealed = false;\n  }\n\n  modifier callerIsUser() {\n    require(tx.origin == msg.sender, \"The caller is another contract\");\n    _;\n  }\n\n  modifier whitelistSaleIsOpen() {\n    require(sellingStep == Step.WhitelistSale, \"Whitelist Sale is not activated\");\n    _;\n  }\n\n  modifier publicSaleIsOpen() {\n    require(sellingStep == Step.PublicSale, \"Public Sale is not activated\");\n    _;\n  }\n\n  function whitelistMint(uint8 quantity) external payable callerIsUser whitelistSaleIsOpen {\n    require(totalSupply() < MAX_SUPPLY, \"WHITELIST_SALE: Please go to the Opensea to buy The Shmurfs.\");\n    require(totalSupply() + quantity <= MAX_SUPPLY, \"WHITELIST_SALE: Max supply exceeded\");\n    require(whitelistBuyList[msg.sender] + quantity <= MAX_WHITELIST_BATCH, \"WHITELIST_SALE: You can not get more than 3 NFTs on the Whitelist Sale\");\n    require(msg.value >= PRICE_WHITELIST * quantity, \"WHITELIST_SALE: Not enough funds\");\n\n    whitelistBuyList[msg.sender] += quantity;\n    _safeMint(msg.sender, quantity);\n\n    refundIfOver(PRICE_WHITELIST * quantity);\n  }\n\n  function publicSaleMint(uint8 quantity) external payable callerIsUser publicSaleIsOpen{\n    require(totalSupply() < MAX_SUPPLY, \"PUBLIC_SALE: Please go to the Opensea to buy The Shmurfs.\");\n    require(totalSupply() + quantity <= MAX_SUPPLY, \"PUBLIC_SALE: Max supply exceeded\");\n    require(msg.value >= PRICE_PUBLIC * quantity, \"WHITELIST_SALE: Not enough funds\");\n\n    _safeMint(msg.sender, quantity);\n    refundIfOver(PRICE_PUBLIC * quantity);\n  }\n\n  function setStepAsInactive() external onlyOwner {\n    sellingStep = Step.Inactive;\n  }\n\n  function setStepAsWhitelistSale() external onlyOwner {\n    sellingStep = Step.WhitelistSale;\n  }\n\n  function setStepAsPublicSale() external onlyOwner {\n    sellingStep = Step.PublicSale;\n  }\n\n  // metadata URI\n  function setUnrevealedImageURL(string calldata _imageURL) external onlyOwner {\n    unrevealedImageURL = _imageURL;\n  }\n\n  function setRevealed(bool _reveal) external onlyOwner {\n    revealed = _reveal;\n  }\n\n  function setBaseURI(string calldata _baseuri) external onlyOwner {\n    baseURI = _baseuri;\n  }\n\n  function _baseURI() internal view override returns (string memory) {\n    return baseURI;\n  }\n\n  function tokenURI(uint _tokenId) public view override returns (string memory) {\n    require(_exists(_tokenId), \"URI query for nonexistent token\");\n\n    if (revealed)\n      return super.tokenURI(_tokenId);\n    else\n      return unrevealedImageURL;\n  }\n\n  // fund\n  function withdrawAll() external onlyOwner {\n    uint totalBalance = address(this).balance;\n    require(totalBalance > 0, \"WITHDRAW: No balance in contract\");\n\n    uint devOneBalance = totalBalance / 10; // 10% of total sale\n    uint ownerBalance = totalBalance - devOneBalance; // 90% of total sale\n\n    _withdraw(devOneWallet, devOneBalance);\n    _withdraw(fundWallet, ownerBalance);\n  }\n\n  function _withdraw(address _address, uint _amount) private {\n    (bool success, ) = _address.call{value: _amount}(\"\");\n\n    require(success, \"WITHDRAW: Transfer failed.\");\n  }\n\n  function refundIfOver(uint price) private {\n    require(msg.value >= price, \"Need to send more ETH.\");\n\n    if (msg.value > price) {\n      payable(msg.sender).transfer(msg.value - price);\n    }\n  }\n\n  function getPrice() public view returns (uint) {\n    require(sellingStep != Step.Inactive, \"Sale not activated\");\n    if (sellingStep == Step.PublicSale)\n      return PRICE_PUBLIC;\n    else\n      return PRICE_WHITELIST;\n  }\n}",
  "sourcePath": "D:\\Development\\smurfs-minting-website-main\\contracts\\TheShmurfs.sol",
  "compiler": {
    "name": "solc",
    "version": "0.8.4+commit.c7e474f2.Emscripten.clang"
  },
  "schemaVersion": "3.4.4",
  "updatedAt": "2022-04-12T21:13:04.649Z",
  "devdoc": {
    "kind": "dev",
    "methods": {
      "approve(address,uint256)": {
        "details": "See {IERC721-approve}."
      },
      "balanceOf(address)": {
        "details": "See {IERC721-balanceOf}."
      },
      "getApproved(uint256)": {
        "details": "See {IERC721-getApproved}."
      },
      "isApprovedForAll(address,address)": {
        "details": "See {IERC721-isApprovedForAll}."
      },
      "name()": {
        "details": "See {IERC721Metadata-name}."
      },
      "owner()": {
        "details": "Returns the address of the current owner."
      },
      "ownerOf(uint256)": {
        "details": "See {IERC721-ownerOf}."
      },
      "renounceOwnership()": {
        "details": "Leaves the contract without owner. It will not be possible to call `onlyOwner` functions anymore. Can only be called by the current owner. NOTE: Renouncing ownership will leave the contract without an owner, thereby removing any functionality that is only available to the owner."
      },
      "safeTransferFrom(address,address,uint256)": {
        "details": "See {IERC721-safeTransferFrom}."
      },
      "safeTransferFrom(address,address,uint256,bytes)": {
        "details": "See {IERC721-safeTransferFrom}."
      },
      "setApprovalForAll(address,bool)": {
        "details": "See {IERC721-setApprovalForAll}."
      },
      "supportsInterface(bytes4)": {
        "details": "See {IERC165-supportsInterface}."
      },
      "symbol()": {
        "details": "See {IERC721Metadata-symbol}."
      },
      "transferFrom(address,address,uint256)": {
        "details": "See {IERC721-transferFrom}."
      },
      "transferOwnership(address)": {
        "details": "Transfers ownership of the contract to a new account (`newOwner`). Can only be called by the current owner."
      }
    },
    "version": 1
  },
  "userdoc": {
    "kind": "user",
    "methods": {},
    "version": 1
  }
}