{
  "contractName": "TheShmurfs",
  "abi": [
    {
      "inputs": [],
      "stateMutability": "nonpayable",
      "type": "constructor"
    },
    {
      "inputs": [],
      "name": "ApprovalCallerNotOwnerNorApproved",
      "type": "error"
    },
    {
      "inputs": [],
      "name": "ApprovalQueryForNonexistentToken",
      "type": "error"
    },
    {
      "inputs": [],
      "name": "ApprovalToCurrentOwner",
      "type": "error"
    },
    {
      "inputs": [],
      "name": "ApproveToCaller",
      "type": "error"
    },
    {
      "inputs": [],
      "name": "BalanceQueryForZeroAddress",
      "type": "error"
    },
    {
      "inputs": [],
      "name": "MintToZeroAddress",
      "type": "error"
    },
    {
      "inputs": [],
      "name": "MintZeroQuantity",
      "type": "error"
    },
    {
      "inputs": [],
      "name": "OwnerQueryForNonexistentToken",
      "type": "error"
    },
    {
      "inputs": [],
      "name": "TransferCallerNotOwnerNorApproved",
      "type": "error"
    },
    {
      "inputs": [],
      "name": "TransferFromIncorrectOwner",
      "type": "error"
    },
    {
      "inputs": [],
      "name": "TransferToNonERC721ReceiverImplementer",
      "type": "error"
    },
    {
      "inputs": [],
      "name": "TransferToZeroAddress",
      "type": "error"
    },
    {
      "inputs": [],
      "name": "URIQueryForNonexistentToken",
      "type": "error"
    },
    {
      "anonymous": false,
      "inputs": [
        {
          "indexed": true,
          "internalType": "address",
          "name": "owner",
          "type": "address"
        },
        {
          "indexed": true,
          "internalType": "address",
          "name": "approved",
          "type": "address"
        },
        {
          "indexed": true,
          "internalType": "uint256",
          "name": "tokenId",
          "type": "uint256"
        }
      ],
      "name": "Approval",
      "type": "event"
    },
    {
      "anonymous": false,
      "inputs": [
        {
          "indexed": true,
          "internalType": "address",
          "name": "owner",
          "type": "address"
        },
        {
          "indexed": true,
          "internalType": "address",
          "name": "operator",
          "type": "address"
        },
        {
          "indexed": false,
          "internalType": "bool",
          "name": "approved",
          "type": "bool"
        }
      ],
      "name": "ApprovalForAll",
      "type": "event"
    },
    {
      "anonymous": false,
      "inputs": [
        {
          "indexed": true,
          "internalType": "address",
          "name": "previousOwner",
          "type": "address"
        },
        {
          "indexed": true,
          "internalType": "address",
          "name": "newOwner",
          "type": "address"
        }
      ],
      "name": "OwnershipTransferred",
      "type": "event"
    },
    {
      "anonymous": false,
      "inputs": [
        {
          "indexed": true,
          "internalType": "address",
          "name": "from",
          "type": "address"
        },
        {
          "indexed": true,
          "internalType": "address",
          "name": "to",
          "type": "address"
        },
        {
          "indexed": true,
          "internalType": "uint256",
          "name": "tokenId",
          "type": "uint256"
        }
      ],
      "name": "Transfer",
      "type": "event"
    },
    {
      "inputs": [
        {
          "internalType": "address",
          "name": "to",
          "type": "address"
        },
        {
          "internalType": "uint256",
          "name": "tokenId",
          "type": "uint256"
        }
      ],
      "name": "approve",
      "outputs": [],
      "stateMutability": "nonpayable",
      "type": "function"
    },
    {
      "inputs": [
        {
          "internalType": "address",
          "name": "owner",
          "type": "address"
        }
      ],
      "name": "balanceOf",
      "outputs": [
        {
          "internalType": "uint256",
          "name": "",
          "type": "uint256"
        }
      ],
      "stateMutability": "view",
      "type": "function"
    },
    {
      "inputs": [
        {
          "internalType": "uint256",
          "name": "tokenId",
          "type": "uint256"
        }
      ],
      "name": "getApproved",
      "outputs": [
        {
          "internalType": "address",
          "name": "",
          "type": "address"
        }
      ],
      "stateMutability": "view",
      "type": "function"
    },
    {
      "inputs": [
        {
          "internalType": "address",
          "name": "owner",
          "type": "address"
        },
        {
          "internalType": "address",
          "name": "operator",
          "type": "address"
        }
      ],
      "name": "isApprovedForAll",
      "outputs": [
        {
          "internalType": "bool",
          "name": "",
          "type": "bool"
        }
      ],
      "stateMutability": "view",
      "type": "function"
    },
    {
      "inputs": [],
      "name": "name",
      "outputs": [
        {
          "internalType": "string",
          "name": "",
          "type": "string"
        }
      ],
      "stateMutability": "view",
      "type": "function"
    },
    {
      "inputs": [],
      "name": "owner",
      "outputs": [
        {
          "internalType": "address",
          "name": "",
          "type": "address"
        }
      ],
      "stateMutability": "view",
      "type": "function"
    },
    {
      "inputs": [
        {
          "internalType": "uint256",
          "name": "tokenId",
          "type": "uint256"
        }
      ],
      "name": "ownerOf",
      "outputs": [
        {
          "internalType": "address",
          "name": "",
          "type": "address"
        }
      ],
      "stateMutability": "view",
      "type": "function"
    },
    {
      "inputs": [],
      "name": "renounceOwnership",
      "outputs": [],
      "stateMutability": "nonpayable",
      "type": "function"
    },
    {
      "inputs": [
        {
          "internalType": "address",
          "name": "from",
          "type": "address"
        },
        {
          "internalType": "address",
          "name": "to",
          "type": "address"
        },
        {
          "internalType": "uint256",
          "name": "tokenId",
          "type": "uint256"
        }
      ],
      "name": "safeTransferFrom",
      "outputs": [],
      "stateMutability": "nonpayable",
      "type": "function"
    },
    {
      "inputs": [
        {
          "internalType": "address",
          "name": "from",
          "type": "address"
        },
        {
          "internalType": "address",
          "name": "to",
          "type": "address"
        },
        {
          "internalType": "uint256",
          "name": "tokenId",
          "type": "uint256"
        },
        {
          "internalType": "bytes",
          "name": "_data",
          "type": "bytes"
        }
      ],
      "name": "safeTransferFrom",
      "outputs": [],
      "stateMutability": "nonpayable",
      "type": "function"
    },
    {
      "inputs": [],
      "name": "sellingStep",
      "outputs": [
        {
          "internalType": "enum TheShmurfs.Step",
          "name": "",
          "type": "uint8"
        }
      ],
      "stateMutability": "view",
      "type": "function"
    },
    {
      "inputs": [
        {
          "internalType": "address",
          "name": "operator",
          "type": "address"
        },
        {
          "internalType": "bool",
          "name": "approved",
          "type": "bool"
        }
      ],
      "name": "setApprovalForAll",
      "outputs": [],
      "stateMutability": "nonpayable",
      "type": "function"
    },
    {
      "inputs": [
        {
          "internalType": "bytes4",
          "name": "interfaceId",
          "type": "bytes4"
        }
      ],
      "name": "supportsInterface",
      "outputs": [
        {
          "internalType": "bool",
          "name": "",
          "type": "bool"
        }
      ],
      "stateMutability": "view",
      "type": "function"
    },
    {
      "inputs": [],
      "name": "symbol",
      "outputs": [
        {
          "internalType": "string",
          "name": "",
          "type": "string"
        }
      ],
      "stateMutability": "view",
      "type": "function"
    },
    {
      "inputs": [
        {
          "internalType": "address",
          "name": "from",
          "type": "address"
        },
        {
          "internalType": "address",
          "name": "to",
          "type": "address"
        },
        {
          "internalType": "uint256",
          "name": "tokenId",
          "type": "uint256"
        }
      ],
      "name": "transferFrom",
      "outputs": [],
      "stateMutability": "nonpayable",
      "type": "function"
    },
    {
      "inputs": [
        {
          "internalType": "address",
          "name": "newOwner",
          "type": "address"
        }
      ],
      "name": "transferOwnership",
      "outputs": [],
      "stateMutability": "nonpayable",
      "type": "function"
    },
    {
      "inputs": [
        {
          "internalType": "uint8",
          "name": "quantity",
          "type": "uint8"
        },
        {
          "internalType": "string",
          "name": "mintPasskey_",
          "type": "string"
        }
      ],
      "name": "whitelistMint",
      "outputs": [],
      "stateMutability": "payable",
      "type": "function"
    },
    {
      "inputs": [
        {
          "internalType": "uint8",
          "name": "quantity",
          "type": "uint8"
        }
      ],
      "name": "publicSaleMint",
      "outputs": [],
      "stateMutability": "payable",
      "type": "function"
    },
    {
      "inputs": [
        {
          "internalType": "bytes32",
          "name": "mintPasskey_",
          "type": "bytes32"
        }
      ],
      "name": "setWhitelistMintPassKey",
      "outputs": [],
      "stateMutability": "nonpayable",
      "type": "function"
    },
    {
      "inputs": [],
      "name": "setStepAsBefore",
      "outputs": [],
      "stateMutability": "nonpayable",
      "type": "function"
    },
    {
      "inputs": [],
      "name": "setStepAsWhitelistSale",
      "outputs": [],
      "stateMutability": "nonpayable",
      "type": "function"
    },
    {
      "inputs": [],
      "name": "setStepAsPublicSale",
      "outputs": [],
      "stateMutability": "nonpayable",
      "type": "function"
    },
    {
      "inputs": [],
      "name": "setStepAsAfter",
      "outputs": [],
      "stateMutability": "nonpayable",
      "type": "function"
    },
    {
      "inputs": [
        {
          "internalType": "string",
          "name": "_imageURL",
          "type": "string"
        }
      ],
      "name": "setUnrevealedImageURL",
      "outputs": [],
      "stateMutability": "nonpayable",
      "type": "function"
    },
    {
      "inputs": [
        {
          "internalType": "bool",
          "name": "_reveal",
          "type": "bool"
        }
      ],
      "name": "setRevealed",
      "outputs": [],
      "stateMutability": "nonpayable",
      "type": "function"
    },
    {
      "inputs": [
        {
          "internalType": "string",
          "name": "_baseuri",
          "type": "string"
        }
      ],
      "name": "setBaseURI",
      "outputs": [],
      "stateMutability": "nonpayable",
      "type": "function"
    },
    {
      "inputs": [
        {
          "internalType": "uint256",
          "name": "_tokenId",
          "type": "uint256"
        }
      ],
      "name": "tokenURI",
      "outputs": [
        {
          "internalType": "string",
          "name": "",
          "type": "string"
        }
      ],
      "stateMutability": "view",
      "type": "function"
    },
    {
      "inputs": [],
      "name": "withdrawAll",
      "outputs": [],
      "stateMutability": "nonpayable",
      "type": "function"
    },
    {
      "inputs": [],
      "name": "getPrice",
      "outputs": [
        {
          "internalType": "uint256",
          "name": "",
          "type": "uint256"
        }
      ],
      "stateMutability": "view",
      "type": "function"
    },
    {
      "inputs": [
        {
          "internalType": "string",
          "name": "_string",
          "type": "string"
        }
      ],
      "name": "getHash",
      "outputs": [
        {
          "internalType": "bytes32",
          "name": "",
          "type": "bytes32"
        }
      ],
      "stateMutability": "pure",
      "type": "function"
    }
  ],
  "bytecode": "0x6080604052600c805474c7f9adaec08abb1ac05d8f8fd6015a0912b4339200610100600160a81b0319909116179055600d80546001600160a01b03191673bc937543371f759867acf29a3391deecf12f3d761790553480156200006157600080fd5b506040518060400160405280600b81526020016a5468652053686d7572667360a81b8152506040518060400160405280600781526020016653484d5552465360c81b815250620000c0620000ba6200013660201b60201c565b6200013a565b8151620000d5906003906020850190620001bc565b508051620000eb906004906020840190620001bc565b5050600060019081556009805460ff19908116909155600c8054909116905560408051808201909152908152600360fc1b60208201526200012d91506200018a565b600e55620002db565b3390565b600080546001600160a01b038381166001600160a01b0319831681178455604051919092169283917f8be0079c531659141344cd1fd0a4f28419497f9722a3daafe3b4186f6b6457e09190a35050565b6000816040516020016200019f919062000262565b604051602081830303815290604052805190602001209050919050565b828054620001ca906200029e565b90600052602060002090601f016020900481019282620001ee576000855562000239565b82601f106200020957805160ff191683800117855562000239565b8280016001018555821562000239579182015b82811115620002395782518255916020019190600101906200021c565b50620002479291506200024b565b5090565b5b808211156200024757600081556001016200024c565b60008251815b8181101562000284576020818601810151858301520162000268565b81811115620002935782828501525b509190910192915050565b600181811c90821680620002b357607f821691505b60208210811415620002d557634e487b7160e01b600052602260045260246000fd5b50919050565b61252b80620002eb6000396000f3fe6080604052600436106101cd5760003560e01c80638d9ce5e1116100f7578063b88d4fde11610095578063cbccefb211610064578063cbccefb2146104dd578063e0a8085314610504578063e985e9c514610524578063f2fde38b1461056d57600080fd5b8063b88d4fde14610475578063b8919df314610495578063c76df80e146104aa578063c87b56dd146104bd57600080fd5b806395d89b41116100d157806395d89b411461040b57806398d5fdca14610420578063a22cb46514610435578063b6e9b0fd1461045557600080fd5b80638d9ce5e1146103b85780638da5cb5b146103d857806390caedae146103f657600080fd5b8063487278aa1161016f578063700760d21161013e578063700760d21461035957806370a082311461036e578063715018a61461038e578063853828b6146103a357600080fd5b8063487278aa146102d857806355f804b3146102eb5780635b6beeb91461030b5780636352211e1461033957600080fd5b8063095ea7b3116101ab578063095ea7b31461026157806323b872dd146102835780632543bb85146102a357806342842e0e146102b857600080fd5b806301ffc9a7146101d257806306fdde0314610207578063081812fc14610229575b600080fd5b3480156101de57600080fd5b506101f26101ed366004612136565b61058d565b60405190151581526020015b60405180910390f35b34801561021357600080fd5b5061021c6105df565b6040516101fe9190612338565b34801561023557600080fd5b5061024961024436600461211e565b610671565b6040516001600160a01b0390911681526020016101fe565b34801561026d57600080fd5b5061028161027c3660046120db565b6106b5565b005b34801561028f57600080fd5b5061028161029e366004611fff565b610743565b3480156102af57600080fd5b5061028161074e565b3480156102c457600080fd5b506102816102d3366004611fff565b610798565b6102816102e636600461220c565b6107b3565b3480156102f757600080fd5b5061028161030636600461216e565b610b7b565b34801561031757600080fd5b5061032b6103263660046121ad565b610bb1565b6040519081526020016101fe565b34801561034557600080fd5b5061024961035436600461211e565b610be1565b34801561036557600080fd5b50610281610bf3565b34801561037a57600080fd5b5061032b610389366004611fb3565b610c31565b34801561039a57600080fd5b50610281610c7f565b3480156103af57600080fd5b50610281610cb5565b3480156103c457600080fd5b506102816103d336600461216e565b610d7c565b3480156103e457600080fd5b506000546001600160a01b0316610249565b34801561040257600080fd5b50610281610db2565b34801561041757600080fd5b5061021c610df0565b34801561042c57600080fd5b5061032b610dff565b34801561044157600080fd5b506102816104503660046120b2565b610f15565b34801561046157600080fd5b5061028161047036600461211e565b610fab565b34801561048157600080fd5b5061028161049036600461203a565b610fda565b3480156104a157600080fd5b5061028161102b565b6102816104b83660046121f2565b611068565b3480156104c957600080fd5b5061021c6104d836600461211e565b6112a6565b3480156104e957600080fd5b506009546104f79060ff1681565b6040516101fe9190612310565b34801561051057600080fd5b5061028161051f366004612104565b6113a8565b34801561053057600080fd5b506101f261053f366004611fcd565b6001600160a01b03918216600090815260086020908152604080832093909416825291909152205460ff1690565b34801561057957600080fd5b50610281610588366004611fb3565b6113e5565b60006001600160e01b031982166380ac58cd60e01b14806105be57506001600160e01b03198216635b5e139f60e01b145b806105d957506301ffc9a760e01b6001600160e01b03198316145b92915050565b6060600380546105ee90612433565b80601f016020809104026020016040519081016040528092919081815260200182805461061a90612433565b80156106675780601f1061063c57610100808354040283529160200191610667565b820191906000526020600020905b81548152906001019060200180831161064a57829003601f168201915b5050505050905090565b600061067c8261147d565b610699576040516333d1c03960e21b815260040160405180910390fd5b506000908152600760205260409020546001600160a01b031690565b60006106c082610be1565b9050806001600160a01b0316836001600160a01b031614156106f55760405163250fdee360e21b815260040160405180910390fd5b336001600160a01b038216148015906107155750610713813361053f565b155b15610733576040516367d9dca160e11b815260040160405180910390fd5b61073e8383836114a9565b505050565b61073e838383611505565b6000546001600160a01b031633146107815760405162461bcd60e51b81526004016107789061234b565b60405180910390fd5b600980546003919060ff19166001835b0217905550565b61073e83838360405180602001604052806000815250610fda565b3233146108025760405162461bcd60e51b815260206004820152601e60248201527f5468652063616c6c657220697320616e6f7468657220636f6e747261637400006044820152606401610778565b600160095460ff16600381111561082957634e487b7160e01b600052602160045260246000fd5b146108765760405162461bcd60e51b815260206004820152601f60248201527f57686974656c6973742053616c65206973206e6f7420616374697661746564006044820152606401610778565b6108b582828080601f016020809104026020016040519081016040528093929190818152602001838380828437600092019190915250610bb192505050565b600e54146109115760405162461bcd60e51b815260206004820152602360248201527f57484954454c4953545f53414c453a20506173736b6579206e6f7420636f72726044820152621958dd60ea1b6064820152608401610778565b6103e86109216002546001540390565b106109945760405162461bcd60e51b815260206004820152603c60248201527f57484954454c4953545f53414c453a20506c6561736520676f20746f2074686560448201527f204f70656e73656120746f20627579205468652053686d757266732e000000006064820152608401610778565b6103e88360ff166109a86002546001540390565b6109b29190612380565b1115610a0c5760405162461bcd60e51b815260206004820152602360248201527f57484954454c4953545f53414c453a204d617820737570706c7920657863656560448201526219195960ea1b6064820152608401610778565b336000908152600f6020526040902054600390610a2d90859060ff16612398565b60ff161115610ab35760405162461bcd60e51b815260206004820152604660248201527f57484954454c4953545f53414c453a20596f752063616e206e6f74206765742060448201527f6d6f7265207468616e2033204e465473206f6e207468652057686974656c6973606482015265742053616c6560d01b608482015260a401610778565b610ac860ff841667011c37937e0800006123d1565b341015610b175760405162461bcd60e51b815260206004820181905260248201527f57484954454c4953545f53414c453a204e6f7420656e6f7567682066756e64736044820152606401610778565b336000908152600f602052604081208054859290610b3990849060ff16612398565b92506101000a81548160ff021916908360ff160217905550610b5e338460ff166116f3565b61073e610b7660ff851667011c37937e0800006123d1565b611711565b6000546001600160a01b03163314610ba55760405162461bcd60e51b81526004016107789061234b565b61073e600a8383611e27565b600081604051602001610bc49190612288565b604051602081830303815290604052805190602001209050919050565b6000610bec82611798565b5192915050565b6000546001600160a01b03163314610c1d5760405162461bcd60e51b81526004016107789061234b565b600980546000919060ff1916600183610791565b60006001600160a01b038216610c5a576040516323d3ad8160e21b815260040160405180910390fd5b506001600160a01b03166000908152600660205260409020546001600160401b031690565b6000546001600160a01b03163314610ca95760405162461bcd60e51b81526004016107789061234b565b610cb360006118b2565b565b6000546001600160a01b03163314610cdf5760405162461bcd60e51b81526004016107789061234b565b4780610d2d5760405162461bcd60e51b815260206004820181905260248201527f57495448445241573a204e6f2062616c616e636520696e20636f6e74726163746044820152606401610778565b6000610d3a600a836123bd565b90506000610d4882846123f0565b600d54909150610d61906001600160a01b031683611902565b600c5461073e9061010090046001600160a01b031682611902565b6000546001600160a01b03163314610da65760405162461bcd60e51b81526004016107789061234b565b61073e600b8383611e27565b6000546001600160a01b03163314610ddc5760405162461bcd60e51b81526004016107789061234b565b600980546002919060ff1916600183610791565b6060600480546105ee90612433565b60008060095460ff166003811115610e2757634e487b7160e01b600052602160045260246000fd5b1415610e6c5760405162461bcd60e51b815260206004820152601460248201527314d85b19481b9bdd081cdd185c9d1959081e595d60621b6044820152606401610778565b600360095460ff166003811115610e9357634e487b7160e01b600052602160045260246000fd5b1415610ece5760405162461bcd60e51b815260206004820152600a60248201526914d85b1948195b99195960b21b6044820152606401610778565b600260095460ff166003811115610ef557634e487b7160e01b600052602160045260246000fd5b1415610f08575067013fbe85edc9000090565b5067011c37937e08000090565b6001600160a01b038216331415610f3f5760405163b06307db60e01b815260040160405180910390fd5b3360008181526008602090815260408083206001600160a01b03871680855290835292819020805460ff191686151590811790915590519081529192917f17307eab39ab6107e8899845ad3d59bd9653f200f220920489ca2b5937696c31910160405180910390a35050565b6000546001600160a01b03163314610fd55760405162461bcd60e51b81526004016107789061234b565b600e55565b610fe5848484611505565b6001600160a01b0383163b151580156110075750611005848484846119a5565b155b15611025576040516368d2bf6b60e11b815260040160405180910390fd5b50505050565b6000546001600160a01b031633146110555760405162461bcd60e51b81526004016107789061234b565b600980546001919060ff19168280610791565b3233146110b75760405162461bcd60e51b815260206004820152601e60248201527f5468652063616c6c657220697320616e6f7468657220636f6e747261637400006044820152606401610778565b600260095460ff1660038111156110de57634e487b7160e01b600052602160045260246000fd5b1461112b5760405162461bcd60e51b815260206004820152601c60248201527f5075626c69632053616c65206973206e6f7420616374697661746564000000006044820152606401610778565b6103e861113b6002546001540390565b106111ae5760405162461bcd60e51b815260206004820152603960248201527f5055424c49435f53414c453a20506c6561736520676f20746f20746865204f7060448201527f656e73656120746f20627579205468652053686d757266732e000000000000006064820152608401610778565b6103e88160ff166111c26002546001540390565b6111cc9190612380565b111561121a5760405162461bcd60e51b815260206004820181905260248201527f5055424c49435f53414c453a204d617820737570706c792065786365656465646044820152606401610778565b61122f60ff821667013fbe85edc900006123d1565b34101561127e5760405162461bcd60e51b815260206004820181905260248201527f57484954454c4953545f53414c453a204e6f7420656e6f7567682066756e64736044820152606401610778565b61128b338260ff166116f3565b6112a3610b7660ff831667013fbe85edc900006123d1565b50565b60606112b18261147d565b6112fd5760405162461bcd60e51b815260206004820152601f60248201527f55524920717565727920666f72206e6f6e6578697374656e7420746f6b656e006044820152606401610778565b600c5460ff1615611311576105d982611a9d565b600b805461131e90612433565b80601f016020809104026020016040519081016040528092919081815260200182805461134a90612433565b80156113975780601f1061136c57610100808354040283529160200191611397565b820191906000526020600020905b81548152906001019060200180831161137a57829003601f168201915b50505050509050919050565b919050565b6000546001600160a01b031633146113d25760405162461bcd60e51b81526004016107789061234b565b600c805460ff1916911515919091179055565b6000546001600160a01b0316331461140f5760405162461bcd60e51b81526004016107789061234b565b6001600160a01b0381166114745760405162461bcd60e51b815260206004820152602660248201527f4f776e61626c653a206e6577206f776e657220697320746865207a65726f206160448201526564647265737360d01b6064820152608401610778565b6112a3816118b2565b6000600154821080156105d9575050600090815260056020526040902054600160e01b900460ff161590565b60008281526007602052604080822080546001600160a01b0319166001600160a01b0387811691821790925591518593918516917f8c5be1e5ebec7d5bd14f71427d1e84f3dd0314c0f7b2291e5b200ac8c7c3b92591a4505050565b600061151082611798565b9050836001600160a01b031681600001516001600160a01b0316146115475760405162a1148160e81b815260040160405180910390fd5b6000336001600160a01b03861614806115655750611565853361053f565b8061158057503361157584610671565b6001600160a01b0316145b9050806115a057604051632ce44b5f60e11b815260040160405180910390fd5b6001600160a01b0384166115c757604051633a954ecd60e21b815260040160405180910390fd5b6115d3600084876114a9565b6001600160a01b038581166000908152600660209081526040808320805467ffffffffffffffff198082166001600160401b0392831660001901831617909255898616808652838620805493841693831660019081018416949094179055898652600590945282852080546001600160e01b031916909417600160a01b429092169190910217835587018084529220805491939091166116a75760015482146116a757805460208601516001600160401b0316600160a01b026001600160e01b03199091166001600160a01b038a16171781555b50505082846001600160a01b0316866001600160a01b03167fddf252ad1be2c89b69c2b068fc378daa952ba7f163c4a11628f55a4df523b3ef60405160405180910390a45b5050505050565b61170d828260405180602001604052806000815250611b22565b5050565b8034101561175a5760405162461bcd60e51b81526020600482015260166024820152752732b2b2103a379039b2b7321036b7b9329022aa241760511b6044820152606401610778565b803411156112a357336108fc61177083346123f0565b6040518115909202916000818181858888f1935050505015801561170d573d6000803e3d6000fd5b60408051606081018252600080825260208201819052918101919091528160015481101561189957600081815260056020908152604091829020825160608101845290546001600160a01b0381168252600160a01b81046001600160401b031692820192909252600160e01b90910460ff161515918101829052906118975780516001600160a01b03161561182e579392505050565b5060001901600081815260056020908152604091829020825160608101845290546001600160a01b038116808352600160a01b82046001600160401b031693830193909352600160e01b900460ff1615159281019290925215611892579392505050565b61182e565b505b604051636f96cda160e11b815260040160405180910390fd5b600080546001600160a01b038381166001600160a01b0319831681178455604051919092169283917f8be0079c531659141344cd1fd0a4f28419497f9722a3daafe3b4186f6b6457e09190a35050565b6000826001600160a01b03168260405160006040518083038185875af1925050503d806000811461194f576040519150601f19603f3d011682016040523d82523d6000602084013e611954565b606091505b505090508061073e5760405162461bcd60e51b815260206004820152601a60248201527f57495448445241573a205472616e73666572206661696c65642e0000000000006044820152606401610778565b604051630a85bd0160e11b81526000906001600160a01b0385169063150b7a02906119da9033908990889088906004016122d3565b602060405180830381600087803b1580156119f457600080fd5b505af1925050508015611a24575060408051601f3d908101601f19168201909252611a2191810190612152565b60015b611a7f573d808015611a52576040519150601f19603f3d011682016040523d82523d6000602084013e611a57565b606091505b508051611a77576040516368d2bf6b60e11b815260040160405180910390fd5b805181602001fd5b6001600160e01b031916630a85bd0160e11b1490505b949350505050565b6060611aa88261147d565b611ac557604051630a14c4b560e41b815260040160405180910390fd5b6000611acf611b2f565b9050805160001415611af05760405180602001604052806000815250611b1b565b80611afa84611b3e565b604051602001611b0b9291906122a4565b6040516020818303038152906040525b9392505050565b61073e8383836001611c57565b6060600a80546105ee90612433565b606081611b625750506040805180820190915260018152600360fc1b602082015290565b8160005b8115611b8c5780611b768161246e565b9150611b859050600a836123bd565b9150611b66565b6000816001600160401b03811115611bb457634e487b7160e01b600052604160045260246000fd5b6040519080825280601f01601f191660200182016040528015611bde576020820181803683370190505b5090505b8415611a9557611bf36001836123f0565b9150611c00600a86612489565b611c0b906030612380565b60f81b818381518110611c2e57634e487b7160e01b600052603260045260246000fd5b60200101906001600160f81b031916908160001a905350611c50600a866123bd565b9450611be2565b6001546001600160a01b038516611c8057604051622e076360e81b815260040160405180910390fd5b83611c9e5760405163b562e8dd60e01b815260040160405180910390fd5b6001600160a01b038516600081815260066020908152604080832080546fffffffffffffffffffffffffffffffff1981166001600160401b038083168c0181169182176801000000000000000067ffffffffffffffff1990941690921783900481168c01811690920217909155858452600590925290912080546001600160e01b031916909217600160a01b429092169190910217905580808501838015611d4f57506001600160a01b0387163b15155b15611dd8575b60405182906001600160a01b038916906000907fddf252ad1be2c89b69c2b068fc378daa952ba7f163c4a11628f55a4df523b3ef908290a4611da060008884806001019550886119a5565b611dbd576040516368d2bf6b60e11b815260040160405180910390fd5b80821415611d55578260015414611dd357600080fd5b611e1e565b5b6040516001830192906001600160a01b038916906000907fddf252ad1be2c89b69c2b068fc378daa952ba7f163c4a11628f55a4df523b3ef908290a480821415611dd9575b506001556116ec565b828054611e3390612433565b90600052602060002090601f016020900481019282611e555760008555611e9b565b82601f10611e6e5782800160ff19823516178555611e9b565b82800160010185558215611e9b579182015b82811115611e9b578235825591602001919060010190611e80565b50611ea7929150611eab565b5090565b5b80821115611ea75760008155600101611eac565b60006001600160401b0380841115611eda57611eda6124c9565b604051601f8501601f19908116603f01168101908282118183101715611f0257611f026124c9565b81604052809350858152868686011115611f1b57600080fd5b858560208301376000602087830101525050509392505050565b80356001600160a01b03811681146113a357600080fd5b803580151581146113a357600080fd5b60008083601f840112611f6d578182fd5b5081356001600160401b03811115611f83578182fd5b602083019150836020828501011115611f9b57600080fd5b9250929050565b803560ff811681146113a357600080fd5b600060208284031215611fc4578081fd5b611b1b82611f35565b60008060408385031215611fdf578081fd5b611fe883611f35565b9150611ff660208401611f35565b90509250929050565b600080600060608486031215612013578081fd5b61201c84611f35565b925061202a60208501611f35565b9150604084013590509250925092565b6000806000806080858703121561204f578081fd5b61205885611f35565b935061206660208601611f35565b92506040850135915060608501356001600160401b03811115612087578182fd5b8501601f81018713612097578182fd5b6120a687823560208401611ec0565b91505092959194509250565b600080604083850312156120c4578182fd5b6120cd83611f35565b9150611ff660208401611f4c565b600080604083850312156120ed578182fd5b6120f683611f35565b946020939093013593505050565b600060208284031215612115578081fd5b611b1b82611f4c565b60006020828403121561212f578081fd5b5035919050565b600060208284031215612147578081fd5b8135611b1b816124df565b600060208284031215612163578081fd5b8151611b1b816124df565b60008060208385031215612180578182fd5b82356001600160401b03811115612195578283fd5b6121a185828601611f5c565b90969095509350505050565b6000602082840312156121be578081fd5b81356001600160401b038111156121d3578182fd5b8201601f810184136121e3578182fd5b611a9584823560208401611ec0565b600060208284031215612203578081fd5b611b1b82611fa2565b600080600060408486031215612220578081fd5b61222984611fa2565b925060208401356001600160401b03811115612243578182fd5b61224f86828701611f5c565b9497909650939450505050565b60008151808452612274816020860160208601612407565b601f01601f19169290920160200192915050565b6000825161229a818460208701612407565b9190910192915050565b600083516122b6818460208801612407565b8351908301906122ca818360208801612407565b01949350505050565b6001600160a01b03858116825284166020820152604081018390526080606082018190526000906123069083018461225c565b9695505050505050565b602081016004831061233257634e487b7160e01b600052602160045260246000fd5b91905290565b602081526000611b1b602083018461225c565b6020808252818101527f4f776e61626c653a2063616c6c6572206973206e6f7420746865206f776e6572604082015260600190565b600082198211156123935761239361249d565b500190565b600060ff821660ff84168060ff038211156123b5576123b561249d565b019392505050565b6000826123cc576123cc6124b3565b500490565b60008160001904831182151516156123eb576123eb61249d565b500290565b6000828210156124025761240261249d565b500390565b60005b8381101561242257818101518382015260200161240a565b838111156110255750506000910152565b600181811c9082168061244757607f821691505b6020821081141561246857634e487b7160e01b600052602260045260246000fd5b50919050565b60006000198214156124825761248261249d565b5060010190565b600082612498576124986124b3565b500690565b634e487b7160e01b600052601160045260246000fd5b634e487b7160e01b600052601260045260246000fd5b634e487b7160e01b600052604160045260246000fd5b6001600160e01b0319811681146112a357600080fdfea26469706673582212207faef35a00ff8b5833896fa8a87b7c74cf46c3dac6cf5a38c218784b3bcb2d3364736f6c63430008040033",
  "immutableReferences": {},
  "source": "// SPDX-License-Identifier: MIT\n\n\n//                 \n//              \n//                   \n//                   \n//                         \n//                              \n\npragma solidity ^0.8.4;\n\nimport \"@openzeppelin/contracts/access/Ownable.sol\";\nimport \"./ERC721A.sol\";\n\ncontract TheShmurfs is Ownable, ERC721A {\n\n  enum Step {\n    Before,\n    WhitelistSale,\n    PublicSale,\n    After\n  }\n\n  Step public sellingStep;\n\n  string private baseURI;\n  string private unrevealedImageURL;\n  bool private revealed;\n\n  uint private constant MAX_SUPPLY          = 1000;\n  uint private constant PRICE_WHITELIST     = 0.08 ether;\n  uint private constant PRICE_PUBLIC        = 0.09 ether;\n  uint private constant MAX_WHITELIST_BATCH = 3;\n\n  address private fundWallet    = payable(0xc7f9aDaec08aBB1ac05d8f8Fd6015A0912b43392); // Owner Fund Wallet Address\n  address private devOneWallet  = payable(0xbC937543371F759867acf29A3391dEecF12f3d76); // Developer One Wallet Address\n\n  bytes32 private whitelistMintPassKey;\n\n  mapping(address => uint8) private whitelistBuyList;\n\n  constructor() ERC721A(\"The Shmurfs\", \"SHMURFS\") {\n    sellingStep = Step.Before;\n    revealed = false;\n    whitelistMintPassKey = getHash(\"0\");\n  }\n\n  modifier callerIsUser() {\n    require(tx.origin == msg.sender, \"The caller is another contract\");\n    _;\n  }\n\n  modifier whitelistSaleIsOpen() {\n    require(sellingStep == Step.WhitelistSale, \"Whitelist Sale is not activated\");\n    _;\n  }\n\n  modifier publicSaleIsOpen() {\n    require(sellingStep == Step.PublicSale, \"Public Sale is not activated\");\n    _;\n  }\n\n  function whitelistMint(uint8 quantity, string calldata mintPasskey_) external payable callerIsUser whitelistSaleIsOpen {\n    require(whitelistMintPassKey == getHash(mintPasskey_), \"WHITELIST_SALE: Passkey not correct\");\n    require(totalSupply() < MAX_SUPPLY, \"WHITELIST_SALE: Please go to the Opensea to buy The Shmurfs.\");\n    require(totalSupply() + quantity <= MAX_SUPPLY, \"WHITELIST_SALE: Max supply exceeded\");\n    require(whitelistBuyList[msg.sender] + quantity <= MAX_WHITELIST_BATCH, \"WHITELIST_SALE: You can not get more than 3 NFTs on the Whitelist Sale\");\n    require(msg.value >= PRICE_WHITELIST * quantity, \"WHITELIST_SALE: Not enough funds\");\n\n    whitelistBuyList[msg.sender] += quantity;\n    _safeMint(msg.sender, quantity);\n\n    refundIfOver(PRICE_WHITELIST * quantity);\n  }\n\n  function publicSaleMint(uint8 quantity) external payable callerIsUser publicSaleIsOpen{\n    require(totalSupply() < MAX_SUPPLY, \"PUBLIC_SALE: Please go to the Opensea to buy The Shmurfs.\");\n    require(totalSupply() + quantity <= MAX_SUPPLY, \"PUBLIC_SALE: Max supply exceeded\");\n    require(msg.value >= PRICE_PUBLIC * quantity, \"WHITELIST_SALE: Not enough funds\");\n\n    _safeMint(msg.sender, quantity);\n    refundIfOver(PRICE_PUBLIC * quantity);\n  }\n\n  function setWhitelistMintPassKey(bytes32 mintPasskey_) external onlyOwner {\n    whitelistMintPassKey = mintPasskey_;\n  }\n\n  function setStepAsBefore() external onlyOwner {\n    sellingStep = Step.Before;\n  }\n\n  function setStepAsWhitelistSale() external onlyOwner {\n    sellingStep = Step.WhitelistSale;\n  }\n\n  function setStepAsPublicSale() external onlyOwner {\n    sellingStep = Step.PublicSale;\n  }\n\n  function setStepAsAfter() external onlyOwner {\n    sellingStep = Step.After;\n  }\n\n  // metadata URI\n  function setUnrevealedImageURL(string calldata _imageURL) external onlyOwner {\n    unrevealedImageURL = _imageURL;\n  }\n\n  function setRevealed(bool _reveal) external onlyOwner {\n    revealed = _reveal;\n  }\n\n  function setBaseURI(string calldata _baseuri) external onlyOwner {\n    baseURI = _baseuri;\n  }\n\n  function _baseURI() internal view override returns (string memory) {\n    return baseURI;\n  }\n\n  function tokenURI(uint _tokenId) public view override returns (string memory) {\n    require(_exists(_tokenId), \"URI query for nonexistent token\");\n\n    if (revealed)\n      return super.tokenURI(_tokenId);\n    else\n      return unrevealedImageURL;\n  }\n\n  // fund\n  function withdrawAll() external onlyOwner {\n    uint totalBalance = address(this).balance;\n    require(totalBalance > 0, \"WITHDRAW: No balance in contract\");\n\n    uint devOneBalance = totalBalance / 10; // 10% of total sale\n    uint ownerBalance = totalBalance - devOneBalance; // 90% of total sale\n\n    _withdraw(devOneWallet, devOneBalance);\n    _withdraw(fundWallet, ownerBalance);\n  }\n\n  function _withdraw(address _address, uint _amount) private {\n    (bool success, ) = _address.call{value: _amount}(\"\");\n\n    require(success, \"WITHDRAW: Transfer failed.\");\n  }\n\n  function refundIfOver(uint price) private {\n    require(msg.value >= price, \"Need to send more ETH.\");\n\n    if (msg.value > price) {\n      payable(msg.sender).transfer(msg.value - price);\n    }\n  }\n\n  function getPrice() public view returns (uint) {\n    require(sellingStep != Step.Before, \"Sale not started yet\");\n    require(sellingStep != Step.After, \"Sale ended\");\n    if (sellingStep == Step.PublicSale)\n      return PRICE_PUBLIC;\n    else\n      return PRICE_WHITELIST;\n  }\n\n  // Security for whitelist\n  function getHash(string memory _string) public pure returns(bytes32) {\n     return keccak256(abi.encodePacked(_string));\n  }\n}",
  "sourcePath": "D:\\Development\\smurfs-minting-website-main\\contracts\\TheShmurfs.sol",
  "compiler": {
    "name": "solc",
    "version": "0.8.4+commit.c7e474f2.Emscripten.clang"
  },
  "schemaVersion": "3.4.4",
  "updatedAt": "2022-04-12T10:54:03.942Z",
  "devdoc": {
    "kind": "dev",
    "methods": {
      "approve(address,uint256)": {
        "details": "See {IERC721-approve}."
      },
      "balanceOf(address)": {
        "details": "See {IERC721-balanceOf}."
      },
      "getApproved(uint256)": {
        "details": "See {IERC721-getApproved}."
      },
      "isApprovedForAll(address,address)": {
        "details": "See {IERC721-isApprovedForAll}."
      },
      "name()": {
        "details": "See {IERC721Metadata-name}."
      },
      "owner()": {
        "details": "Returns the address of the current owner."
      },
      "ownerOf(uint256)": {
        "details": "See {IERC721-ownerOf}."
      },
      "renounceOwnership()": {
        "details": "Leaves the contract without owner. It will not be possible to call `onlyOwner` functions anymore. Can only be called by the current owner. NOTE: Renouncing ownership will leave the contract without an owner, thereby removing any functionality that is only available to the owner."
      },
      "safeTransferFrom(address,address,uint256)": {
        "details": "See {IERC721-safeTransferFrom}."
      },
      "safeTransferFrom(address,address,uint256,bytes)": {
        "details": "See {IERC721-safeTransferFrom}."
      },
      "setApprovalForAll(address,bool)": {
        "details": "See {IERC721-setApprovalForAll}."
      },
      "supportsInterface(bytes4)": {
        "details": "See {IERC165-supportsInterface}."
      },
      "symbol()": {
        "details": "See {IERC721Metadata-symbol}."
      },
      "transferFrom(address,address,uint256)": {
        "details": "See {IERC721-transferFrom}."
      },
      "transferOwnership(address)": {
        "details": "Transfers ownership of the contract to a new account (`newOwner`). Can only be called by the current owner."
      }
    },
    "version": 1
  },
  "userdoc": {
    "kind": "user",
    "methods": {},
    "version": 1
  }
}